{"contracts/Bridge.sol":{"Bridge":{"abi":[{"inputs":[],"stateMutability":"nonpayable","type":"constructor"},{"inputs":[{"internalType":"address","name":"owner","type":"address"}],"name":"OwnableInvalidOwner","type":"error"},{"inputs":[{"internalType":"address","name":"account","type":"address"}],"name":"OwnableUnauthorizedAccount","type":"error"},{"anonymous":false,"inputs":[{"indexed":true,"internalType":"address","name":"previousOwner","type":"address"},{"indexed":true,"internalType":"address","name":"newOwner","type":"address"}],"name":"OwnershipTransferred","type":"event"},{"anonymous":false,"inputs":[{"indexed":true,"internalType":"address","name":"token","type":"address"},{"indexed":true,"internalType":"address","name":"from","type":"address"},{"indexed":false,"internalType":"uint256","name":"amount","type":"uint256"},{"indexed":false,"internalType":"uint256","name":"targetChainId","type":"uint256"},{"indexed":false,"internalType":"uint256","name":"nonce","type":"uint256"}],"name":"TokensLocked","type":"event"},{"anonymous":false,"inputs":[{"indexed":true,"internalType":"address","name":"token","type":"address"},{"indexed":true,"internalType":"address","name":"to","type":"address"},{"indexed":false,"internalType":"uint256","name":"amount","type":"uint256"},{"indexed":true,"internalType":"bytes32","name":"transactionHash","type":"bytes32"}],"name":"TokensUnlocked","type":"event"},{"inputs":[{"internalType":"address","name":"token","type":"address"},{"internalType":"uint256","name":"amount","type":"uint256"},{"internalType":"uint256","name":"targetChainId","type":"uint256"}],"name":"lockTokens","outputs":[],"stateMutability":"nonpayable","type":"function"},{"inputs":[{"internalType":"address","name":"","type":"address"}],"name":"nonces","outputs":[{"internalType":"uint256","name":"","type":"uint256"}],"stateMutability":"view","type":"function"},{"inputs":[],"name":"owner","outputs":[{"internalType":"address","name":"","type":"address"}],"stateMutability":"view","type":"function"},{"inputs":[{"internalType":"address","name":"","type":"address"},{"internalType":"bytes32","name":"","type":"bytes32"}],"name":"processedHashes","outputs":[{"internalType":"bool","name":"","type":"bool"}],"stateMutability":"view","type":"function"},{"inputs":[],"name":"renounceOwnership","outputs":[],"stateMutability":"nonpayable","type":"function"},{"inputs":[{"internalType":"address","name":"newOwner","type":"address"}],"name":"transferOwnership","outputs":[],"stateMutability":"nonpayable","type":"function"},{"inputs":[{"internalType":"address","name":"token","type":"address"},{"internalType":"address","name":"to","type":"address"},{"internalType":"uint256","name":"amount","type":"uint256"},{"internalType":"bytes32","name":"transactionHash","type":"bytes32"}],"name":"unlockTokens","outputs":[],"stateMutability":"nonpayable","type":"function"}],"evm":{"bytecode":{"linkReferences":{},"object":"608060405234801561001057600080fd5b50336001600081905550600073ffffffffffffffffffffffffffffffffffffffff168173ffffffffffffffffffffffffffffffffffffffff160361008c5760006040517f1e4fbdf700000000000000000000000000000000000000000000000000000000815260040161008391906101a8565b60405180910390fd5b61009b816100a160201b60201c565b506101c3565b6000600160009054906101000a900473ffffffffffffffffffffffffffffffffffffffff16905081600160006101000a81548173ffffffffffffffffffffffffffffffffffffffff021916908373ffffffffffffffffffffffffffffffffffffffff1602179055508173ffffffffffffffffffffffffffffffffffffffff168173ffffffffffffffffffffffffffffffffffffffff167f8be0079c531659141344cd1fd0a4f28419497f9722a3daafe3b4186f6b6457e060405160405180910390a35050565b600073ffffffffffffffffffffffffffffffffffffffff82169050919050565b600061019282610167565b9050919050565b6101a281610187565b82525050565b60006020820190506101bd6000830184610199565b92915050565b610e8a806101d26000396000f3fe608060405234801561001057600080fd5b506004361061007d5760003560e01c80638da5cb5b1161005b5780638da5cb5b146100d8578063a25983e5146100f6578063d22be76014610112578063f2fde38b146101425761007d565b8063304ccad314610082578063715018a61461009e5780637ecebe00146100a8575b600080fd5b61009c6004803603810190610097919061097b565b61015e565b005b6100a661042e565b005b6100c260048036038101906100bd91906109e2565b610442565b6040516100cf9190610a1e565b60405180910390f35b6100e061045a565b6040516100ed9190610a48565b60405180910390f35b610110600480360381019061010b9190610a63565b610484565b005b61012c60048036038101906101279190610ab6565b6106a2565b6040516101399190610b11565b60405180910390f35b61015c600480360381019061015791906109e2565b6106d1565b005b610166610757565b6002600054036101ab576040517f08c379a00000000000000000000000000000000000000000000000000000000081526004016101a290610b89565b60405180910390fd5b6002600081905550600260008573ffffffffffffffffffffffffffffffffffffffff1673ffffffffffffffffffffffffffffffffffffffff168152602001908152602001600020600082815260200190815260200160002060009054906101000a900460ff1615610251576040517f08c379a000000000000000000000000000000000000000000000000000000000815260040161024890610bf5565b60405180910390fd5b60008211610294576040517f08c379a000000000000000000000000000000000000000000000000000000000815260040161028b90610c61565b60405180910390fd5b6001600260008673ffffffffffffffffffffffffffffffffffffffff1673ffffffffffffffffffffffffffffffffffffffff168152602001908152602001600020600083815260200190815260200160002060006101000a81548160ff0219169083151502179055508373ffffffffffffffffffffffffffffffffffffffff1663a9059cbb84846040518363ffffffff1660e01b8152600401610338929190610c81565b6020604051808303816000875af1158015610357573d6000803e3d6000fd5b505050506040513d601f19601f8201168201806040525081019061037b9190610cd6565b6103ba576040517f08c379a00000000000000000000000000000000000000000000000000000000081526004016103b190610d4f565b60405180910390fd5b808373ffffffffffffffffffffffffffffffffffffffff168573ffffffffffffffffffffffffffffffffffffffff167fc24528373542ee9723afbd28e392c80d637cad2d28d9034600064379224c4405856040516104189190610a1e565b60405180910390a4600160008190555050505050565b610436610757565b61044060006107de565b565b60036020528060005260406000206000915090505481565b6000600160009054906101000a900473ffffffffffffffffffffffffffffffffffffffff16905090565b6002600054036104c9576040517f08c379a00000000000000000000000000000000000000000000000000000000081526004016104c090610b89565b60405180910390fd5b600260008190555060008211610514576040517f08c379a000000000000000000000000000000000000000000000000000000000815260040161050b90610c61565b60405180910390fd5b8273ffffffffffffffffffffffffffffffffffffffff166323b872dd3330856040518463ffffffff1660e01b815260040161055193929190610d6f565b6020604051808303816000875af1158015610570573d6000803e3d6000fd5b505050506040513d601f19601f820116820180604052508101906105949190610cd6565b6105d3576040517f08c379a00000000000000000000000000000000000000000000000000000000081526004016105ca90610d4f565b60405180910390fd5b6000600360003373ffffffffffffffffffffffffffffffffffffffff1673ffffffffffffffffffffffffffffffffffffffff168152602001908152602001600020600081548092919061062590610dd5565b9190505590503373ffffffffffffffffffffffffffffffffffffffff168473ffffffffffffffffffffffffffffffffffffffff167fa6782d3322abbfbe850e6d5c5c78e8e1df603ea07608bb9a62dd83f40d4feccc85858560405161068c93929190610e1d565b60405180910390a3506001600081905550505050565b60026020528160005260406000206020528060005260406000206000915091509054906101000a900460ff1681565b6106d9610757565b600073ffffffffffffffffffffffffffffffffffffffff168173ffffffffffffffffffffffffffffffffffffffff160361074b5760006040517f1e4fbdf70000000000000000000000000000000000000000000000000000000081526004016107429190610a48565b60405180910390fd5b610754816107de565b50565b61075f6108a4565b73ffffffffffffffffffffffffffffffffffffffff1661077d61045a565b73ffffffffffffffffffffffffffffffffffffffff16146107dc576107a06108a4565b6040517f118cdaa70000000000000000000000000000000000000000000000000000000081526004016107d39190610a48565b60405180910390fd5b565b6000600160009054906101000a900473ffffffffffffffffffffffffffffffffffffffff16905081600160006101000a81548173ffffffffffffffffffffffffffffffffffffffff021916908373ffffffffffffffffffffffffffffffffffffffff1602179055508173ffffffffffffffffffffffffffffffffffffffff168173ffffffffffffffffffffffffffffffffffffffff167f8be0079c531659141344cd1fd0a4f28419497f9722a3daafe3b4186f6b6457e060405160405180910390a35050565b600033905090565b600080fd5b600073ffffffffffffffffffffffffffffffffffffffff82169050919050565b60006108dc826108b1565b9050919050565b6108ec816108d1565b81146108f757600080fd5b50565b600081359050610909816108e3565b92915050565b6000819050919050565b6109228161090f565b811461092d57600080fd5b50565b60008135905061093f81610919565b92915050565b6000819050919050565b61095881610945565b811461096357600080fd5b50565b6000813590506109758161094f565b92915050565b60008060008060808587031215610995576109946108ac565b5b60006109a3878288016108fa565b94505060206109b4878288016108fa565b93505060406109c587828801610930565b92505060606109d687828801610966565b91505092959194509250565b6000602082840312156109f8576109f76108ac565b5b6000610a06848285016108fa565b91505092915050565b610a188161090f565b82525050565b6000602082019050610a336000830184610a0f565b92915050565b610a42816108d1565b82525050565b6000602082019050610a5d6000830184610a39565b92915050565b600080600060608486031215610a7c57610a7b6108ac565b5b6000610a8a868287016108fa565b9350506020610a9b86828701610930565b9250506040610aac86828701610930565b9150509250925092565b60008060408385031215610acd57610acc6108ac565b5b6000610adb858286016108fa565b9250506020610aec85828601610966565b9150509250929050565b60008115159050919050565b610b0b81610af6565b82525050565b6000602082019050610b266000830184610b02565b92915050565b600082825260208201905092915050565b7f5265656e7472616e637947756172643a207265656e7472616e742063616c6c00600082015250565b6000610b73601f83610b2c565b9150610b7e82610b3d565b602082019050919050565b60006020820190508181036000830152610ba281610b66565b9050919050565b7f5472616e73616374696f6e20616c72656164792070726f636573736564000000600082015250565b6000610bdf601d83610b2c565b9150610bea82610ba9565b602082019050919050565b60006020820190508181036000830152610c0e81610bd2565b9050919050565b7f416d6f756e74206d7573742062652067726561746572207468616e2030000000600082015250565b6000610c4b601d83610b2c565b9150610c5682610c15565b602082019050919050565b60006020820190508181036000830152610c7a81610c3e565b9050919050565b6000604082019050610c966000830185610a39565b610ca36020830184610a0f565b9392505050565b610cb381610af6565b8114610cbe57600080fd5b50565b600081519050610cd081610caa565b92915050565b600060208284031215610cec57610ceb6108ac565b5b6000610cfa84828501610cc1565b91505092915050565b7f5472616e73666572206661696c65640000000000000000000000000000000000600082015250565b6000610d39600f83610b2c565b9150610d4482610d03565b602082019050919050565b60006020820190508181036000830152610d6881610d2c565b9050919050565b6000606082019050610d846000830186610a39565b610d916020830185610a39565b610d9e6040830184610a0f565b949350505050565b7f4e487b7100000000000000000000000000000000000000000000000000000000600052601160045260246000fd5b6000610de08261090f565b91507fffffffffffffffffffffffffffffffffffffffffffffffffffffffffffffffff8203610e1257610e11610da6565b5b600182019050919050565b6000606082019050610e326000830186610a0f565b610e3f6020830185610a0f565b610e4c6040830184610a0f565b94935050505056fea2646970667358221220e67c8eee7aef61ad896dc9578ed864d47963adf35f0f7e903298b49f2abd9ab564736f6c63430008180033","opcodes":"PUSH1 0x80 PUSH1 0x40 MSTORE CALLVALUE DUP1 ISZERO PUSH2 0x10 JUMPI PUSH1 0x0 DUP1 REVERT JUMPDEST POP CALLER PUSH1 0x1 PUSH1 0x0 DUP2 SWAP1 SSTORE POP PUSH1 0x0 PUSH20 0xFFFFFFFFFFFFFFFFFFFFFFFFFFFFFFFFFFFFFFFF AND DUP2 PUSH20 0xFFFFFFFFFFFFFFFFFFFFFFFFFFFFFFFFFFFFFFFF AND SUB PUSH2 0x8C JUMPI PUSH1 0x0 PUSH1 0x40 MLOAD PUSH32 0x1E4FBDF700000000000000000000000000000000000000000000000000000000 DUP2 MSTORE PUSH1 0x4 ADD PUSH2 0x83 SWAP2 SWAP1 PUSH2 0x1A8 JUMP JUMPDEST PUSH1 0x40 MLOAD DUP1 SWAP2 SUB SWAP1 REVERT JUMPDEST PUSH2 0x9B DUP2 PUSH2 0xA1 PUSH1 0x20 SHL PUSH1 0x20 SHR JUMP JUMPDEST POP PUSH2 0x1C3 JUMP JUMPDEST PUSH1 0x0 PUSH1 0x1 PUSH1 0x0 SWAP1 SLOAD SWAP1 PUSH2 0x100 EXP SWAP1 DIV PUSH20 0xFFFFFFFFFFFFFFFFFFFFFFFFFFFFFFFFFFFFFFFF AND SWAP1 POP DUP2 PUSH1 0x1 PUSH1 0x0 PUSH2 0x100 EXP DUP2 SLOAD DUP2 PUSH20 0xFFFFFFFFFFFFFFFFFFFFFFFFFFFFFFFFFFFFFFFF MUL NOT AND SWAP1 DUP4 PUSH20 0xFFFFFFFFFFFFFFFFFFFFFFFFFFFFFFFFFFFFFFFF AND MUL OR SWAP1 SSTORE POP DUP2 PUSH20 0xFFFFFFFFFFFFFFFFFFFFFFFFFFFFFFFFFFFFFFFF AND DUP2 PUSH20 0xFFFFFFFFFFFFFFFFFFFFFFFFFFFFFFFFFFFFFFFF AND PUSH32 0x8BE0079C531659141344CD1FD0A4F28419497F9722A3DAAFE3B4186F6B6457E0 PUSH1 0x40 MLOAD PUSH1 0x40 MLOAD DUP1 SWAP2 SUB SWAP1 LOG3 POP POP JUMP JUMPDEST PUSH1 0x0 PUSH20 0xFFFFFFFFFFFFFFFFFFFFFFFFFFFFFFFFFFFFFFFF DUP3 AND SWAP1 POP SWAP2 SWAP1 POP JUMP JUMPDEST PUSH1 0x0 PUSH2 0x192 DUP3 PUSH2 0x167 JUMP JUMPDEST SWAP1 POP SWAP2 SWAP1 POP JUMP JUMPDEST PUSH2 0x1A2 DUP2 PUSH2 0x187 JUMP JUMPDEST DUP3 MSTORE POP POP JUMP JUMPDEST PUSH1 0x0 PUSH1 0x20 DUP3 ADD SWAP1 POP PUSH2 0x1BD PUSH1 0x0 DUP4 ADD DUP5 PUSH2 0x199 JUMP JUMPDEST SWAP3 SWAP2 POP POP JUMP JUMPDEST PUSH2 0xE8A DUP1 PUSH2 0x1D2 PUSH1 0x0 CODECOPY PUSH1 0x0 RETURN INVALID PUSH1 0x80 PUSH1 0x40 MSTORE CALLVALUE DUP1 ISZERO PUSH2 0x10 JUMPI PUSH1 0x0 DUP1 REVERT JUMPDEST POP PUSH1 0x4 CALLDATASIZE LT PUSH2 0x7D JUMPI PUSH1 0x0 CALLDATALOAD PUSH1 0xE0 SHR DUP1 PUSH4 0x8DA5CB5B GT PUSH2 0x5B JUMPI DUP1 PUSH4 0x8DA5CB5B EQ PUSH2 0xD8 JUMPI DUP1 PUSH4 0xA25983E5 EQ PUSH2 0xF6 JUMPI DUP1 PUSH4 0xD22BE760 EQ PUSH2 0x112 JUMPI DUP1 PUSH4 0xF2FDE38B EQ PUSH2 0x142 JUMPI PUSH2 0x7D JUMP JUMPDEST DUP1 PUSH4 0x304CCAD3 EQ PUSH2 0x82 JUMPI DUP1 PUSH4 0x715018A6 EQ PUSH2 0x9E JUMPI DUP1 PUSH4 0x7ECEBE00 EQ PUSH2 0xA8 JUMPI JUMPDEST PUSH1 0x0 DUP1 REVERT JUMPDEST PUSH2 0x9C PUSH1 0x4 DUP1 CALLDATASIZE SUB DUP2 ADD SWAP1 PUSH2 0x97 SWAP2 SWAP1 PUSH2 0x97B JUMP JUMPDEST PUSH2 0x15E JUMP JUMPDEST STOP JUMPDEST PUSH2 0xA6 PUSH2 0x42E JUMP JUMPDEST STOP JUMPDEST PUSH2 0xC2 PUSH1 0x4 DUP1 CALLDATASIZE SUB DUP2 ADD SWAP1 PUSH2 0xBD SWAP2 SWAP1 PUSH2 0x9E2 JUMP JUMPDEST PUSH2 0x442 JUMP JUMPDEST PUSH1 0x40 MLOAD PUSH2 0xCF SWAP2 SWAP1 PUSH2 0xA1E JUMP JUMPDEST PUSH1 0x40 MLOAD DUP1 SWAP2 SUB SWAP1 RETURN JUMPDEST PUSH2 0xE0 PUSH2 0x45A JUMP JUMPDEST PUSH1 0x40 MLOAD PUSH2 0xED SWAP2 SWAP1 PUSH2 0xA48 JUMP JUMPDEST PUSH1 0x40 MLOAD DUP1 SWAP2 SUB SWAP1 RETURN JUMPDEST PUSH2 0x110 PUSH1 0x4 DUP1 CALLDATASIZE SUB DUP2 ADD SWAP1 PUSH2 0x10B SWAP2 SWAP1 PUSH2 0xA63 JUMP JUMPDEST PUSH2 0x484 JUMP JUMPDEST STOP JUMPDEST PUSH2 0x12C PUSH1 0x4 DUP1 CALLDATASIZE SUB DUP2 ADD SWAP1 PUSH2 0x127 SWAP2 SWAP1 PUSH2 0xAB6 JUMP JUMPDEST PUSH2 0x6A2 JUMP JUMPDEST PUSH1 0x40 MLOAD PUSH2 0x139 SWAP2 SWAP1 PUSH2 0xB11 JUMP JUMPDEST PUSH1 0x40 MLOAD DUP1 SWAP2 SUB SWAP1 RETURN JUMPDEST PUSH2 0x15C PUSH1 0x4 DUP1 CALLDATASIZE SUB DUP2 ADD SWAP1 PUSH2 0x157 SWAP2 SWAP1 PUSH2 0x9E2 JUMP JUMPDEST PUSH2 0x6D1 JUMP JUMPDEST STOP JUMPDEST PUSH2 0x166 PUSH2 0x757 JUMP JUMPDEST PUSH1 0x2 PUSH1 0x0 SLOAD SUB PUSH2 0x1AB JUMPI PUSH1 0x40 MLOAD PUSH32 0x8C379A000000000000000000000000000000000000000000000000000000000 DUP2 MSTORE PUSH1 0x4 ADD PUSH2 0x1A2 SWAP1 PUSH2 0xB89 JUMP JUMPDEST PUSH1 0x40 MLOAD DUP1 SWAP2 SUB SWAP1 REVERT JUMPDEST PUSH1 0x2 PUSH1 0x0 DUP2 SWAP1 SSTORE POP PUSH1 0x2 PUSH1 0x0 DUP6 PUSH20 0xFFFFFFFFFFFFFFFFFFFFFFFFFFFFFFFFFFFFFFFF AND PUSH20 0xFFFFFFFFFFFFFFFFFFFFFFFFFFFFFFFFFFFFFFFF AND DUP2 MSTORE PUSH1 0x20 ADD SWAP1 DUP2 MSTORE PUSH1 0x20 ADD PUSH1 0x0 KECCAK256 PUSH1 0x0 DUP3 DUP2 MSTORE PUSH1 0x20 ADD SWAP1 DUP2 MSTORE PUSH1 0x20 ADD PUSH1 0x0 KECCAK256 PUSH1 0x0 SWAP1 SLOAD SWAP1 PUSH2 0x100 EXP SWAP1 DIV PUSH1 0xFF AND ISZERO PUSH2 0x251 JUMPI PUSH1 0x40 MLOAD PUSH32 0x8C379A000000000000000000000000000000000000000000000000000000000 DUP2 MSTORE PUSH1 0x4 ADD PUSH2 0x248 SWAP1 PUSH2 0xBF5 JUMP JUMPDEST PUSH1 0x40 MLOAD DUP1 SWAP2 SUB SWAP1 REVERT JUMPDEST PUSH1 0x0 DUP3 GT PUSH2 0x294 JUMPI PUSH1 0x40 MLOAD PUSH32 0x8C379A000000000000000000000000000000000000000000000000000000000 DUP2 MSTORE PUSH1 0x4 ADD PUSH2 0x28B SWAP1 PUSH2 0xC61 JUMP JUMPDEST PUSH1 0x40 MLOAD DUP1 SWAP2 SUB SWAP1 REVERT JUMPDEST PUSH1 0x1 PUSH1 0x2 PUSH1 0x0 DUP7 PUSH20 0xFFFFFFFFFFFFFFFFFFFFFFFFFFFFFFFFFFFFFFFF AND PUSH20 0xFFFFFFFFFFFFFFFFFFFFFFFFFFFFFFFFFFFFFFFF AND DUP2 MSTORE PUSH1 0x20 ADD SWAP1 DUP2 MSTORE PUSH1 0x20 ADD PUSH1 0x0 KECCAK256 PUSH1 0x0 DUP4 DUP2 MSTORE PUSH1 0x20 ADD SWAP1 DUP2 MSTORE PUSH1 0x20 ADD PUSH1 0x0 KECCAK256 PUSH1 0x0 PUSH2 0x100 EXP DUP2 SLOAD DUP2 PUSH1 0xFF MUL NOT AND SWAP1 DUP4 ISZERO ISZERO MUL OR SWAP1 SSTORE POP DUP4 PUSH20 0xFFFFFFFFFFFFFFFFFFFFFFFFFFFFFFFFFFFFFFFF AND PUSH4 0xA9059CBB DUP5 DUP5 PUSH1 0x40 MLOAD DUP4 PUSH4 0xFFFFFFFF AND PUSH1 0xE0 SHL DUP2 MSTORE PUSH1 0x4 ADD PUSH2 0x338 SWAP3 SWAP2 SWAP1 PUSH2 0xC81 JUMP JUMPDEST PUSH1 0x20 PUSH1 0x40 MLOAD DUP1 DUP4 SUB DUP2 PUSH1 0x0 DUP8 GAS CALL ISZERO DUP1 ISZERO PUSH2 0x357 JUMPI RETURNDATASIZE PUSH1 0x0 DUP1 RETURNDATACOPY RETURNDATASIZE PUSH1 0x0 REVERT JUMPDEST POP POP POP POP PUSH1 0x40 MLOAD RETURNDATASIZE PUSH1 0x1F NOT PUSH1 0x1F DUP3 ADD AND DUP3 ADD DUP1 PUSH1 0x40 MSTORE POP DUP2 ADD SWAP1 PUSH2 0x37B SWAP2 SWAP1 PUSH2 0xCD6 JUMP JUMPDEST PUSH2 0x3BA JUMPI PUSH1 0x40 MLOAD PUSH32 0x8C379A000000000000000000000000000000000000000000000000000000000 DUP2 MSTORE PUSH1 0x4 ADD PUSH2 0x3B1 SWAP1 PUSH2 0xD4F JUMP JUMPDEST PUSH1 0x40 MLOAD DUP1 SWAP2 SUB SWAP1 REVERT JUMPDEST DUP1 DUP4 PUSH20 0xFFFFFFFFFFFFFFFFFFFFFFFFFFFFFFFFFFFFFFFF AND DUP6 PUSH20 0xFFFFFFFFFFFFFFFFFFFFFFFFFFFFFFFFFFFFFFFF AND PUSH32 0xC24528373542EE9723AFBD28E392C80D637CAD2D28D9034600064379224C4405 DUP6 PUSH1 0x40 MLOAD PUSH2 0x418 SWAP2 SWAP1 PUSH2 0xA1E JUMP JUMPDEST PUSH1 0x40 MLOAD DUP1 SWAP2 SUB SWAP1 LOG4 PUSH1 0x1 PUSH1 0x0 DUP2 SWAP1 SSTORE POP POP POP POP POP JUMP JUMPDEST PUSH2 0x436 PUSH2 0x757 JUMP JUMPDEST PUSH2 0x440 PUSH1 0x0 PUSH2 0x7DE JUMP JUMPDEST JUMP JUMPDEST PUSH1 0x3 PUSH1 0x20 MSTORE DUP1 PUSH1 0x0 MSTORE PUSH1 0x40 PUSH1 0x0 KECCAK256 PUSH1 0x0 SWAP2 POP SWAP1 POP SLOAD DUP2 JUMP JUMPDEST PUSH1 0x0 PUSH1 0x1 PUSH1 0x0 SWAP1 SLOAD SWAP1 PUSH2 0x100 EXP SWAP1 DIV PUSH20 0xFFFFFFFFFFFFFFFFFFFFFFFFFFFFFFFFFFFFFFFF AND SWAP1 POP SWAP1 JUMP JUMPDEST PUSH1 0x2 PUSH1 0x0 SLOAD SUB PUSH2 0x4C9 JUMPI PUSH1 0x40 MLOAD PUSH32 0x8C379A000000000000000000000000000000000000000000000000000000000 DUP2 MSTORE PUSH1 0x4 ADD PUSH2 0x4C0 SWAP1 PUSH2 0xB89 JUMP JUMPDEST PUSH1 0x40 MLOAD DUP1 SWAP2 SUB SWAP1 REVERT JUMPDEST PUSH1 0x2 PUSH1 0x0 DUP2 SWAP1 SSTORE POP PUSH1 0x0 DUP3 GT PUSH2 0x514 JUMPI PUSH1 0x40 MLOAD PUSH32 0x8C379A000000000000000000000000000000000000000000000000000000000 DUP2 MSTORE PUSH1 0x4 ADD PUSH2 0x50B SWAP1 PUSH2 0xC61 JUMP JUMPDEST PUSH1 0x40 MLOAD DUP1 SWAP2 SUB SWAP1 REVERT JUMPDEST DUP3 PUSH20 0xFFFFFFFFFFFFFFFFFFFFFFFFFFFFFFFFFFFFFFFF AND PUSH4 0x23B872DD CALLER ADDRESS DUP6 PUSH1 0x40 MLOAD DUP5 PUSH4 0xFFFFFFFF AND PUSH1 0xE0 SHL DUP2 MSTORE PUSH1 0x4 ADD PUSH2 0x551 SWAP4 SWAP3 SWAP2 SWAP1 PUSH2 0xD6F JUMP JUMPDEST PUSH1 0x20 PUSH1 0x40 MLOAD DUP1 DUP4 SUB DUP2 PUSH1 0x0 DUP8 GAS CALL ISZERO DUP1 ISZERO PUSH2 0x570 JUMPI RETURNDATASIZE PUSH1 0x0 DUP1 RETURNDATACOPY RETURNDATASIZE PUSH1 0x0 REVERT JUMPDEST POP POP POP POP PUSH1 0x40 MLOAD RETURNDATASIZE PUSH1 0x1F NOT PUSH1 0x1F DUP3 ADD AND DUP3 ADD DUP1 PUSH1 0x40 MSTORE POP DUP2 ADD SWAP1 PUSH2 0x594 SWAP2 SWAP1 PUSH2 0xCD6 JUMP JUMPDEST PUSH2 0x5D3 JUMPI PUSH1 0x40 MLOAD PUSH32 0x8C379A000000000000000000000000000000000000000000000000000000000 DUP2 MSTORE PUSH1 0x4 ADD PUSH2 0x5CA SWAP1 PUSH2 0xD4F JUMP JUMPDEST PUSH1 0x40 MLOAD DUP1 SWAP2 SUB SWAP1 REVERT JUMPDEST PUSH1 0x0 PUSH1 0x3 PUSH1 0x0 CALLER PUSH20 0xFFFFFFFFFFFFFFFFFFFFFFFFFFFFFFFFFFFFFFFF AND PUSH20 0xFFFFFFFFFFFFFFFFFFFFFFFFFFFFFFFFFFFFFFFF AND DUP2 MSTORE PUSH1 0x20 ADD SWAP1 DUP2 MSTORE PUSH1 0x20 ADD PUSH1 0x0 KECCAK256 PUSH1 0x0 DUP2 SLOAD DUP1 SWAP3 SWAP2 SWAP1 PUSH2 0x625 SWAP1 PUSH2 0xDD5 JUMP JUMPDEST SWAP2 SWAP1 POP SSTORE SWAP1 POP CALLER PUSH20 0xFFFFFFFFFFFFFFFFFFFFFFFFFFFFFFFFFFFFFFFF AND DUP5 PUSH20 0xFFFFFFFFFFFFFFFFFFFFFFFFFFFFFFFFFFFFFFFF AND PUSH32 0xA6782D3322ABBFBE850E6D5C5C78E8E1DF603EA07608BB9A62DD83F40D4FECCC DUP6 DUP6 DUP6 PUSH1 0x40 MLOAD PUSH2 0x68C SWAP4 SWAP3 SWAP2 SWAP1 PUSH2 0xE1D JUMP JUMPDEST PUSH1 0x40 MLOAD DUP1 SWAP2 SUB SWAP1 LOG3 POP PUSH1 0x1 PUSH1 0x0 DUP2 SWAP1 SSTORE POP POP POP POP JUMP JUMPDEST PUSH1 0x2 PUSH1 0x20 MSTORE DUP2 PUSH1 0x0 MSTORE PUSH1 0x40 PUSH1 0x0 KECCAK256 PUSH1 0x20 MSTORE DUP1 PUSH1 0x0 MSTORE PUSH1 0x40 PUSH1 0x0 KECCAK256 PUSH1 0x0 SWAP2 POP SWAP2 POP SWAP1 SLOAD SWAP1 PUSH2 0x100 EXP SWAP1 DIV PUSH1 0xFF AND DUP2 JUMP JUMPDEST PUSH2 0x6D9 PUSH2 0x757 JUMP JUMPDEST PUSH1 0x0 PUSH20 0xFFFFFFFFFFFFFFFFFFFFFFFFFFFFFFFFFFFFFFFF AND DUP2 PUSH20 0xFFFFFFFFFFFFFFFFFFFFFFFFFFFFFFFFFFFFFFFF AND SUB PUSH2 0x74B JUMPI PUSH1 0x0 PUSH1 0x40 MLOAD PUSH32 0x1E4FBDF700000000000000000000000000000000000000000000000000000000 DUP2 MSTORE PUSH1 0x4 ADD PUSH2 0x742 SWAP2 SWAP1 PUSH2 0xA48 JUMP JUMPDEST PUSH1 0x40 MLOAD DUP1 SWAP2 SUB SWAP1 REVERT JUMPDEST PUSH2 0x754 DUP2 PUSH2 0x7DE JUMP JUMPDEST POP JUMP JUMPDEST PUSH2 0x75F PUSH2 0x8A4 JUMP JUMPDEST PUSH20 0xFFFFFFFFFFFFFFFFFFFFFFFFFFFFFFFFFFFFFFFF AND PUSH2 0x77D PUSH2 0x45A JUMP JUMPDEST PUSH20 0xFFFFFFFFFFFFFFFFFFFFFFFFFFFFFFFFFFFFFFFF AND EQ PUSH2 0x7DC JUMPI PUSH2 0x7A0 PUSH2 0x8A4 JUMP JUMPDEST PUSH1 0x40 MLOAD PUSH32 0x118CDAA700000000000000000000000000000000000000000000000000000000 DUP2 MSTORE PUSH1 0x4 ADD PUSH2 0x7D3 SWAP2 SWAP1 PUSH2 0xA48 JUMP JUMPDEST PUSH1 0x40 MLOAD DUP1 SWAP2 SUB SWAP1 REVERT JUMPDEST JUMP JUMPDEST PUSH1 0x0 PUSH1 0x1 PUSH1 0x0 SWAP1 SLOAD SWAP1 PUSH2 0x100 EXP SWAP1 DIV PUSH20 0xFFFFFFFFFFFFFFFFFFFFFFFFFFFFFFFFFFFFFFFF AND SWAP1 POP DUP2 PUSH1 0x1 PUSH1 0x0 PUSH2 0x100 EXP DUP2 SLOAD DUP2 PUSH20 0xFFFFFFFFFFFFFFFFFFFFFFFFFFFFFFFFFFFFFFFF MUL NOT AND SWAP1 DUP4 PUSH20 0xFFFFFFFFFFFFFFFFFFFFFFFFFFFFFFFFFFFFFFFF AND MUL OR SWAP1 SSTORE POP DUP2 PUSH20 0xFFFFFFFFFFFFFFFFFFFFFFFFFFFFFFFFFFFFFFFF AND DUP2 PUSH20 0xFFFFFFFFFFFFFFFFFFFFFFFFFFFFFFFFFFFFFFFF AND PUSH32 0x8BE0079C531659141344CD1FD0A4F28419497F9722A3DAAFE3B4186F6B6457E0 PUSH1 0x40 MLOAD PUSH1 0x40 MLOAD DUP1 SWAP2 SUB SWAP1 LOG3 POP POP JUMP JUMPDEST PUSH1 0x0 CALLER SWAP1 POP SWAP1 JUMP JUMPDEST PUSH1 0x0 DUP1 REVERT JUMPDEST PUSH1 0x0 PUSH20 0xFFFFFFFFFFFFFFFFFFFFFFFFFFFFFFFFFFFFFFFF DUP3 AND SWAP1 POP SWAP2 SWAP1 POP JUMP JUMPDEST PUSH1 0x0 PUSH2 0x8DC DUP3 PUSH2 0x8B1 JUMP JUMPDEST SWAP1 POP SWAP2 SWAP1 POP JUMP JUMPDEST PUSH2 0x8EC DUP2 PUSH2 0x8D1 JUMP JUMPDEST DUP2 EQ PUSH2 0x8F7 JUMPI PUSH1 0x0 DUP1 REVERT JUMPDEST POP JUMP JUMPDEST PUSH1 0x0 DUP2 CALLDATALOAD SWAP1 POP PUSH2 0x909 DUP2 PUSH2 0x8E3 JUMP JUMPDEST SWAP3 SWAP2 POP POP JUMP JUMPDEST PUSH1 0x0 DUP2 SWAP1 POP SWAP2 SWAP1 POP JUMP JUMPDEST PUSH2 0x922 DUP2 PUSH2 0x90F JUMP JUMPDEST DUP2 EQ PUSH2 0x92D JUMPI PUSH1 0x0 DUP1 REVERT JUMPDEST POP JUMP JUMPDEST PUSH1 0x0 DUP2 CALLDATALOAD SWAP1 POP PUSH2 0x93F DUP2 PUSH2 0x919 JUMP JUMPDEST SWAP3 SWAP2 POP POP JUMP JUMPDEST PUSH1 0x0 DUP2 SWAP1 POP SWAP2 SWAP1 POP JUMP JUMPDEST PUSH2 0x958 DUP2 PUSH2 0x945 JUMP JUMPDEST DUP2 EQ PUSH2 0x963 JUMPI PUSH1 0x0 DUP1 REVERT JUMPDEST POP JUMP JUMPDEST PUSH1 0x0 DUP2 CALLDATALOAD SWAP1 POP PUSH2 0x975 DUP2 PUSH2 0x94F JUMP JUMPDEST SWAP3 SWAP2 POP POP JUMP JUMPDEST PUSH1 0x0 DUP1 PUSH1 0x0 DUP1 PUSH1 0x80 DUP6 DUP8 SUB SLT ISZERO PUSH2 0x995 JUMPI PUSH2 0x994 PUSH2 0x8AC JUMP JUMPDEST JUMPDEST PUSH1 0x0 PUSH2 0x9A3 DUP8 DUP3 DUP9 ADD PUSH2 0x8FA JUMP JUMPDEST SWAP5 POP POP PUSH1 0x20 PUSH2 0x9B4 DUP8 DUP3 DUP9 ADD PUSH2 0x8FA JUMP JUMPDEST SWAP4 POP POP PUSH1 0x40 PUSH2 0x9C5 DUP8 DUP3 DUP9 ADD PUSH2 0x930 JUMP JUMPDEST SWAP3 POP POP PUSH1 0x60 PUSH2 0x9D6 DUP8 DUP3 DUP9 ADD PUSH2 0x966 JUMP JUMPDEST SWAP2 POP POP SWAP3 SWAP6 SWAP2 SWAP5 POP SWAP3 POP JUMP JUMPDEST PUSH1 0x0 PUSH1 0x20 DUP3 DUP5 SUB SLT ISZERO PUSH2 0x9F8 JUMPI PUSH2 0x9F7 PUSH2 0x8AC JUMP JUMPDEST JUMPDEST PUSH1 0x0 PUSH2 0xA06 DUP5 DUP3 DUP6 ADD PUSH2 0x8FA JUMP JUMPDEST SWAP2 POP POP SWAP3 SWAP2 POP POP JUMP JUMPDEST PUSH2 0xA18 DUP2 PUSH2 0x90F JUMP JUMPDEST DUP3 MSTORE POP POP JUMP JUMPDEST PUSH1 0x0 PUSH1 0x20 DUP3 ADD SWAP1 POP PUSH2 0xA33 PUSH1 0x0 DUP4 ADD DUP5 PUSH2 0xA0F JUMP JUMPDEST SWAP3 SWAP2 POP POP JUMP JUMPDEST PUSH2 0xA42 DUP2 PUSH2 0x8D1 JUMP JUMPDEST DUP3 MSTORE POP POP JUMP JUMPDEST PUSH1 0x0 PUSH1 0x20 DUP3 ADD SWAP1 POP PUSH2 0xA5D PUSH1 0x0 DUP4 ADD DUP5 PUSH2 0xA39 JUMP JUMPDEST SWAP3 SWAP2 POP POP JUMP JUMPDEST PUSH1 0x0 DUP1 PUSH1 0x0 PUSH1 0x60 DUP5 DUP7 SUB SLT ISZERO PUSH2 0xA7C JUMPI PUSH2 0xA7B PUSH2 0x8AC JUMP JUMPDEST JUMPDEST PUSH1 0x0 PUSH2 0xA8A DUP7 DUP3 DUP8 ADD PUSH2 0x8FA JUMP JUMPDEST SWAP4 POP POP PUSH1 0x20 PUSH2 0xA9B DUP7 DUP3 DUP8 ADD PUSH2 0x930 JUMP JUMPDEST SWAP3 POP POP PUSH1 0x40 PUSH2 0xAAC DUP7 DUP3 DUP8 ADD PUSH2 0x930 JUMP JUMPDEST SWAP2 POP POP SWAP3 POP SWAP3 POP SWAP3 JUMP JUMPDEST PUSH1 0x0 DUP1 PUSH1 0x40 DUP4 DUP6 SUB SLT ISZERO PUSH2 0xACD JUMPI PUSH2 0xACC PUSH2 0x8AC JUMP JUMPDEST JUMPDEST PUSH1 0x0 PUSH2 0xADB DUP6 DUP3 DUP7 ADD PUSH2 0x8FA JUMP JUMPDEST SWAP3 POP POP PUSH1 0x20 PUSH2 0xAEC DUP6 DUP3 DUP7 ADD PUSH2 0x966 JUMP JUMPDEST SWAP2 POP POP SWAP3 POP SWAP3 SWAP1 POP JUMP JUMPDEST PUSH1 0x0 DUP2 ISZERO ISZERO SWAP1 POP SWAP2 SWAP1 POP JUMP JUMPDEST PUSH2 0xB0B DUP2 PUSH2 0xAF6 JUMP JUMPDEST DUP3 MSTORE POP POP JUMP JUMPDEST PUSH1 0x0 PUSH1 0x20 DUP3 ADD SWAP1 POP PUSH2 0xB26 PUSH1 0x0 DUP4 ADD DUP5 PUSH2 0xB02 JUMP JUMPDEST SWAP3 SWAP2 POP POP JUMP JUMPDEST PUSH1 0x0 DUP3 DUP3 MSTORE PUSH1 0x20 DUP3 ADD SWAP1 POP SWAP3 SWAP2 POP POP JUMP JUMPDEST PUSH32 0x5265656E7472616E637947756172643A207265656E7472616E742063616C6C00 PUSH1 0x0 DUP3 ADD MSTORE POP JUMP JUMPDEST PUSH1 0x0 PUSH2 0xB73 PUSH1 0x1F DUP4 PUSH2 0xB2C JUMP JUMPDEST SWAP2 POP PUSH2 0xB7E DUP3 PUSH2 0xB3D JUMP JUMPDEST PUSH1 0x20 DUP3 ADD SWAP1 POP SWAP2 SWAP1 POP JUMP JUMPDEST PUSH1 0x0 PUSH1 0x20 DUP3 ADD SWAP1 POP DUP2 DUP2 SUB PUSH1 0x0 DUP4 ADD MSTORE PUSH2 0xBA2 DUP2 PUSH2 0xB66 JUMP JUMPDEST SWAP1 POP SWAP2 SWAP1 POP JUMP JUMPDEST PUSH32 0x5472616E73616374696F6E20616C72656164792070726F636573736564000000 PUSH1 0x0 DUP3 ADD MSTORE POP JUMP JUMPDEST PUSH1 0x0 PUSH2 0xBDF PUSH1 0x1D DUP4 PUSH2 0xB2C JUMP JUMPDEST SWAP2 POP PUSH2 0xBEA DUP3 PUSH2 0xBA9 JUMP JUMPDEST PUSH1 0x20 DUP3 ADD SWAP1 POP SWAP2 SWAP1 POP JUMP JUMPDEST PUSH1 0x0 PUSH1 0x20 DUP3 ADD SWAP1 POP DUP2 DUP2 SUB PUSH1 0x0 DUP4 ADD MSTORE PUSH2 0xC0E DUP2 PUSH2 0xBD2 JUMP JUMPDEST SWAP1 POP SWAP2 SWAP1 POP JUMP JUMPDEST PUSH32 0x416D6F756E74206D7573742062652067726561746572207468616E2030000000 PUSH1 0x0 DUP3 ADD MSTORE POP JUMP JUMPDEST PUSH1 0x0 PUSH2 0xC4B PUSH1 0x1D DUP4 PUSH2 0xB2C JUMP JUMPDEST SWAP2 POP PUSH2 0xC56 DUP3 PUSH2 0xC15 JUMP JUMPDEST PUSH1 0x20 DUP3 ADD SWAP1 POP SWAP2 SWAP1 POP JUMP JUMPDEST PUSH1 0x0 PUSH1 0x20 DUP3 ADD SWAP1 POP DUP2 DUP2 SUB PUSH1 0x0 DUP4 ADD MSTORE PUSH2 0xC7A DUP2 PUSH2 0xC3E JUMP JUMPDEST SWAP1 POP SWAP2 SWAP1 POP JUMP JUMPDEST PUSH1 0x0 PUSH1 0x40 DUP3 ADD SWAP1 POP PUSH2 0xC96 PUSH1 0x0 DUP4 ADD DUP6 PUSH2 0xA39 JUMP JUMPDEST PUSH2 0xCA3 PUSH1 0x20 DUP4 ADD DUP5 PUSH2 0xA0F JUMP JUMPDEST SWAP4 SWAP3 POP POP POP JUMP JUMPDEST PUSH2 0xCB3 DUP2 PUSH2 0xAF6 JUMP JUMPDEST DUP2 EQ PUSH2 0xCBE JUMPI PUSH1 0x0 DUP1 REVERT JUMPDEST POP JUMP JUMPDEST PUSH1 0x0 DUP2 MLOAD SWAP1 POP PUSH2 0xCD0 DUP2 PUSH2 0xCAA JUMP JUMPDEST SWAP3 SWAP2 POP POP JUMP JUMPDEST PUSH1 0x0 PUSH1 0x20 DUP3 DUP5 SUB SLT ISZERO PUSH2 0xCEC JUMPI PUSH2 0xCEB PUSH2 0x8AC JUMP JUMPDEST JUMPDEST PUSH1 0x0 PUSH2 0xCFA DUP5 DUP3 DUP6 ADD PUSH2 0xCC1 JUMP JUMPDEST SWAP2 POP POP SWAP3 SWAP2 POP POP JUMP JUMPDEST PUSH32 0x5472616E73666572206661696C65640000000000000000000000000000000000 PUSH1 0x0 DUP3 ADD MSTORE POP JUMP JUMPDEST PUSH1 0x0 PUSH2 0xD39 PUSH1 0xF DUP4 PUSH2 0xB2C JUMP JUMPDEST SWAP2 POP PUSH2 0xD44 DUP3 PUSH2 0xD03 JUMP JUMPDEST PUSH1 0x20 DUP3 ADD SWAP1 POP SWAP2 SWAP1 POP JUMP JUMPDEST PUSH1 0x0 PUSH1 0x20 DUP3 ADD SWAP1 POP DUP2 DUP2 SUB PUSH1 0x0 DUP4 ADD MSTORE PUSH2 0xD68 DUP2 PUSH2 0xD2C JUMP JUMPDEST SWAP1 POP SWAP2 SWAP1 POP JUMP JUMPDEST PUSH1 0x0 PUSH1 0x60 DUP3 ADD SWAP1 POP PUSH2 0xD84 PUSH1 0x0 DUP4 ADD DUP7 PUSH2 0xA39 JUMP JUMPDEST PUSH2 0xD91 PUSH1 0x20 DUP4 ADD DUP6 PUSH2 0xA39 JUMP JUMPDEST PUSH2 0xD9E PUSH1 0x40 DUP4 ADD DUP5 PUSH2 0xA0F JUMP JUMPDEST SWAP5 SWAP4 POP POP POP POP JUMP JUMPDEST PUSH32 0x4E487B7100000000000000000000000000000000000000000000000000000000 PUSH1 0x0 MSTORE PUSH1 0x11 PUSH1 0x4 MSTORE PUSH1 0x24 PUSH1 0x0 REVERT JUMPDEST PUSH1 0x0 PUSH2 0xDE0 DUP3 PUSH2 0x90F JUMP JUMPDEST SWAP2 POP PUSH32 0xFFFFFFFFFFFFFFFFFFFFFFFFFFFFFFFFFFFFFFFFFFFFFFFFFFFFFFFFFFFFFFFF DUP3 SUB PUSH2 0xE12 JUMPI PUSH2 0xE11 PUSH2 0xDA6 JUMP JUMPDEST JUMPDEST PUSH1 0x1 DUP3 ADD SWAP1 POP SWAP2 SWAP1 POP JUMP JUMPDEST PUSH1 0x0 PUSH1 0x60 DUP3 ADD SWAP1 POP PUSH2 0xE32 PUSH1 0x0 DUP4 ADD DUP7 PUSH2 0xA0F JUMP JUMPDEST PUSH2 0xE3F PUSH1 0x20 DUP4 ADD DUP6 PUSH2 0xA0F JUMP JUMPDEST PUSH2 0xE4C PUSH1 0x40 DUP4 ADD DUP5 PUSH2 0xA0F JUMP JUMPDEST SWAP5 SWAP4 POP POP POP POP JUMP INVALID LOG2 PUSH5 0x6970667358 0x22 SLT KECCAK256 0xE6 PUSH29 0x8EEE7AEF61AD896DC9578ED864D47963ADF35F0F7E903298B49F2ABD9A 0xB5 PUSH5 0x736F6C6343 STOP ADDMOD XOR STOP CALLER "},"methodIdentifiers":{"lockTokens(address,uint256,uint256)":"a25983e5","nonces(address)":"7ecebe00","owner()":"8da5cb5b","processedHashes(address,bytes32)":"d22be760","renounceOwnership()":"715018a6","transferOwnership(address)":"f2fde38b","unlockTokens(address,address,uint256,bytes32)":"304ccad3"}}}}}