{
  "_format": "hh-sol-artifact-1",
  "contractName": "CrossChainBridge",
  "sourceName": "contracts/CrossChainBridge.sol",
  "abi": [
    {
      "inputs": [
        {
          "internalType": "address",
          "name": "_entryPoint",
          "type": "address"
        }
      ],
      "stateMutability": "nonpayable",
      "type": "constructor"
    },
    {
      "inputs": [
        {
          "internalType": "address",
          "name": "owner",
          "type": "address"
        }
      ],
      "name": "OwnableInvalidOwner",
      "type": "error"
    },
    {
      "inputs": [
        {
          "internalType": "address",
          "name": "account",
          "type": "address"
        }
      ],
      "name": "OwnableUnauthorizedAccount",
      "type": "error"
    },
    {
      "inputs": [],
      "name": "PausableAlreadyPaused",
      "type": "error"
    },
    {
      "inputs": [],
      "name": "PausableAlreadyUnpaused",
      "type": "error"
    },
    {
      "inputs": [],
      "name": "PausableNotPaused",
      "type": "error"
    },
    {
      "inputs": [],
      "name": "PausablePaused",
      "type": "error"
    },
    {
      "anonymous": false,
      "inputs": [
        {
          "indexed": false,
          "internalType": "uint256",
          "name": "newFee",
          "type": "uint256"
        }
      ],
      "name": "BridgeFeeUpdated",
      "type": "event"
    },
    {
      "anonymous": false,
      "inputs": [
        {
          "indexed": false,
          "internalType": "uint256",
          "name": "chainId",
          "type": "uint256"
        }
      ],
      "name": "ChainAdded",
      "type": "event"
    },
    {
      "anonymous": false,
      "inputs": [
        {
          "indexed": false,
          "internalType": "uint256",
          "name": "chainId",
          "type": "uint256"
        }
      ],
      "name": "ChainRemoved",
      "type": "event"
    },
    {
      "anonymous": false,
      "inputs": [
        {
          "indexed": true,
          "internalType": "address",
          "name": "previousOwner",
          "type": "address"
        },
        {
          "indexed": true,
          "internalType": "address",
          "name": "newOwner",
          "type": "address"
        }
      ],
      "name": "OwnershipTransferred",
      "type": "event"
    },
    {
      "anonymous": false,
      "inputs": [
        {
          "indexed": false,
          "internalType": "address",
          "name": "account",
          "type": "address"
        }
      ],
      "name": "Paused",
      "type": "event"
    },
    {
      "anonymous": false,
      "inputs": [
        {
          "indexed": true,
          "internalType": "address",
          "name": "token",
          "type": "address"
        },
        {
          "indexed": true,
          "internalType": "address",
          "name": "from",
          "type": "address"
        },
        {
          "indexed": false,
          "internalType": "uint256",
          "name": "amount",
          "type": "uint256"
        },
        {
          "indexed": false,
          "internalType": "uint256",
          "name": "chainId",
          "type": "uint256"
        },
        {
          "indexed": false,
          "internalType": "bytes32",
          "name": "operationId",
          "type": "bytes32"
        }
      ],
      "name": "TokensBurned",
      "type": "event"
    },
    {
      "anonymous": false,
      "inputs": [
        {
          "indexed": true,
          "internalType": "address",
          "name": "token",
          "type": "address"
        },
        {
          "indexed": true,
          "internalType": "address",
          "name": "from",
          "type": "address"
        },
        {
          "indexed": false,
          "internalType": "uint256",
          "name": "amount",
          "type": "uint256"
        },
        {
          "indexed": false,
          "internalType": "uint256",
          "name": "sourceChainId",
          "type": "uint256"
        },
        {
          "indexed": false,
          "internalType": "uint256",
          "name": "targetChainId",
          "type": "uint256"
        },
        {
          "indexed": false,
          "internalType": "address",
          "name": "receiver",
          "type": "address"
        },
        {
          "indexed": false,
          "internalType": "bytes32",
          "name": "operationId",
          "type": "bytes32"
        }
      ],
      "name": "TokensLocked",
      "type": "event"
    },
    {
      "anonymous": false,
      "inputs": [
        {
          "indexed": true,
          "internalType": "address",
          "name": "token",
          "type": "address"
        },
        {
          "indexed": true,
          "internalType": "address",
          "name": "to",
          "type": "address"
        },
        {
          "indexed": false,
          "internalType": "uint256",
          "name": "amount",
          "type": "uint256"
        },
        {
          "indexed": false,
          "internalType": "uint256",
          "name": "chainId",
          "type": "uint256"
        },
        {
          "indexed": false,
          "internalType": "bytes32",
          "name": "operationId",
          "type": "bytes32"
        }
      ],
      "name": "TokensMinted",
      "type": "event"
    },
    {
      "anonymous": false,
      "inputs": [
        {
          "indexed": true,
          "internalType": "address",
          "name": "token",
          "type": "address"
        },
        {
          "indexed": true,
          "internalType": "address",
          "name": "to",
          "type": "address"
        },
        {
          "indexed": false,
          "internalType": "uint256",
          "name": "amount",
          "type": "uint256"
        },
        {
          "indexed": false,
          "internalType": "uint256",
          "name": "chainId",
          "type": "uint256"
        },
        {
          "indexed": false,
          "internalType": "bytes32",
          "name": "operationId",
          "type": "bytes32"
        }
      ],
      "name": "TokensUnlocked",
      "type": "event"
    },
    {
      "anonymous": false,
      "inputs": [
        {
          "indexed": false,
          "internalType": "address",
          "name": "account",
          "type": "address"
        }
      ],
      "name": "Unpaused",
      "type": "event"
    },
    {
      "inputs": [],
      "name": "MAX_LOCK_AMOUNT",
      "outputs": [
        {
          "internalType": "uint256",
          "name": "",
          "type": "uint256"
        }
      ],
      "stateMutability": "view",
      "type": "function"
    },
    {
      "inputs": [],
      "name": "MIN_LOCK_PERIOD",
      "outputs": [
        {
          "internalType": "uint256",
          "name": "",
          "type": "uint256"
        }
      ],
      "stateMutability": "view",
      "type": "function"
    },
    {
      "inputs": [
        {
          "internalType": "uint256",
          "name": "chainId",
          "type": "uint256"
        }
      ],
      "name": "addSupportedChain",
      "outputs": [],
      "stateMutability": "nonpayable",
      "type": "function"
    },
    {
      "inputs": [
        {
          "internalType": "address",
          "name": "token",
          "type": "address"
        }
      ],
      "name": "addSupportedToken",
      "outputs": [],
      "stateMutability": "nonpayable",
      "type": "function"
    },
    {
      "inputs": [],
      "name": "bridgeFee",
      "outputs": [
        {
          "internalType": "uint256",
          "name": "",
          "type": "uint256"
        }
      ],
      "stateMutability": "view",
      "type": "function"
    },
    {
      "inputs": [
        {
          "internalType": "address",
          "name": "token",
          "type": "address"
        },
        {
          "internalType": "uint256",
          "name": "amount",
          "type": "uint256"
        }
      ],
      "name": "burnAndUnlock",
      "outputs": [
        {
          "internalType": "bytes32",
          "name": "",
          "type": "bytes32"
        }
      ],
      "stateMutability": "nonpayable",
      "type": "function"
    },
    {
      "inputs": [],
      "name": "entryPoint",
      "outputs": [
        {
          "internalType": "contract IEntryPoint",
          "name": "",
          "type": "address"
        }
      ],
      "stateMutability": "view",
      "type": "function"
    },
    {
      "inputs": [
        {
          "internalType": "address",
          "name": "token",
          "type": "address"
        },
        {
          "internalType": "uint256",
          "name": "amount",
          "type": "uint256"
        },
        {
          "internalType": "address",
          "name": "receiver",
          "type": "address"
        }
      ],
      "name": "lockAndMint",
      "outputs": [
        {
          "internalType": "bytes32",
          "name": "",
          "type": "bytes32"
        }
      ],
      "stateMutability": "payable",
      "type": "function"
    },
    {
      "inputs": [
        {
          "internalType": "address",
          "name": "",
          "type": "address"
        },
        {
          "internalType": "uint256",
          "name": "",
          "type": "uint256"
        }
      ],
      "name": "lockedTokens",
      "outputs": [
        {
          "internalType": "uint256",
          "name": "",
          "type": "uint256"
        }
      ],
      "stateMutability": "view",
      "type": "function"
    },
    {
      "inputs": [
        {
          "internalType": "address",
          "name": "",
          "type": "address"
        },
        {
          "internalType": "uint256",
          "name": "",
          "type": "uint256"
        }
      ],
      "name": "mintedTokens",
      "outputs": [
        {
          "internalType": "uint256",
          "name": "",
          "type": "uint256"
        }
      ],
      "stateMutability": "view",
      "type": "function"
    },
    {
      "inputs": [],
      "name": "owner",
      "outputs": [
        {
          "internalType": "address",
          "name": "",
          "type": "address"
        }
      ],
      "stateMutability": "view",
      "type": "function"
    },
    {
      "inputs": [],
      "name": "pause",
      "outputs": [],
      "stateMutability": "nonpayable",
      "type": "function"
    },
    {
      "inputs": [],
      "name": "paused",
      "outputs": [
        {
          "internalType": "bool",
          "name": "",
          "type": "bool"
        }
      ],
      "stateMutability": "view",
      "type": "function"
    },
    {
      "inputs": [
        {
          "internalType": "bytes32",
          "name": "",
          "type": "bytes32"
        }
      ],
      "name": "processedOperations",
      "outputs": [
        {
          "internalType": "bool",
          "name": "",
          "type": "bool"
        }
      ],
      "stateMutability": "view",
      "type": "function"
    },
    {
      "inputs": [
        {
          "internalType": "uint256",
          "name": "chainId",
          "type": "uint256"
        }
      ],
      "name": "removeSupportedChain",
      "outputs": [],
      "stateMutability": "nonpayable",
      "type": "function"
    },
    {
      "inputs": [
        {
          "internalType": "address",
          "name": "token",
          "type": "address"
        }
      ],
      "name": "removeSupportedToken",
      "outputs": [],
      "stateMutability": "nonpayable",
      "type": "function"
    },
    {
      "inputs": [],
      "name": "renounceOwnership",
      "outputs": [],
      "stateMutability": "nonpayable",
      "type": "function"
    },
    {
      "inputs": [
        {
          "internalType": "uint256",
          "name": "",
          "type": "uint256"
        }
      ],
      "name": "supportedChains",
      "outputs": [
        {
          "internalType": "bool",
          "name": "",
          "type": "bool"
        }
      ],
      "stateMutability": "view",
      "type": "function"
    },
    {
      "inputs": [
        {
          "internalType": "address",
          "name": "",
          "type": "address"
        }
      ],
      "name": "supportedTokens",
      "outputs": [
        {
          "internalType": "bool",
          "name": "",
          "type": "bool"
        }
      ],
      "stateMutability": "view",
      "type": "function"
    },
    {
      "inputs": [
        {
          "internalType": "address",
          "name": "token",
          "type": "address"
        },
        {
          "internalType": "uint256",
          "name": "amount",
          "type": "uint256"
        },
        {
          "internalType": "uint256",
          "name": "targetChainId",
          "type": "uint256"
        },
        {
          "internalType": "address",
          "name": "receiver",
          "type": "address"
        }
      ],
      "name": "transferAsset",
      "outputs": [
        {
          "internalType": "bytes32",
          "name": "",
          "type": "bytes32"
        }
      ],
      "stateMutability": "payable",
      "type": "function"
    },
    {
      "inputs": [
        {
          "internalType": "address",
          "name": "newOwner",
          "type": "address"
        }
      ],
      "name": "transferOwnership",
      "outputs": [],
      "stateMutability": "nonpayable",
      "type": "function"
    },
    {
      "inputs": [],
      "name": "unpause",
      "outputs": [],
      "stateMutability": "nonpayable",
      "type": "function"
    },
    {
      "inputs": [
        {
          "internalType": "uint256",
          "name": "newFee",
          "type": "uint256"
        }
      ],
      "name": "updateBridgeFee",
      "outputs": [],
      "stateMutability": "nonpayable",
      "type": "function"
    },
    {
      "inputs": [],
      "name": "withdrawFees",
      "outputs": [],
      "stateMutability": "nonpayable",
      "type": "function"
    },
    {
      "stateMutability": "payable",
      "type": "receive"
    }
  ],
  "bytecode": "0x60a060405266038d7ea4c6800060075534801561001b57600080fd5b506040516200165f3803806200165f83398101604081905261003c91610138565b6001600055338061006857604051631e4fbdf760e01b8152600060048201526024015b60405180910390fd5b610071816100e6565b506001805460ff60a01b191690556001600160a01b0381166100d55760405162461bcd60e51b815260206004820152601a60248201527f496e76616c696420456e747279506f696e742061646472657373000000000000604482015260640161005f565b6001600160a01b0316608052610168565b600180546001600160a01b038381166001600160a01b0319831681179093556040519116919082907f8be0079c531659141344cd1fd0a4f28419497f9722a3daafe3b4186f6b6457e090600090a35050565b60006020828403121561014a57600080fd5b81516001600160a01b038116811461016157600080fd5b9392505050565b6080516114db62000184600039600061041701526114db6000f3fe60806040526004361061014f5760003560e01c80636d69fcaf116100b65780638da5cb5b1161006f5780638da5cb5b146103c05780639cfb5bdc146103f2578063b0d691fe14610405578063bbe39bb414610439578063e3a8747014610459578063f2fde38b1461048957600080fd5b80636d69fcaf14610320578063715018a614610340578063763191901461035557806382b12dd7146103755780638456cb591461038b57806387188a00146103a057600080fd5b8063476343ee11610108578063476343ee1461022457806353719b6e14610239578063548d496f146102715780635a1c0366146102b15780635c975abb146102d157806368c4ac26146102f057600080fd5b80630810c7571461015b5780630c4844aa146101815780630d981536146101a3578063385dc3df146101db5780633e5a2dc7146101f15780633f4ba83a1461020f57600080fd5b3661015657005b600080fd5b61016e6101693660046112b2565b6104a9565b6040519081526020015b60405180910390f35b34801561018d57600080fd5b506101a161019c3660046112f8565b61084b565b005b3480156101af57600080fd5b5061016e6101be366004611311565b600460209081526000928352604080842090915290825290205481565b3480156101e757600080fd5b5061016e610e1081565b3480156101fd57600080fd5b5061016e69d3c21bcecceda100000081565b34801561021b57600080fd5b506101a16108a6565b34801561023057600080fd5b506101a16108b8565b34801561024557600080fd5b5061016e610254366004611311565b600360209081526000928352604080842090915290825290205481565b34801561027d57600080fd5b506102a161028c3660046112f8565b60066020526000908152604090205460ff1681565b6040519015158152602001610178565b3480156102bd57600080fd5b506101a16102cc3660046112f8565b6109b4565b3480156102dd57600080fd5b50600154600160a01b900460ff166102a1565b3480156102fc57600080fd5b506102a161030b36600461133b565b60056020526000908152604090205460ff1681565b34801561032c57600080fd5b506101a161033b36600461133b565b6109f1565b34801561034c57600080fd5b506101a1610a6b565b34801561036157600080fd5b506101a161037036600461133b565b610a7d565b34801561038157600080fd5b5061016e60075481565b34801561039757600080fd5b506101a1610aa6565b3480156103ac57600080fd5b506101a16103bb3660046112f8565b610ab6565b3480156103cc57600080fd5b506001546001600160a01b03165b6040516001600160a01b039091168152602001610178565b61016e61040036600461135d565b610b4c565b34801561041157600080fd5b506103da7f000000000000000000000000000000000000000000000000000000000000000081565b34801561044557600080fd5b5061016e610454366004611311565b610e8c565b34801561046557600080fd5b506102a16104743660046112f8565b60026020526000908152604090205460ff1681565b34801561049557600080fd5b506101a16104a436600461133b565b6110d9565b60006002600054036104d65760405162461bcd60e51b81526004016104cd90611399565b60405180910390fd5b6002600055600154600160a01b900460ff16156105055760405162461bcd60e51b81526004016104cd906113d0565b6007543410156105515760405162461bcd60e51b8152602060048201526017602482015276496e73756666696369656e74206272696467652066656560481b60448201526064016104cd565b6001600160a01b03851660009081526005602052604090205460ff166105895760405162461bcd60e51b81526004016104cd906113fa565b60008381526006602052604090205460ff166105dd5760405162461bcd60e51b815260206004820152601360248201527210da185a5b881b9bdd081cdd5c1c1bdc9d1959606a1b60448201526064016104cd565b6000841180156105f7575069d3c21bcecceda10000008411155b6106135760405162461bcd60e51b81526004016104cd90611427565b6001600160a01b03821661065c5760405162461bcd60e51b815260206004820152601060248201526f24b73b30b634b2103932b1b2b4bb32b960811b60448201526064016104cd565b604051336024820152306044820152606481018590526000906001600160a01b0387169060840160408051601f198184030181529181526020820180516001600160e01b03166323b872dd60e01b179052516106b8919061144f565b6000604051808303816000865af19150503d80600081146106f5576040519150601f19603f3d011682016040523d82523d6000602084013e6106fa565b606091505b50509050806107435760405162461bcd60e51b8152602060048201526015602482015274151bdad95b881d1c985b9cd9995c8819985a5b1959605a1b60448201526064016104cd565b6001600160a01b03861660009081526003602090815260408083204684529091528120805487929061077690849061147e565b90915550506040516001600160601b0319606088811b8216602084015233811b82166034840152604883018890524660688401526088830187905285901b1660a88201524260bc82015260009060dc0160408051601f19818403018152828252805160209182012089845246918401919091529082018790526001600160a01b038681166060840152608083018290529092503391908916907f1d8ce5a5d38d781db61aea3ca24019a2013ade96b818a881ab10bfcb1d9d648e9060a00160405180910390a360016000559695505050505050565b610853611117565b60008181526006602052604090819020805460ff19169055517f11a9d1a77f76361ed131c19b1dc5758504c51dbde2e49fc973a0ef9577ad13d59061089b9083815260200190565b60405180910390a150565b6108ae611117565b6108b6611144565b565b6108c0611117565b47806109045760405162461bcd60e51b81526020600482015260136024820152724e6f206665657320746f20776974686472617760681b60448201526064016104cd565b60006109186001546001600160a01b031690565b6001600160a01b03168260405160006040518083038185875af1925050503d8060008114610962576040519150601f19603f3d011682016040523d82523d6000602084013e610967565b606091505b50509050806109b05760405162461bcd60e51b8152602060048201526015602482015274119959481dda5d1a191c985dd85b0819985a5b1959605a1b60448201526064016104cd565b5050565b6109bc611117565b60078190556040518181527f42dfb00d085d601e55327921154ae76c1b24270b026c5a0c51caee18eb4c401f9060200161089b565b6109f9611117565b6001600160a01b038116610a475760405162461bcd60e51b8152602060048201526015602482015274496e76616c696420746f6b656e206164647265737360581b60448201526064016104cd565b6001600160a01b03166000908152600560205260409020805460ff19166001179055565b610a73611117565b6108b660006111d7565b610a85611117565b6001600160a01b03166000908152600560205260409020805460ff19169055565b610aae611117565b6108b6611229565b610abe611117565b60008111610b015760405162461bcd60e51b815260206004820152601060248201526f125b9d985b1a590818da185a5b88125160821b60448201526064016104cd565b60008181526006602052604090819020805460ff19166001179055517fbba9d55e9fd1a441b1617724e2fdb76777d15ec77ab2b72ac15952cbe97085db9061089b9083815260200190565b6000600260005403610b705760405162461bcd60e51b81526004016104cd90611399565b6002600055600154600160a01b900460ff1615610b9f5760405162461bcd60e51b81526004016104cd906113d0565b600754341015610beb5760405162461bcd60e51b8152602060048201526017602482015276496e73756666696369656e74206272696467652066656560481b60448201526064016104cd565b6001600160a01b03841660009081526005602052604090205460ff16610c235760405162461bcd60e51b81526004016104cd906113fa565b600083118015610c3d575069d3c21bcecceda10000008311155b610c595760405162461bcd60e51b81526004016104cd90611427565b6001600160a01b038216610ca25760405162461bcd60e51b815260206004820152601060248201526f24b73b30b634b2103932b1b2b4bb32b960811b60448201526064016104cd565b604051336024820152306044820152606481018490526000906001600160a01b0386169060840160408051601f198184030181529181526020820180516001600160e01b03166323b872dd60e01b17905251610cfe919061144f565b6000604051808303816000865af19150503d8060008114610d3b576040519150601f19603f3d011682016040523d82523d6000602084013e610d40565b606091505b5050905080610d895760405162461bcd60e51b8152602060048201526015602482015274151bdad95b881d1c985b9cd9995c8819985a5b1959605a1b60448201526064016104cd565b6001600160a01b038516600090815260036020908152604080832046845290915281208054869290610dbc90849061147e565b90915550506040516001600160601b0319606087811b8216602084015233811b821660348401526048830187905246606884015285901b16608882015242609c82015260009060bc0160408051601f19818403018152828252805160209182012088845246918401919091526000918301919091526001600160a01b038681166060840152608083018290529092503391908816907f1d8ce5a5d38d781db61aea3ca24019a2013ade96b818a881ab10bfcb1d9d648e9060a00160405180910390a3600160005595945050505050565b6000600260005403610eb05760405162461bcd60e51b81526004016104cd90611399565b6002600055600154600160a01b900460ff1615610edf5760405162461bcd60e51b81526004016104cd906113d0565b6001600160a01b03831660009081526005602052604090205460ff16610f175760405162461bcd60e51b81526004016104cd906113fa565b600082118015610f31575069d3c21bcecceda10000008211155b610f4d5760405162461bcd60e51b81526004016104cd90611427565b604051336024820152604481018390526000906001600160a01b0385169060640160408051601f198184030181529181526020820180516001600160e01b031663079cc67960e41b17905251610fa3919061144f565b6000604051808303816000865af19150503d8060008114610fe0576040519150601f19603f3d011682016040523d82523d6000602084013e610fe5565b606091505b505090508061102d5760405162461bcd60e51b8152602060048201526014602482015273151bdad95b88189d5c9b9a5b99c819985a5b195960621b60448201526064016104cd565b6040516001600160601b0319606086811b8216602084015233901b1660348201526048810184905246606882015242608882015260009060a80160408051601f1981840301815282825280516020918201208784524691840191909152908201819052915033906001600160a01b038716907f933d484d4a04b1bb84049a2bf67f9a26896c4190167505eaa720d0160ba6905f9060600160405180910390a36001600055949350505050565b6110e1611117565b6001600160a01b03811661110b57604051631e4fbdf760e01b8152600060048201526024016104cd565b611114816111d7565b50565b6001546001600160a01b031633146108b65760405163118cdaa760e01b81523360048201526024016104cd565b600154600160a01b900460ff166111945760405162461bcd60e51b815260206004820152601460248201527314185d5cd8589b194e881b9bdd081c185d5cd95960621b60448201526064016104cd565b6001805460ff60a01b191690556040513381527f5db9ee0a495bf2e6ff9c91a7834c1ba4fdd244a5e8aa4e537bd38aeae4b073aa906020015b60405180910390a1565b600180546001600160a01b038381166001600160a01b0319831681179093556040519116919082907f8be0079c531659141344cd1fd0a4f28419497f9722a3daafe3b4186f6b6457e090600090a35050565b600154600160a01b900460ff16156112535760405162461bcd60e51b81526004016104cd906113d0565b6001805460ff60a01b1916600160a01b1790556040513381527f62e78cea01bee320cd4e420270b5ea74000d11b0c9f74754ebdbfc544b05a258906020016111cd565b80356001600160a01b03811681146112ad57600080fd5b919050565b600080600080608085870312156112c857600080fd5b6112d185611296565b935060208501359250604085013591506112ed60608601611296565b905092959194509250565b60006020828403121561130a57600080fd5b5035919050565b6000806040838503121561132457600080fd5b61132d83611296565b946020939093013593505050565b60006020828403121561134d57600080fd5b61135682611296565b9392505050565b60008060006060848603121561137257600080fd5b61137b84611296565b92506020840135915061139060408501611296565b90509250925092565b6020808252601f908201527f5265656e7472616e637947756172643a207265656e7472616e742063616c6c00604082015260600190565b60208082526010908201526f14185d5cd8589b194e881c185d5cd95960821b604082015260600190565b602080825260139082015272151bdad95b881b9bdd081cdd5c1c1bdc9d1959606a1b604082015260600190565b6020808252600e908201526d125b9d985b1a5908185b5bdd5b9d60921b604082015260600190565b6000825160005b818110156114705760208186018101518583015201611456565b506000920191825250919050565b8082018082111561149f57634e487b7160e01b600052601160045260246000fd5b9291505056fea26469706673582212206a88ee522ba337e7fab5a0bed9d881b3c2c0de1263821c099e3a99dd293e097964736f6c63430008180033",
  "linkReferences": {},
  "deployedLinkReferences": {}
}