{
  "_format": "hh-sol-artifact-1",
  "contractName": "BridgeV2",
  "sourceName": "contracts/BridgeV2.sol",
  "abi": [
    {
      "inputs": [],
      "stateMutability": "nonpayable",
      "type": "constructor"
    },
    {
      "inputs": [
        {
          "internalType": "address",
          "name": "owner",
          "type": "address"
        }
      ],
      "name": "OwnableInvalidOwner",
      "type": "error"
    },
    {
      "inputs": [
        {
          "internalType": "address",
          "name": "account",
          "type": "address"
        }
      ],
      "name": "OwnableUnauthorizedAccount",
      "type": "error"
    },
    {
      "inputs": [],
      "name": "PausableAlreadyPaused",
      "type": "error"
    },
    {
      "inputs": [],
      "name": "PausableAlreadyUnpaused",
      "type": "error"
    },
    {
      "inputs": [],
      "name": "PausableNotPaused",
      "type": "error"
    },
    {
      "inputs": [],
      "name": "PausablePaused",
      "type": "error"
    },
    {
      "anonymous": false,
      "inputs": [
        {
          "indexed": false,
          "internalType": "uint256",
          "name": "newFee",
          "type": "uint256"
        }
      ],
      "name": "FeeUpdated",
      "type": "event"
    },
    {
      "anonymous": false,
      "inputs": [
        {
          "indexed": false,
          "internalType": "uint256",
          "name": "minAmount",
          "type": "uint256"
        },
        {
          "indexed": false,
          "internalType": "uint256",
          "name": "maxAmount",
          "type": "uint256"
        }
      ],
      "name": "LimitsUpdated",
      "type": "event"
    },
    {
      "anonymous": false,
      "inputs": [
        {
          "indexed": true,
          "internalType": "address",
          "name": "previousOwner",
          "type": "address"
        },
        {
          "indexed": true,
          "internalType": "address",
          "name": "newOwner",
          "type": "address"
        }
      ],
      "name": "OwnershipTransferred",
      "type": "event"
    },
    {
      "anonymous": false,
      "inputs": [
        {
          "indexed": false,
          "internalType": "address",
          "name": "account",
          "type": "address"
        }
      ],
      "name": "Paused",
      "type": "event"
    },
    {
      "anonymous": false,
      "inputs": [
        {
          "indexed": true,
          "internalType": "address",
          "name": "token",
          "type": "address"
        }
      ],
      "name": "TokenAdded",
      "type": "event"
    },
    {
      "anonymous": false,
      "inputs": [
        {
          "indexed": true,
          "internalType": "address",
          "name": "token",
          "type": "address"
        }
      ],
      "name": "TokenRemoved",
      "type": "event"
    },
    {
      "anonymous": false,
      "inputs": [
        {
          "indexed": true,
          "internalType": "address",
          "name": "token",
          "type": "address"
        },
        {
          "indexed": true,
          "internalType": "address",
          "name": "from",
          "type": "address"
        },
        {
          "indexed": false,
          "internalType": "uint256",
          "name": "amount",
          "type": "uint256"
        },
        {
          "indexed": false,
          "internalType": "uint256",
          "name": "targetChainId",
          "type": "uint256"
        },
        {
          "indexed": false,
          "internalType": "uint256",
          "name": "nonce",
          "type": "uint256"
        }
      ],
      "name": "TokensLocked",
      "type": "event"
    },
    {
      "anonymous": false,
      "inputs": [
        {
          "indexed": true,
          "internalType": "address",
          "name": "token",
          "type": "address"
        },
        {
          "indexed": true,
          "internalType": "address",
          "name": "to",
          "type": "address"
        },
        {
          "indexed": false,
          "internalType": "uint256",
          "name": "amount",
          "type": "uint256"
        },
        {
          "indexed": true,
          "internalType": "bytes32",
          "name": "transactionHash",
          "type": "bytes32"
        }
      ],
      "name": "TokensUnlocked",
      "type": "event"
    },
    {
      "anonymous": false,
      "inputs": [
        {
          "indexed": false,
          "internalType": "address",
          "name": "account",
          "type": "address"
        }
      ],
      "name": "Unpaused",
      "type": "event"
    },
    {
      "inputs": [
        {
          "internalType": "address",
          "name": "token",
          "type": "address"
        }
      ],
      "name": "addSupportedToken",
      "outputs": [],
      "stateMutability": "nonpayable",
      "type": "function"
    },
    {
      "inputs": [],
      "name": "bridgeFee",
      "outputs": [
        {
          "internalType": "uint256",
          "name": "",
          "type": "uint256"
        }
      ],
      "stateMutability": "view",
      "type": "function"
    },
    {
      "inputs": [
        {
          "internalType": "address",
          "name": "token",
          "type": "address"
        },
        {
          "internalType": "uint256",
          "name": "amount",
          "type": "uint256"
        },
        {
          "internalType": "uint256",
          "name": "targetChainId",
          "type": "uint256"
        }
      ],
      "name": "lockTokens",
      "outputs": [],
      "stateMutability": "payable",
      "type": "function"
    },
    {
      "inputs": [],
      "name": "maxAmount",
      "outputs": [
        {
          "internalType": "uint256",
          "name": "",
          "type": "uint256"
        }
      ],
      "stateMutability": "view",
      "type": "function"
    },
    {
      "inputs": [],
      "name": "minAmount",
      "outputs": [
        {
          "internalType": "uint256",
          "name": "",
          "type": "uint256"
        }
      ],
      "stateMutability": "view",
      "type": "function"
    },
    {
      "inputs": [
        {
          "internalType": "address",
          "name": "",
          "type": "address"
        }
      ],
      "name": "nonces",
      "outputs": [
        {
          "internalType": "uint256",
          "name": "",
          "type": "uint256"
        }
      ],
      "stateMutability": "view",
      "type": "function"
    },
    {
      "inputs": [],
      "name": "owner",
      "outputs": [
        {
          "internalType": "address",
          "name": "",
          "type": "address"
        }
      ],
      "stateMutability": "view",
      "type": "function"
    },
    {
      "inputs": [],
      "name": "pause",
      "outputs": [],
      "stateMutability": "nonpayable",
      "type": "function"
    },
    {
      "inputs": [],
      "name": "paused",
      "outputs": [
        {
          "internalType": "bool",
          "name": "",
          "type": "bool"
        }
      ],
      "stateMutability": "view",
      "type": "function"
    },
    {
      "inputs": [
        {
          "internalType": "address",
          "name": "",
          "type": "address"
        },
        {
          "internalType": "bytes32",
          "name": "",
          "type": "bytes32"
        }
      ],
      "name": "processedHashes",
      "outputs": [
        {
          "internalType": "bool",
          "name": "",
          "type": "bool"
        }
      ],
      "stateMutability": "view",
      "type": "function"
    },
    {
      "inputs": [
        {
          "internalType": "address",
          "name": "token",
          "type": "address"
        }
      ],
      "name": "removeSupportedToken",
      "outputs": [],
      "stateMutability": "nonpayable",
      "type": "function"
    },
    {
      "inputs": [],
      "name": "renounceOwnership",
      "outputs": [],
      "stateMutability": "nonpayable",
      "type": "function"
    },
    {
      "inputs": [
        {
          "internalType": "address",
          "name": "",
          "type": "address"
        }
      ],
      "name": "supportedTokens",
      "outputs": [
        {
          "internalType": "bool",
          "name": "",
          "type": "bool"
        }
      ],
      "stateMutability": "view",
      "type": "function"
    },
    {
      "inputs": [
        {
          "internalType": "address",
          "name": "newOwner",
          "type": "address"
        }
      ],
      "name": "transferOwnership",
      "outputs": [],
      "stateMutability": "nonpayable",
      "type": "function"
    },
    {
      "inputs": [
        {
          "internalType": "address",
          "name": "token",
          "type": "address"
        },
        {
          "internalType": "address",
          "name": "to",
          "type": "address"
        },
        {
          "internalType": "uint256",
          "name": "amount",
          "type": "uint256"
        },
        {
          "internalType": "bytes32",
          "name": "transactionHash",
          "type": "bytes32"
        }
      ],
      "name": "unlockTokens",
      "outputs": [],
      "stateMutability": "nonpayable",
      "type": "function"
    },
    {
      "inputs": [],
      "name": "unpause",
      "outputs": [],
      "stateMutability": "nonpayable",
      "type": "function"
    },
    {
      "inputs": [
        {
          "internalType": "uint256",
          "name": "newFee",
          "type": "uint256"
        }
      ],
      "name": "updateBridgeFee",
      "outputs": [],
      "stateMutability": "nonpayable",
      "type": "function"
    },
    {
      "inputs": [
        {
          "internalType": "uint256",
          "name": "_minAmount",
          "type": "uint256"
        },
        {
          "internalType": "uint256",
          "name": "_maxAmount",
          "type": "uint256"
        }
      ],
      "name": "updateLimits",
      "outputs": [],
      "stateMutability": "nonpayable",
      "type": "function"
    },
    {
      "inputs": [],
      "name": "withdrawFees",
      "outputs": [],
      "stateMutability": "nonpayable",
      "type": "function"
    }
  ],
  "bytecode": "0x608060405266038d7ea4c68000600555662386f26fc10000600655683635c9adc5dea0000060075534801561003357600080fd5b506001600055338061005f57604051631e4fbdf760e01b81526000600482015260240160405180910390fd5b6100688161007b565b506001805460ff60a01b191690556100cd565b600180546001600160a01b038381166001600160a01b0319831681179093556040519116919082907f8be0079c531659141344cd1fd0a4f28419497f9722a3daafe3b4186f6b6457e090600090a35050565b610f87806100dc6000396000f3fe6080604052600436106101145760003560e01c806376319190116100a05780639b2cb5d8116100645780639b2cb5d8146102de578063a2240e19146102f4578063a25983e514610314578063d22be76014610327578063f2fde38b1461036257600080fd5b8063763191901461023e5780637ecebe001461025e57806382b12dd71461028b5780638456cb59146102a15780638da5cb5b146102b657600080fd5b80635c975abb116100e75780635c975abb146101855780635f48f393146101b557806368c4ac26146101d95780636d69fcaf14610209578063715018a61461022957600080fd5b8063304ccad3146101195780633f4ba83a1461013b578063476343ee146101505780635a1c036614610165575b600080fd5b34801561012557600080fd5b50610139610134366004610de2565b610382565b005b34801561014757600080fd5b50610139610668565b34801561015c57600080fd5b5061013961067a565b34801561017157600080fd5b50610139610180366004610e24565b610776565b34801561019157600080fd5b50600154600160a01b900460ff165b60405190151581526020015b60405180910390f35b3480156101c157600080fd5b506101cb60075481565b6040519081526020016101ac565b3480156101e557600080fd5b506101a06101f4366004610e3d565b60046020526000908152604090205460ff1681565b34801561021557600080fd5b50610139610224366004610e3d565b6107b9565b34801561023557600080fd5b5061013961085b565b34801561024a57600080fd5b50610139610259366004610e3d565b61086d565b34801561026a57600080fd5b506101cb610279366004610e3d565b60036020526000908152604090205481565b34801561029757600080fd5b506101cb60055481565b3480156102ad57600080fd5b506101396108be565b3480156102c257600080fd5b506001546040516001600160a01b0390911681526020016101ac565b3480156102ea57600080fd5b506101cb60065481565b34801561030057600080fd5b5061013961030f366004610e5f565b6108ce565b610139610322366004610e81565b61095d565b34801561033357600080fd5b506101a0610342366004610eb4565b600260209081526000928352604080842090915290825290205460ff1681565b34801561036e57600080fd5b5061013961037d366004610e3d565b610c09565b61038a610c47565b6002600054036103e15760405162461bcd60e51b815260206004820152601f60248201527f5265656e7472616e637947756172643a207265656e7472616e742063616c6c0060448201526064015b60405180910390fd5b6002600055600154600160a01b900460ff16156104105760405162461bcd60e51b81526004016103d890610ede565b6001600160a01b03841660009081526004602052604090205460ff1661046e5760405162461bcd60e51b8152602060048201526013602482015272151bdad95b881b9bdd081cdd5c1c1bdc9d1959606a1b60448201526064016103d8565b6001600160a01b038416600090815260026020908152604080832084845290915290205460ff16156104e25760405162461bcd60e51b815260206004820152601d60248201527f5472616e73616374696f6e20616c72656164792070726f63657373656400000060448201526064016103d8565b60065482101580156104f657506007548211155b6105395760405162461bcd60e51b8152602060048201526014602482015273416d6f756e74206f7574206f6620626f756e647360601b60448201526064016103d8565b6001600160a01b03848116600081815260026020908152604080832086845290915290819020805460ff191660011790555163a9059cbb60e01b81529185166004830152602482018490529063a9059cbb906044016020604051808303816000875af11580156105ad573d6000803e3d6000fd5b505050506040513d601f19601f820116820180604052508101906105d19190610f08565b61060f5760405162461bcd60e51b815260206004820152600f60248201526e151c985b9cd9995c8819985a5b1959608a1b60448201526064016103d8565b80836001600160a01b0316856001600160a01b03167fc24528373542ee9723afbd28e392c80d637cad2d28d9034600064379224c44058560405161065591815260200190565b60405180910390a4505060016000555050565b610670610c47565b610678610c74565b565b610682610c47565b47806106c65760405162461bcd60e51b81526020600482015260136024820152724e6f206665657320746f20776974686472617760681b60448201526064016103d8565b60006106da6001546001600160a01b031690565b6001600160a01b03168260405160006040518083038185875af1925050503d8060008114610724576040519150601f19603f3d011682016040523d82523d6000602084013e610729565b606091505b50509050806107725760405162461bcd60e51b8152602060048201526015602482015274119959481dda5d1a191c985dd85b0819985a5b1959605a1b60448201526064016103d8565b5050565b61077e610c47565b60058190556040518181527f8c4d35e54a3f2ef1134138fd8ea3daee6a3c89e10d2665996babdf70261e2c769060200160405180910390a150565b6107c1610c47565b6001600160a01b03811661080f5760405162461bcd60e51b8152602060048201526015602482015274496e76616c696420746f6b656e206164647265737360581b60448201526064016103d8565b6001600160a01b038116600081815260046020526040808220805460ff19166001179055517f784c8f4dbf0ffedd6e72c76501c545a70f8b203b30a26ce542bf92ba87c248a49190a250565b610863610c47565b6106786000610d07565b610875610c47565b6001600160a01b038116600081815260046020526040808220805460ff19169055517f4c910b69fe65a61f7531b9c5042b2329ca7179c77290aa7e2eb3afa3c8511fd39190a250565b6108c6610c47565b610678610d59565b6108d6610c47565b8082106109165760405162461bcd60e51b815260206004820152600e60248201526d496e76616c6964206c696d69747360901b60448201526064016103d8565b6006829055600781905560408051838152602081018390527f4d4981437d0211f9e6843eb024d9ada1fa3a99514d4343d4aece106dd11524bb910160405180910390a15050565b6002600054036109af5760405162461bcd60e51b815260206004820152601f60248201527f5265656e7472616e637947756172643a207265656e7472616e742063616c6c0060448201526064016103d8565b6002600055600154600160a01b900460ff16156109de5760405162461bcd60e51b81526004016103d890610ede565b6001600160a01b03831660009081526004602052604090205460ff16610a3c5760405162461bcd60e51b8152602060048201526013602482015272151bdad95b881b9bdd081cdd5c1c1bdc9d1959606a1b60448201526064016103d8565b6006548210158015610a5057506007548211155b610a935760405162461bcd60e51b8152602060048201526014602482015273416d6f756e74206f7574206f6620626f756e647360601b60448201526064016103d8565b600554341015610ad85760405162461bcd60e51b815260206004820152601060248201526f496e73756666696369656e742066656560801b60448201526064016103d8565b6040516323b872dd60e01b8152336004820152306024820152604481018390526001600160a01b038416906323b872dd906064016020604051808303816000875af1158015610b2b573d6000803e3d6000fd5b505050506040513d601f19601f82011682018060405250810190610b4f9190610f08565b610b8d5760405162461bcd60e51b815260206004820152600f60248201526e151c985b9cd9995c8819985a5b1959608a1b60448201526064016103d8565b33600090815260036020526040812080549082610ba983610f2a565b90915550604080518581526020810185905290810182905290915033906001600160a01b038616907fa6782d3322abbfbe850e6d5c5c78e8e1df603ea07608bb9a62dd83f40d4feccc9060600160405180910390a3505060016000555050565b610c11610c47565b6001600160a01b038116610c3b57604051631e4fbdf760e01b8152600060048201526024016103d8565b610c4481610d07565b50565b6001546001600160a01b031633146106785760405163118cdaa760e01b81523360048201526024016103d8565b600154600160a01b900460ff16610cc45760405162461bcd60e51b815260206004820152601460248201527314185d5cd8589b194e881b9bdd081c185d5cd95960621b60448201526064016103d8565b6001805460ff60a01b191690556040513381527f5db9ee0a495bf2e6ff9c91a7834c1ba4fdd244a5e8aa4e537bd38aeae4b073aa906020015b60405180910390a1565b600180546001600160a01b038381166001600160a01b0319831681179093556040519116919082907f8be0079c531659141344cd1fd0a4f28419497f9722a3daafe3b4186f6b6457e090600090a35050565b600154600160a01b900460ff1615610d835760405162461bcd60e51b81526004016103d890610ede565b6001805460ff60a01b1916600160a01b1790556040513381527f62e78cea01bee320cd4e420270b5ea74000d11b0c9f74754ebdbfc544b05a25890602001610cfd565b80356001600160a01b0381168114610ddd57600080fd5b919050565b60008060008060808587031215610df857600080fd5b610e0185610dc6565b9350610e0f60208601610dc6565b93969395505050506040820135916060013590565b600060208284031215610e3657600080fd5b5035919050565b600060208284031215610e4f57600080fd5b610e5882610dc6565b9392505050565b60008060408385031215610e7257600080fd5b50508035926020909101359150565b600080600060608486031215610e9657600080fd5b610e9f84610dc6565b95602085013595506040909401359392505050565b60008060408385031215610ec757600080fd5b610ed083610dc6565b946020939093013593505050565b60208082526010908201526f14185d5cd8589b194e881c185d5cd95960821b604082015260600190565b600060208284031215610f1a57600080fd5b81518015158114610e5857600080fd5b600060018201610f4a57634e487b7160e01b600052601160045260246000fd5b506001019056fea264697066735822122098650a1dcf53439c9b95db046e0b6ce9e47d09033dd00c1fce1b87a1984ba8e964736f6c63430008180033",
  "linkReferences": {},
  "deployedLinkReferences": {}
}