{
  "_format": "hh-sol-artifact-1",
  "contractName": "BridgeV2",
  "sourceName": "contracts/BridgeV2.sol",
  "abi": [
    {
      "inputs": [],
      "stateMutability": "nonpayable",
      "type": "constructor"
    },
    {
      "inputs": [
        {
          "internalType": "address",
          "name": "owner",
          "type": "address"
        }
      ],
      "name": "OwnableInvalidOwner",
      "type": "error"
    },
    {
      "inputs": [
        {
          "internalType": "address",
          "name": "account",
          "type": "address"
        }
      ],
      "name": "OwnableUnauthorizedAccount",
      "type": "error"
    },
    {
      "anonymous": false,
      "inputs": [
        {
          "indexed": false,
          "internalType": "uint256",
          "name": "newFee",
          "type": "uint256"
        }
      ],
      "name": "FeeUpdated",
      "type": "event"
    },
    {
      "anonymous": false,
      "inputs": [
        {
          "indexed": false,
          "internalType": "uint256",
          "name": "minAmount",
          "type": "uint256"
        },
        {
          "indexed": false,
          "internalType": "uint256",
          "name": "maxAmount",
          "type": "uint256"
        }
      ],
      "name": "LimitsUpdated",
      "type": "event"
    },
    {
      "anonymous": false,
      "inputs": [
        {
          "indexed": true,
          "internalType": "address",
          "name": "previousOwner",
          "type": "address"
        },
        {
          "indexed": true,
          "internalType": "address",
          "name": "newOwner",
          "type": "address"
        }
      ],
      "name": "OwnershipTransferred",
      "type": "event"
    },
    {
      "anonymous": false,
      "inputs": [
        {
          "indexed": false,
          "internalType": "address",
          "name": "account",
          "type": "address"
        }
      ],
      "name": "Paused",
      "type": "event"
    },
    {
      "anonymous": false,
      "inputs": [
        {
          "indexed": true,
          "internalType": "address",
          "name": "token",
          "type": "address"
        }
      ],
      "name": "TokenAdded",
      "type": "event"
    },
    {
      "anonymous": false,
      "inputs": [
        {
          "indexed": true,
          "internalType": "address",
          "name": "token",
          "type": "address"
        }
      ],
      "name": "TokenRemoved",
      "type": "event"
    },
    {
      "anonymous": false,
      "inputs": [
        {
          "indexed": true,
          "internalType": "address",
          "name": "token",
          "type": "address"
        },
        {
          "indexed": true,
          "internalType": "address",
          "name": "from",
          "type": "address"
        },
        {
          "indexed": false,
          "internalType": "uint256",
          "name": "amount",
          "type": "uint256"
        },
        {
          "indexed": false,
          "internalType": "uint256",
          "name": "targetChainId",
          "type": "uint256"
        },
        {
          "indexed": false,
          "internalType": "uint256",
          "name": "nonce",
          "type": "uint256"
        }
      ],
      "name": "TokensLocked",
      "type": "event"
    },
    {
      "anonymous": false,
      "inputs": [
        {
          "indexed": true,
          "internalType": "address",
          "name": "token",
          "type": "address"
        },
        {
          "indexed": true,
          "internalType": "address",
          "name": "to",
          "type": "address"
        },
        {
          "indexed": false,
          "internalType": "uint256",
          "name": "amount",
          "type": "uint256"
        },
        {
          "indexed": true,
          "internalType": "bytes32",
          "name": "transactionHash",
          "type": "bytes32"
        }
      ],
      "name": "TokensUnlocked",
      "type": "event"
    },
    {
      "anonymous": false,
      "inputs": [
        {
          "indexed": false,
          "internalType": "address",
          "name": "account",
          "type": "address"
        }
      ],
      "name": "Unpaused",
      "type": "event"
    },
    {
      "inputs": [
        {
          "internalType": "address",
          "name": "token",
          "type": "address"
        }
      ],
      "name": "addSupportedToken",
      "outputs": [],
      "stateMutability": "nonpayable",
      "type": "function"
    },
    {
      "inputs": [],
      "name": "bridgeFee",
      "outputs": [
        {
          "internalType": "uint256",
          "name": "",
          "type": "uint256"
        }
      ],
      "stateMutability": "view",
      "type": "function"
    },
    {
      "inputs": [
        {
          "internalType": "address",
          "name": "token",
          "type": "address"
        },
        {
          "internalType": "uint256",
          "name": "amount",
          "type": "uint256"
        },
        {
          "internalType": "uint256",
          "name": "targetChainId",
          "type": "uint256"
        }
      ],
      "name": "lockTokens",
      "outputs": [],
      "stateMutability": "payable",
      "type": "function"
    },
    {
      "inputs": [],
      "name": "maxAmount",
      "outputs": [
        {
          "internalType": "uint256",
          "name": "",
          "type": "uint256"
        }
      ],
      "stateMutability": "view",
      "type": "function"
    },
    {
      "inputs": [],
      "name": "minAmount",
      "outputs": [
        {
          "internalType": "uint256",
          "name": "",
          "type": "uint256"
        }
      ],
      "stateMutability": "view",
      "type": "function"
    },
    {
      "inputs": [
        {
          "internalType": "address",
          "name": "",
          "type": "address"
        }
      ],
      "name": "nonces",
      "outputs": [
        {
          "internalType": "uint256",
          "name": "",
          "type": "uint256"
        }
      ],
      "stateMutability": "view",
      "type": "function"
    },
    {
      "inputs": [],
      "name": "owner",
      "outputs": [
        {
          "internalType": "address",
          "name": "",
          "type": "address"
        }
      ],
      "stateMutability": "view",
      "type": "function"
    },
    {
      "inputs": [],
      "name": "pause",
      "outputs": [],
      "stateMutability": "nonpayable",
      "type": "function"
    },
    {
      "inputs": [],
      "name": "paused",
      "outputs": [
        {
          "internalType": "bool",
          "name": "",
          "type": "bool"
        }
      ],
      "stateMutability": "view",
      "type": "function"
    },
    {
      "inputs": [
        {
          "internalType": "address",
          "name": "",
          "type": "address"
        },
        {
          "internalType": "bytes32",
          "name": "",
          "type": "bytes32"
        }
      ],
      "name": "processedHashes",
      "outputs": [
        {
          "internalType": "bool",
          "name": "",
          "type": "bool"
        }
      ],
      "stateMutability": "view",
      "type": "function"
    },
    {
      "inputs": [
        {
          "internalType": "address",
          "name": "token",
          "type": "address"
        }
      ],
      "name": "removeSupportedToken",
      "outputs": [],
      "stateMutability": "nonpayable",
      "type": "function"
    },
    {
      "inputs": [],
      "name": "renounceOwnership",
      "outputs": [],
      "stateMutability": "nonpayable",
      "type": "function"
    },
    {
      "inputs": [
        {
          "internalType": "address",
          "name": "",
          "type": "address"
        }
      ],
      "name": "supportedTokens",
      "outputs": [
        {
          "internalType": "bool",
          "name": "",
          "type": "bool"
        }
      ],
      "stateMutability": "view",
      "type": "function"
    },
    {
      "inputs": [
        {
          "internalType": "address",
          "name": "newOwner",
          "type": "address"
        }
      ],
      "name": "transferOwnership",
      "outputs": [],
      "stateMutability": "nonpayable",
      "type": "function"
    },
    {
      "inputs": [
        {
          "internalType": "address",
          "name": "token",
          "type": "address"
        },
        {
          "internalType": "address",
          "name": "to",
          "type": "address"
        },
        {
          "internalType": "uint256",
          "name": "amount",
          "type": "uint256"
        },
        {
          "internalType": "bytes32",
          "name": "transactionHash",
          "type": "bytes32"
        }
      ],
      "name": "unlockTokens",
      "outputs": [],
      "stateMutability": "nonpayable",
      "type": "function"
    },
    {
      "inputs": [],
      "name": "unpause",
      "outputs": [],
      "stateMutability": "nonpayable",
      "type": "function"
    },
    {
      "inputs": [
        {
          "internalType": "uint256",
          "name": "newFee",
          "type": "uint256"
        }
      ],
      "name": "updateBridgeFee",
      "outputs": [],
      "stateMutability": "nonpayable",
      "type": "function"
    },
    {
      "inputs": [
        {
          "internalType": "uint256",
          "name": "_minAmount",
          "type": "uint256"
        },
        {
          "internalType": "uint256",
          "name": "_maxAmount",
          "type": "uint256"
        }
      ],
      "name": "updateLimits",
      "outputs": [],
      "stateMutability": "nonpayable",
      "type": "function"
    },
    {
      "inputs": [],
      "name": "withdrawFees",
      "outputs": [],
      "stateMutability": "nonpayable",
      "type": "function"
    }
  ],
  "bytecode": "0x608060405266038d7ea4c68000600555662386f26fc10000600655683635c9adc5dea000006007553480156200003457600080fd5b50336001600081905550600073ffffffffffffffffffffffffffffffffffffffff168173ffffffffffffffffffffffffffffffffffffffff1603620000b35760006040517f1e4fbdf7000000000000000000000000000000000000000000000000000000008152600401620000aa9190620001f1565b60405180910390fd5b620000c481620000e660201b60201c565b506000600160146101000a81548160ff0219169083151502179055506200020e565b6000600160009054906101000a900473ffffffffffffffffffffffffffffffffffffffff16905081600160006101000a81548173ffffffffffffffffffffffffffffffffffffffff021916908373ffffffffffffffffffffffffffffffffffffffff1602179055508173ffffffffffffffffffffffffffffffffffffffff168173ffffffffffffffffffffffffffffffffffffffff167f8be0079c531659141344cd1fd0a4f28419497f9722a3daafe3b4186f6b6457e060405160405180910390a35050565b600073ffffffffffffffffffffffffffffffffffffffff82169050919050565b6000620001d982620001ac565b9050919050565b620001eb81620001cc565b82525050565b6000602082019050620002086000830184620001e0565b92915050565b611ccd806200021e6000396000f3fe6080604052600436106101145760003560e01c806376319190116100a05780639b2cb5d8116100645780639b2cb5d81461033f578063a2240e191461036a578063a25983e514610393578063d22be760146103af578063f2fde38b146103ec57610114565b8063763191901461026c5780637ecebe001461029557806382b12dd7146102d25780638456cb59146102fd5780638da5cb5b1461031457610114565b80635c975abb116100e75780635c975abb146101995780635f48f393146101c457806368c4ac26146101ef5780636d69fcaf1461022c578063715018a61461025557610114565b8063304ccad3146101195780633f4ba83a14610142578063476343ee146101595780635a1c036614610170575b600080fd5b34801561012557600080fd5b50610140600480360381019061013b9190611382565b610415565b005b34801561014e57600080fd5b506101576107c9565b005b34801561016557600080fd5b5061016e6107db565b005b34801561017c57600080fd5b50610197600480360381019061019291906113e9565b6108e2565b005b3480156101a557600080fd5b506101ae61092b565b6040516101bb9190611431565b60405180910390f35b3480156101d057600080fd5b506101d9610942565b6040516101e6919061145b565b60405180910390f35b3480156101fb57600080fd5b5061021660048036038101906102119190611476565b610948565b6040516102239190611431565b60405180910390f35b34801561023857600080fd5b50610253600480360381019061024e9190611476565b610968565b005b34801561026157600080fd5b5061026a610a7d565b005b34801561027857600080fd5b50610293600480360381019061028e9190611476565b610a91565b005b3480156102a157600080fd5b506102bc60048036038101906102b79190611476565b610b37565b6040516102c9919061145b565b60405180910390f35b3480156102de57600080fd5b506102e7610b4f565b6040516102f4919061145b565b60405180910390f35b34801561030957600080fd5b50610312610b55565b005b34801561032057600080fd5b50610329610b67565b60405161033691906114b2565b60405180910390f35b34801561034b57600080fd5b50610354610b91565b604051610361919061145b565b60405180910390f35b34801561037657600080fd5b50610391600480360381019061038c91906114cd565b610b97565b005b6103ad60048036038101906103a8919061150d565b610c2c565b005b3480156103bb57600080fd5b506103d660048036038101906103d19190611560565b610f73565b6040516103e39190611431565b60405180910390f35b3480156103f857600080fd5b50610413600480360381019061040e9190611476565b610fa2565b005b61041d611028565b600260005403610462576040517f08c379a0000000000000000000000000000000000000000000000000000000008152600401610459906115fd565b60405180910390fd5b600260008190555061047261092b565b156104b2576040517f08c379a00000000000000000000000000000000000000000000000000000000081526004016104a990611669565b60405180910390fd5b600460008573ffffffffffffffffffffffffffffffffffffffff1673ffffffffffffffffffffffffffffffffffffffff16815260200190815260200160002060009054906101000a900460ff1661053e576040517f08c379a0000000000000000000000000000000000000000000000000000000008152600401610535906116d5565b60405180910390fd5b600260008573ffffffffffffffffffffffffffffffffffffffff1673ffffffffffffffffffffffffffffffffffffffff168152602001908152602001600020600082815260200190815260200160002060009054906101000a900460ff16156105dc576040517f08c379a00000000000000000000000000000000000000000000000000000000081526004016105d390611741565b60405180910390fd5b60065482101580156105f057506007548211155b61062f576040517f08c379a0000000000000000000000000000000000000000000000000000000008152600401610626906117ad565b60405180910390fd5b6001600260008673ffffffffffffffffffffffffffffffffffffffff1673ffffffffffffffffffffffffffffffffffffffff168152602001908152602001600020600083815260200190815260200160002060006101000a81548160ff0219169083151502179055508373ffffffffffffffffffffffffffffffffffffffff1663a9059cbb84846040518363ffffffff1660e01b81526004016106d39291906117cd565b6020604051808303816000875af11580156106f2573d6000803e3d6000fd5b505050506040513d601f19601f820116820180604052508101906107169190611822565b610755576040517f08c379a000000000000000000000000000000000000000000000000000000000815260040161074c9061189b565b60405180910390fd5b808373ffffffffffffffffffffffffffffffffffffffff168573ffffffffffffffffffffffffffffffffffffffff167fc24528373542ee9723afbd28e392c80d637cad2d28d9034600064379224c4405856040516107b3919061145b565b60405180910390a4600160008190555050505050565b6107d1611028565b6107d96110af565b565b6107e3611028565b60004790506000811161082b576040517f08c379a000000000000000000000000000000000000000000000000000000000815260040161082290611907565b60405180910390fd5b6000610835610b67565b73ffffffffffffffffffffffffffffffffffffffff168260405161085890611958565b60006040518083038185875af1925050503d8060008114610895576040519150601f19603f3d011682016040523d82523d6000602084013e61089a565b606091505b50509050806108de576040517f08c379a00000000000000000000000000000000000000000000000000000000081526004016108d5906119b9565b60405180910390fd5b5050565b6108ea611028565b806005819055507f8c4d35e54a3f2ef1134138fd8ea3daee6a3c89e10d2665996babdf70261e2c7681604051610920919061145b565b60405180910390a150565b6000600160149054906101000a900460ff16905090565b60075481565b60046020528060005260406000206000915054906101000a900460ff1681565b610970611028565b600073ffffffffffffffffffffffffffffffffffffffff168173ffffffffffffffffffffffffffffffffffffffff16036109df576040517f08c379a00000000000000000000000000000000000000000000000000000000081526004016109d690611a25565b60405180910390fd5b6001600460008373ffffffffffffffffffffffffffffffffffffffff1673ffffffffffffffffffffffffffffffffffffffff16815260200190815260200160002060006101000a81548160ff0219169083151502179055508073ffffffffffffffffffffffffffffffffffffffff167f784c8f4dbf0ffedd6e72c76501c545a70f8b203b30a26ce542bf92ba87c248a460405160405180910390a250565b610a85611028565b610a8f600061114a565b565b610a99611028565b6000600460008373ffffffffffffffffffffffffffffffffffffffff1673ffffffffffffffffffffffffffffffffffffffff16815260200190815260200160002060006101000a81548160ff0219169083151502179055508073ffffffffffffffffffffffffffffffffffffffff167f4c910b69fe65a61f7531b9c5042b2329ca7179c77290aa7e2eb3afa3c8511fd360405160405180910390a250565b60036020528060005260406000206000915090505481565b60055481565b610b5d611028565b610b65611210565b565b6000600160009054906101000a900473ffffffffffffffffffffffffffffffffffffffff16905090565b60065481565b610b9f611028565b808210610be1576040517f08c379a0000000000000000000000000000000000000000000000000000000008152600401610bd890611a91565b60405180910390fd5b81600681905550806007819055507f4d4981437d0211f9e6843eb024d9ada1fa3a99514d4343d4aece106dd11524bb8282604051610c20929190611ab1565b60405180910390a15050565b600260005403610c71576040517f08c379a0000000000000000000000000000000000000000000000000000000008152600401610c68906115fd565b60405180910390fd5b6002600081905550610c8161092b565b15610cc1576040517f08c379a0000000000000000000000000000000000000000000000000000000008152600401610cb890611669565b60405180910390fd5b600460008473ffffffffffffffffffffffffffffffffffffffff1673ffffffffffffffffffffffffffffffffffffffff16815260200190815260200160002060009054906101000a900460ff16610d4d576040517f08c379a0000000000000000000000000000000000000000000000000000000008152600401610d44906116d5565b60405180910390fd5b6006548210158015610d6157506007548211155b610da0576040517f08c379a0000000000000000000000000000000000000000000000000000000008152600401610d97906117ad565b60405180910390fd5b600554341015610de5576040517f08c379a0000000000000000000000000000000000000000000000000000000008152600401610ddc90611b26565b60405180910390fd5b8273ffffffffffffffffffffffffffffffffffffffff166323b872dd3330856040518463ffffffff1660e01b8152600401610e2293929190611b46565b6020604051808303816000875af1158015610e41573d6000803e3d6000fd5b505050506040513d601f19601f82011682018060405250810190610e659190611822565b610ea4576040517f08c379a0000000000000000000000000000000000000000000000000000000008152600401610e9b9061189b565b60405180910390fd5b6000600360003373ffffffffffffffffffffffffffffffffffffffff1673ffffffffffffffffffffffffffffffffffffffff1681526020019081526020016000206000815480929190610ef690611bac565b9190505590503373ffffffffffffffffffffffffffffffffffffffff168473ffffffffffffffffffffffffffffffffffffffff167fa6782d3322abbfbe850e6d5c5c78e8e1df603ea07608bb9a62dd83f40d4feccc858585604051610f5d93929190611bf4565b60405180910390a3506001600081905550505050565b60026020528160005260406000206020528060005260406000206000915091509054906101000a900460ff1681565b610faa611028565b600073ffffffffffffffffffffffffffffffffffffffff168173ffffffffffffffffffffffffffffffffffffffff160361101c5760006040517f1e4fbdf700000000000000000000000000000000000000000000000000000000815260040161101391906114b2565b60405180910390fd5b6110258161114a565b50565b6110306112ab565b73ffffffffffffffffffffffffffffffffffffffff1661104e610b67565b73ffffffffffffffffffffffffffffffffffffffff16146110ad576110716112ab565b6040517f118cdaa70000000000000000000000000000000000000000000000000000000081526004016110a491906114b2565b60405180910390fd5b565b6110b761092b565b6110f6576040517f08c379a00000000000000000000000000000000000000000000000000000000081526004016110ed90611c77565b60405180910390fd5b6000600160146101000a81548160ff0219169083151502179055507f5db9ee0a495bf2e6ff9c91a7834c1ba4fdd244a5e8aa4e537bd38aeae4b073aa3360405161114091906114b2565b60405180910390a1565b6000600160009054906101000a900473ffffffffffffffffffffffffffffffffffffffff16905081600160006101000a81548173ffffffffffffffffffffffffffffffffffffffff021916908373ffffffffffffffffffffffffffffffffffffffff1602179055508173ffffffffffffffffffffffffffffffffffffffff168173ffffffffffffffffffffffffffffffffffffffff167f8be0079c531659141344cd1fd0a4f28419497f9722a3daafe3b4186f6b6457e060405160405180910390a35050565b61121861092b565b15611258576040517f08c379a000000000000000000000000000000000000000000000000000000000815260040161124f90611669565b60405180910390fd5b60018060146101000a81548160ff0219169083151502179055507f62e78cea01bee320cd4e420270b5ea74000d11b0c9f74754ebdbfc544b05a258336040516112a191906114b2565b60405180910390a1565b600033905090565b600080fd5b600073ffffffffffffffffffffffffffffffffffffffff82169050919050565b60006112e3826112b8565b9050919050565b6112f3816112d8565b81146112fe57600080fd5b50565b600081359050611310816112ea565b92915050565b6000819050919050565b61132981611316565b811461133457600080fd5b50565b60008135905061134681611320565b92915050565b6000819050919050565b61135f8161134c565b811461136a57600080fd5b50565b60008135905061137c81611356565b92915050565b6000806000806080858703121561139c5761139b6112b3565b5b60006113aa87828801611301565b94505060206113bb87828801611301565b93505060406113cc87828801611337565b92505060606113dd8782880161136d565b91505092959194509250565b6000602082840312156113ff576113fe6112b3565b5b600061140d84828501611337565b91505092915050565b60008115159050919050565b61142b81611416565b82525050565b60006020820190506114466000830184611422565b92915050565b61145581611316565b82525050565b6000602082019050611470600083018461144c565b92915050565b60006020828403121561148c5761148b6112b3565b5b600061149a84828501611301565b91505092915050565b6114ac816112d8565b82525050565b60006020820190506114c760008301846114a3565b92915050565b600080604083850312156114e4576114e36112b3565b5b60006114f285828601611337565b925050602061150385828601611337565b9150509250929050565b600080600060608486031215611526576115256112b3565b5b600061153486828701611301565b935050602061154586828701611337565b925050604061155686828701611337565b9150509250925092565b60008060408385031215611577576115766112b3565b5b600061158585828601611301565b92505060206115968582860161136d565b9150509250929050565b600082825260208201905092915050565b7f5265656e7472616e637947756172643a207265656e7472616e742063616c6c00600082015250565b60006115e7601f836115a0565b91506115f2826115b1565b602082019050919050565b60006020820190508181036000830152611616816115da565b9050919050565b7f5061757361626c653a2070617573656400000000000000000000000000000000600082015250565b60006116536010836115a0565b915061165e8261161d565b602082019050919050565b6000602082019050818103600083015261168281611646565b9050919050565b7f546f6b656e206e6f7420737570706f7274656400000000000000000000000000600082015250565b60006116bf6013836115a0565b91506116ca82611689565b602082019050919050565b600060208201905081810360008301526116ee816116b2565b9050919050565b7f5472616e73616374696f6e20616c72656164792070726f636573736564000000600082015250565b600061172b601d836115a0565b9150611736826116f5565b602082019050919050565b6000602082019050818103600083015261175a8161171e565b9050919050565b7f416d6f756e74206f7574206f6620626f756e6473000000000000000000000000600082015250565b60006117976014836115a0565b91506117a282611761565b602082019050919050565b600060208201905081810360008301526117c68161178a565b9050919050565b60006040820190506117e260008301856114a3565b6117ef602083018461144c565b9392505050565b6117ff81611416565b811461180a57600080fd5b50565b60008151905061181c816117f6565b92915050565b600060208284031215611838576118376112b3565b5b60006118468482850161180d565b91505092915050565b7f5472616e73666572206661696c65640000000000000000000000000000000000600082015250565b6000611885600f836115a0565b91506118908261184f565b602082019050919050565b600060208201905081810360008301526118b481611878565b9050919050565b7f4e6f206665657320746f20776974686472617700000000000000000000000000600082015250565b60006118f16013836115a0565b91506118fc826118bb565b602082019050919050565b60006020820190508181036000830152611920816118e4565b9050919050565b600081905092915050565b50565b6000611942600083611927565b915061194d82611932565b600082019050919050565b600061196382611935565b9150819050919050565b7f466565207769746864726177616c206661696c65640000000000000000000000600082015250565b60006119a36015836115a0565b91506119ae8261196d565b602082019050919050565b600060208201905081810360008301526119d281611996565b9050919050565b7f496e76616c696420746f6b656e20616464726573730000000000000000000000600082015250565b6000611a0f6015836115a0565b9150611a1a826119d9565b602082019050919050565b60006020820190508181036000830152611a3e81611a02565b9050919050565b7f496e76616c6964206c696d697473000000000000000000000000000000000000600082015250565b6000611a7b600e836115a0565b9150611a8682611a45565b602082019050919050565b60006020820190508181036000830152611aaa81611a6e565b9050919050565b6000604082019050611ac6600083018561144c565b611ad3602083018461144c565b9392505050565b7f496e73756666696369656e742066656500000000000000000000000000000000600082015250565b6000611b106010836115a0565b9150611b1b82611ada565b602082019050919050565b60006020820190508181036000830152611b3f81611b03565b9050919050565b6000606082019050611b5b60008301866114a3565b611b6860208301856114a3565b611b75604083018461144c565b949350505050565b7f4e487b7100000000000000000000000000000000000000000000000000000000600052601160045260246000fd5b6000611bb782611316565b91507fffffffffffffffffffffffffffffffffffffffffffffffffffffffffffffffff8203611be957611be8611b7d565b5b600182019050919050565b6000606082019050611c09600083018661144c565b611c16602083018561144c565b611c23604083018461144c565b949350505050565b7f5061757361626c653a206e6f7420706175736564000000000000000000000000600082015250565b6000611c616014836115a0565b9150611c6c82611c2b565b602082019050919050565b60006020820190508181036000830152611c9081611c54565b905091905056fea26469706673582212205defbc7644c9bb8547323eb543296d1ad9bd7368dcf441523b95b02f3dcce37f64736f6c63430008180033",
  "linkReferences": {},
  "deployedLinkReferences": {}
}