{
  "_format": "hh-sol-artifact-1",
  "contractName": "LockAndMintV2",
  "sourceName": "contracts/LockAndMintV2.sol",
  "abi": [
    {
      "inputs": [],
      "stateMutability": "nonpayable",
      "type": "constructor"
    },
    {
      "inputs": [
        {
          "internalType": "address",
          "name": "owner",
          "type": "address"
        }
      ],
      "name": "OwnableInvalidOwner",
      "type": "error"
    },
    {
      "inputs": [
        {
          "internalType": "address",
          "name": "account",
          "type": "address"
        }
      ],
      "name": "OwnableUnauthorizedAccount",
      "type": "error"
    },
    {
      "anonymous": false,
      "inputs": [
        {
          "indexed": true,
          "internalType": "bytes32",
          "name": "requestId",
          "type": "bytes32"
        },
        {
          "indexed": true,
          "internalType": "address",
          "name": "asset",
          "type": "address"
        },
        {
          "indexed": false,
          "internalType": "enum LockAndMintV2.AssetType",
          "name": "assetType",
          "type": "uint8"
        },
        {
          "indexed": true,
          "internalType": "address",
          "name": "sender",
          "type": "address"
        },
        {
          "indexed": false,
          "internalType": "address",
          "name": "receiver",
          "type": "address"
        },
        {
          "indexed": false,
          "internalType": "uint256",
          "name": "amount",
          "type": "uint256"
        },
        {
          "indexed": false,
          "internalType": "uint256",
          "name": "tokenId",
          "type": "uint256"
        }
      ],
      "name": "AssetLocked",
      "type": "event"
    },
    {
      "anonymous": false,
      "inputs": [
        {
          "indexed": true,
          "internalType": "bytes32",
          "name": "requestId",
          "type": "bytes32"
        },
        {
          "indexed": true,
          "internalType": "address",
          "name": "wrappedAsset",
          "type": "address"
        },
        {
          "indexed": true,
          "internalType": "address",
          "name": "receiver",
          "type": "address"
        },
        {
          "indexed": false,
          "internalType": "uint256",
          "name": "amount",
          "type": "uint256"
        },
        {
          "indexed": false,
          "internalType": "uint256",
          "name": "tokenId",
          "type": "uint256"
        }
      ],
      "name": "AssetMinted",
      "type": "event"
    },
    {
      "anonymous": false,
      "inputs": [
        {
          "indexed": true,
          "internalType": "address",
          "name": "previousOwner",
          "type": "address"
        },
        {
          "indexed": true,
          "internalType": "address",
          "name": "newOwner",
          "type": "address"
        }
      ],
      "name": "OwnershipTransferred",
      "type": "event"
    },
    {
      "inputs": [
        {
          "internalType": "address",
          "name": "asset",
          "type": "address"
        },
        {
          "internalType": "address",
          "name": "wrappedVersion",
          "type": "address"
        },
        {
          "internalType": "enum LockAndMintV2.AssetType",
          "name": "assetType",
          "type": "uint8"
        }
      ],
      "name": "addSupportedAsset",
      "outputs": [],
      "stateMutability": "nonpayable",
      "type": "function"
    },
    {
      "inputs": [
        {
          "internalType": "address",
          "name": "forwarder",
          "type": "address"
        }
      ],
      "name": "addTrustedForwarder",
      "outputs": [],
      "stateMutability": "nonpayable",
      "type": "function"
    },
    {
      "inputs": [
        {
          "internalType": "address",
          "name": "asset",
          "type": "address"
        },
        {
          "internalType": "enum LockAndMintV2.AssetType",
          "name": "assetType",
          "type": "uint8"
        },
        {
          "internalType": "uint256",
          "name": "amount",
          "type": "uint256"
        },
        {
          "internalType": "uint256",
          "name": "tokenId",
          "type": "uint256"
        },
        {
          "internalType": "address",
          "name": "receiver",
          "type": "address"
        },
        {
          "internalType": "address",
          "name": "targetChainReceiver",
          "type": "address"
        },
        {
          "internalType": "address",
          "name": "originalSender",
          "type": "address"
        }
      ],
      "name": "gaslessLockAndMint",
      "outputs": [],
      "stateMutability": "nonpayable",
      "type": "function"
    },
    {
      "inputs": [
        {
          "internalType": "address",
          "name": "asset",
          "type": "address"
        },
        {
          "internalType": "enum LockAndMintV2.AssetType",
          "name": "assetType",
          "type": "uint8"
        },
        {
          "internalType": "uint256",
          "name": "amount",
          "type": "uint256"
        },
        {
          "internalType": "uint256",
          "name": "tokenId",
          "type": "uint256"
        },
        {
          "internalType": "address",
          "name": "receiver",
          "type": "address"
        },
        {
          "internalType": "address",
          "name": "targetChainReceiver",
          "type": "address"
        }
      ],
      "name": "lockAndMint",
      "outputs": [],
      "stateMutability": "nonpayable",
      "type": "function"
    },
    {
      "inputs": [],
      "name": "owner",
      "outputs": [
        {
          "internalType": "address",
          "name": "",
          "type": "address"
        }
      ],
      "stateMutability": "view",
      "type": "function"
    },
    {
      "inputs": [
        {
          "internalType": "bytes32",
          "name": "",
          "type": "bytes32"
        }
      ],
      "name": "processedRequests",
      "outputs": [
        {
          "internalType": "bool",
          "name": "",
          "type": "bool"
        }
      ],
      "stateMutability": "view",
      "type": "function"
    },
    {
      "inputs": [],
      "name": "renounceOwnership",
      "outputs": [],
      "stateMutability": "nonpayable",
      "type": "function"
    },
    {
      "inputs": [
        {
          "internalType": "address",
          "name": "",
          "type": "address"
        }
      ],
      "name": "supportedAssets",
      "outputs": [
        {
          "internalType": "address",
          "name": "asset",
          "type": "address"
        },
        {
          "internalType": "address",
          "name": "wrappedVersion",
          "type": "address"
        },
        {
          "internalType": "enum LockAndMintV2.AssetType",
          "name": "assetType",
          "type": "uint8"
        },
        {
          "internalType": "bool",
          "name": "isSupported",
          "type": "bool"
        }
      ],
      "stateMutability": "view",
      "type": "function"
    },
    {
      "inputs": [
        {
          "internalType": "address",
          "name": "newOwner",
          "type": "address"
        }
      ],
      "name": "transferOwnership",
      "outputs": [],
      "stateMutability": "nonpayable",
      "type": "function"
    }
  ],
  "bytecode": "0x608060405234801561001057600080fd5b506001600055338061003c57604051631e4fbdf760e01b81526000600482015260240160405180910390fd5b6100458161004b565b5061009d565b600180546001600160a01b038381166001600160a01b0319831681179093556040519116919082907f8be0079c531659141344cd1fd0a4f28419497f9722a3daafe3b4186f6b6457e090600090a35050565b61106d806100ac6000396000f3fe608060405234801561001057600080fd5b50600436106100935760003560e01c80637172cbf2116100665780637172cbf2146100db5780638da5cb5b146100ee578063bd81579e1461010e578063ce0fa5a914610168578063f2fde38b1461019b57600080fd5b8063066c2b361461009857806326d00668146100ad5780633741b1d5146100c0578063715018a6146100d3575b600080fd5b6100ab6100a6366004610d5f565b6101ae565b005b6100ab6100bb366004610da2565b610303565b6100ab6100ce366004610dc4565b61032f565b6100ab6107cd565b6100ab6100e9366004610e3c565b6107e1565b6001546040516001600160a01b0390911681526020015b60405180910390f35b61015861011c366004610da2565b600360205260009081526040902080546001909101546001600160a01b039182169181169060ff600160a01b8204811691600160a81b90041684565b6040516101059493929190610eda565b61018b610176366004610f10565b60026020526000908152604090205460ff1681565b6040519015158152602001610105565b6100ab6101a9366004610da2565b610c77565b6101b6610cb5565b6001600160a01b038316158015906101d657506001600160a01b03821615155b61021b5760405162461bcd60e51b8152602060048201526011602482015270496e76616c69642061646472657373657360781b60448201526064015b60405180910390fd5b6040518060800160405280846001600160a01b03168152602001836001600160a01b0316815260200182600181111561025657610256610ea2565b8152600160209182018190526001600160a01b03808716600090815260038452604090819020855181549084166001600160a01b0319918216178255948601518185018054919094169581168617845591860151909490936001600160a81b03199092161790600160a01b9084908111156102d3576102d3610ea2565b02179055506060919091015160019091018054911515600160a81b0260ff60a81b19909216919091179055505050565b61030b610cb5565b6001600160a01b03166000908152600460205260409020805460ff19166001179055565b3360009081526004602052604090205460ff1661038e5760405162461bcd60e51b815260206004820152601760248201527f4e6f742061207472757374656420666f727761726465720000000000000000006044820152606401610212565b6001600160a01b038716600090815260036020526040902060010154600160a81b900460ff166103f65760405162461bcd60e51b8152602060048201526013602482015272105cdcd95d081b9bdd081cdd5c1c1bdc9d1959606a1b6044820152606401610212565b6001600160a01b0383161580159061041657506001600160a01b03821615155b6104565760405162461bcd60e51b8152602060048201526011602482015270496e76616c69642072656365697665727360781b6044820152606401610212565b600087878386868a8a42604051602001610477989796959493929190610f29565b60408051601f1981840301815291815281516020928301206000818152600290935291205490915060ff16156104eb5760405162461bcd60e51b815260206004820152601960248201527814995c5d595cdd08185b1c9958591e481c1c9bd8d95cdcd959603a1b6044820152606401610212565b60008760018111156104ff576104ff610ea2565b036105ba576040516323b872dd60e01b81526001600160a01b038916906323b872dd9061053490859030908b90600401610fbf565b6020604051808303816000875af1158015610553573d6000803e3d6000fd5b505050506040513d601f19601f820116820180604052508101906105779190610fe3565b6105b55760405162461bcd60e51b815260206004820152600f60248201526e151c985b9cd9995c8819985a5b1959608a1b6044820152606401610212565b610667565b85156106045760405162461bcd60e51b8152602060048201526019602482015278496e76616c696420616d6f756e7420666f722045524337323160381b6044820152606401610212565b6040516323b872dd60e01b81526001600160a01b038916906323b872dd9061063490859030908a90600401610fbf565b600060405180830381600087803b15801561064e57600080fd5b505af1158015610662573d6000803e3d6000fd5b505050505b60008181526002602052604090819020805460ff19166001179055516001600160a01b0380841691908a169083907f8ce6fa2ef06e9a545986e3f2bad51628a2fb1353e34340155f212645901593bb906106c8908c908a908d908d90611005565b60405180910390a46001600160a01b038089166000908152600360205260408120600101549091169088600181111561070357610703610ea2565b0361076b576040516340c10f1960e01b81526001600160a01b038681166004830152602482018990528216906340c10f1990604401600060405180830381600087803b15801561075257600080fd5b505af1158015610766573d6000803e3d6000fd5b505050505b846001600160a01b0316816001600160a01b0316837f48f409a802abbbe902790a364f23762a40d25ebba023e3e6efdc6dac2f81e5818a8a6040516107ba929190918252602082015260400190565b60405180910390a4505050505050505050565b6107d5610cb5565b6107df6000610ce2565b565b6002600054036108335760405162461bcd60e51b815260206004820152601f60248201527f5265656e7472616e637947756172643a207265656e7472616e742063616c6c006044820152606401610212565b600260009081556001600160a01b038716815260036020526040902060010154600160a81b900460ff1661089f5760405162461bcd60e51b8152602060048201526013602482015272105cdcd95d081b9bdd081cdd5c1c1bdc9d1959606a1b6044820152606401610212565b6001600160a01b038216158015906108bf57506001600160a01b03811615155b6108ff5760405162461bcd60e51b8152602060048201526011602482015270496e76616c69642072656365697665727360781b6044820152606401610212565b60008686338585898942604051602001610920989796959493929190610f29565b60408051601f1981840301815291815281516020928301206000818152600290935291205490915060ff16156109945760405162461bcd60e51b815260206004820152601960248201527814995c5d595cdd08185b1c9958591e481c1c9bd8d95cdcd959603a1b6044820152606401610212565b60008660018111156109a8576109a8610ea2565b03610a63576040516323b872dd60e01b81526001600160a01b038816906323b872dd906109dd90339030908a90600401610fbf565b6020604051808303816000875af11580156109fc573d6000803e3d6000fd5b505050506040513d601f19601f82011682018060405250810190610a209190610fe3565b610a5e5760405162461bcd60e51b815260206004820152600f60248201526e151c985b9cd9995c8819985a5b1959608a1b6044820152606401610212565b610b10565b8415610aad5760405162461bcd60e51b8152602060048201526019602482015278496e76616c696420616d6f756e7420666f722045524337323160381b6044820152606401610212565b6040516323b872dd60e01b81526001600160a01b038816906323b872dd90610add90339030908990600401610fbf565b600060405180830381600087803b158015610af757600080fd5b505af1158015610b0b573d6000803e3d6000fd5b505050505b60008181526002602052604090819020805460ff191660011790555133906001600160a01b0389169083907f8ce6fa2ef06e9a545986e3f2bad51628a2fb1353e34340155f212645901593bb90610b6e908b9089908c908c90611005565b60405180910390a46001600160a01b0380881660009081526003602052604081206001015490911690876001811115610ba957610ba9610ea2565b03610c11576040516340c10f1960e01b81526001600160a01b038581166004830152602482018890528216906340c10f1990604401600060405180830381600087803b158015610bf857600080fd5b505af1158015610c0c573d6000803e3d6000fd5b505050505b836001600160a01b0316816001600160a01b0316837f48f409a802abbbe902790a364f23762a40d25ebba023e3e6efdc6dac2f81e5818989604051610c60929190918252602082015260400190565b60405180910390a450506001600055505050505050565b610c7f610cb5565b6001600160a01b038116610ca957604051631e4fbdf760e01b815260006004820152602401610212565b610cb281610ce2565b50565b6001546001600160a01b031633146107df5760405163118cdaa760e01b8152336004820152602401610212565b600180546001600160a01b038381166001600160a01b0319831681179093556040519116919082907f8be0079c531659141344cd1fd0a4f28419497f9722a3daafe3b4186f6b6457e090600090a35050565b80356001600160a01b0381168114610d4b57600080fd5b919050565b803560028110610d4b57600080fd5b600080600060608486031215610d7457600080fd5b610d7d84610d34565b9250610d8b60208501610d34565b9150610d9960408501610d50565b90509250925092565b600060208284031215610db457600080fd5b610dbd82610d34565b9392505050565b600080600080600080600060e0888a031215610ddf57600080fd5b610de888610d34565b9650610df660208901610d50565b95506040880135945060608801359350610e1260808901610d34565b9250610e2060a08901610d34565b9150610e2e60c08901610d34565b905092959891949750929550565b60008060008060008060c08789031215610e5557600080fd5b610e5e87610d34565b9550610e6c60208801610d50565b94506040870135935060608701359250610e8860808801610d34565b9150610e9660a08801610d34565b90509295509295509295565b634e487b7160e01b600052602160045260246000fd5b60028110610ed657634e487b7160e01b600052602160045260246000fd5b9052565b6001600160a01b0385811682528416602082015260808101610eff6040830185610eb8565b821515606083015295945050505050565b600060208284031215610f2257600080fd5b5035919050565b60006bffffffffffffffffffffffff19808b60601b16835260028a10610f5f57634e487b7160e01b600052602160045260246000fd5b8960f81b6014840152808960601b166015840152808860601b16602984015250610f9d603d83018760601b6bffffffffffffffffffffffff19169052565b5060518101939093526071830191909152609182015260b10195945050505050565b6001600160a01b039384168152919092166020820152604081019190915260600190565b600060208284031215610ff557600080fd5b81518015158114610dbd57600080fd5b608081016110138287610eb8565b6001600160a01b03949094166020820152604081019290925260609091015291905056fea26469706673582212207c3aa755dc23b7dedab9ec8f878476b35e5110e71acf481eb8a447c93b62238164736f6c63430008180033",
  "linkReferences": {},
  "deployedLinkReferences": {}
}