{
  "_format": "hh-sol-artifact-1",
  "contractName": "UnlockAndBurnV2",
  "sourceName": "contracts/UnlockAndBurnV2.sol",
  "abi": [
    {
      "inputs": [],
      "stateMutability": "nonpayable",
      "type": "constructor"
    },
    {
      "inputs": [
        {
          "internalType": "address",
          "name": "owner",
          "type": "address"
        }
      ],
      "name": "OwnableInvalidOwner",
      "type": "error"
    },
    {
      "inputs": [
        {
          "internalType": "address",
          "name": "account",
          "type": "address"
        }
      ],
      "name": "OwnableUnauthorizedAccount",
      "type": "error"
    },
    {
      "anonymous": false,
      "inputs": [
        {
          "indexed": true,
          "internalType": "bytes32",
          "name": "requestId",
          "type": "bytes32"
        },
        {
          "indexed": true,
          "internalType": "address",
          "name": "wrappedAsset",
          "type": "address"
        },
        {
          "indexed": true,
          "internalType": "address",
          "name": "sender",
          "type": "address"
        },
        {
          "indexed": false,
          "internalType": "uint256",
          "name": "amount",
          "type": "uint256"
        },
        {
          "indexed": false,
          "internalType": "uint256",
          "name": "tokenId",
          "type": "uint256"
        }
      ],
      "name": "AssetBurned",
      "type": "event"
    },
    {
      "anonymous": false,
      "inputs": [
        {
          "indexed": true,
          "internalType": "bytes32",
          "name": "requestId",
          "type": "bytes32"
        },
        {
          "indexed": true,
          "internalType": "address",
          "name": "originalAsset",
          "type": "address"
        },
        {
          "indexed": true,
          "internalType": "address",
          "name": "receiver",
          "type": "address"
        },
        {
          "indexed": false,
          "internalType": "uint256",
          "name": "amount",
          "type": "uint256"
        },
        {
          "indexed": false,
          "internalType": "uint256",
          "name": "tokenId",
          "type": "uint256"
        }
      ],
      "name": "AssetUnlocked",
      "type": "event"
    },
    {
      "anonymous": false,
      "inputs": [
        {
          "indexed": true,
          "internalType": "address",
          "name": "previousOwner",
          "type": "address"
        },
        {
          "indexed": true,
          "internalType": "address",
          "name": "newOwner",
          "type": "address"
        }
      ],
      "name": "OwnershipTransferred",
      "type": "event"
    },
    {
      "inputs": [
        {
          "internalType": "address",
          "name": "wrappedAsset",
          "type": "address"
        },
        {
          "internalType": "address",
          "name": "originalAsset",
          "type": "address"
        },
        {
          "internalType": "enum UnlockAndBurnV2.AssetType",
          "name": "assetType",
          "type": "uint8"
        }
      ],
      "name": "addSupportedWrappedAsset",
      "outputs": [],
      "stateMutability": "nonpayable",
      "type": "function"
    },
    {
      "inputs": [
        {
          "internalType": "address",
          "name": "forwarder",
          "type": "address"
        }
      ],
      "name": "addTrustedForwarder",
      "outputs": [],
      "stateMutability": "nonpayable",
      "type": "function"
    },
    {
      "inputs": [
        {
          "internalType": "address",
          "name": "wrappedAsset",
          "type": "address"
        },
        {
          "internalType": "enum UnlockAndBurnV2.AssetType",
          "name": "assetType",
          "type": "uint8"
        },
        {
          "internalType": "uint256",
          "name": "amount",
          "type": "uint256"
        },
        {
          "internalType": "uint256",
          "name": "tokenId",
          "type": "uint256"
        },
        {
          "internalType": "address",
          "name": "targetChainReceiver",
          "type": "address"
        },
        {
          "internalType": "address",
          "name": "originalSender",
          "type": "address"
        }
      ],
      "name": "gaslessUnlockAndBurn",
      "outputs": [],
      "stateMutability": "nonpayable",
      "type": "function"
    },
    {
      "inputs": [],
      "name": "owner",
      "outputs": [
        {
          "internalType": "address",
          "name": "",
          "type": "address"
        }
      ],
      "stateMutability": "view",
      "type": "function"
    },
    {
      "inputs": [
        {
          "internalType": "bytes32",
          "name": "",
          "type": "bytes32"
        }
      ],
      "name": "processedRequests",
      "outputs": [
        {
          "internalType": "bool",
          "name": "",
          "type": "bool"
        }
      ],
      "stateMutability": "view",
      "type": "function"
    },
    {
      "inputs": [],
      "name": "renounceOwnership",
      "outputs": [],
      "stateMutability": "nonpayable",
      "type": "function"
    },
    {
      "inputs": [
        {
          "internalType": "address",
          "name": "",
          "type": "address"
        }
      ],
      "name": "supportedWrappedAssets",
      "outputs": [
        {
          "internalType": "address",
          "name": "wrappedAsset",
          "type": "address"
        },
        {
          "internalType": "address",
          "name": "originalAsset",
          "type": "address"
        },
        {
          "internalType": "enum UnlockAndBurnV2.AssetType",
          "name": "assetType",
          "type": "uint8"
        },
        {
          "internalType": "bool",
          "name": "isSupported",
          "type": "bool"
        }
      ],
      "stateMutability": "view",
      "type": "function"
    },
    {
      "inputs": [
        {
          "internalType": "address",
          "name": "newOwner",
          "type": "address"
        }
      ],
      "name": "transferOwnership",
      "outputs": [],
      "stateMutability": "nonpayable",
      "type": "function"
    },
    {
      "inputs": [
        {
          "internalType": "address",
          "name": "",
          "type": "address"
        }
      ],
      "name": "trustedForwarders",
      "outputs": [
        {
          "internalType": "bool",
          "name": "",
          "type": "bool"
        }
      ],
      "stateMutability": "view",
      "type": "function"
    },
    {
      "inputs": [
        {
          "internalType": "address",
          "name": "wrappedAsset",
          "type": "address"
        },
        {
          "internalType": "enum UnlockAndBurnV2.AssetType",
          "name": "assetType",
          "type": "uint8"
        },
        {
          "internalType": "uint256",
          "name": "amount",
          "type": "uint256"
        },
        {
          "internalType": "uint256",
          "name": "tokenId",
          "type": "uint256"
        },
        {
          "internalType": "address",
          "name": "targetChainReceiver",
          "type": "address"
        }
      ],
      "name": "unlockAndBurn",
      "outputs": [],
      "stateMutability": "nonpayable",
      "type": "function"
    }
  ],
  "bytecode": "0x608060405234801561001057600080fd5b506001600055338061003c57604051631e4fbdf760e01b81526000600482015260240160405180910390fd5b6100458161004b565b5061009d565b600180546001600160a01b038381166001600160a01b0319831681179093556040519116919082907f8be0079c531659141344cd1fd0a4f28419497f9722a3daafe3b4186f6b6457e090600090a35050565b610fdf806100ac6000396000f3fe608060405234801561001057600080fd5b506004361061009e5760003560e01c80638da5cb5b116100665780638da5cb5b1461011e5780638f682e7314610139578063c7ef8f541461014c578063ce0fa5a9146101a6578063f2fde38b146101c957600080fd5b806326d00668146100a3578063500c82c7146100b857806354776bb9146100cb578063686a381814610103578063715018a614610116575b600080fd5b6100b66100b1366004610d66565b6101dc565b005b6100b66100c6366004610d97565b610208565b6100ee6100d9366004610d66565b60046020526000908152604090205460ff1681565b60405190151581526020015b60405180910390f35b6100b6610111366004610dee565b610696565b6100b66107e6565b6001546040516001600160a01b0390911681526020016100fa565b6100b6610147366004610e31565b6107fa565b61019661015a366004610d66565b600360205260009081526040902080546001909101546001600160a01b039182169181169060ff600160a01b8204811691600160a81b90041684565b6040516100fa9493929190610ead565b6100ee6101b4366004610efa565b60026020526000908152604090205460ff1681565b6100b66101d7366004610d66565b610c8d565b6101e4610ccb565b6001600160a01b03166000908152600460205260409020805460ff19166001179055565b60026000540361025f5760405162461bcd60e51b815260206004820152601f60248201527f5265656e7472616e637947756172643a207265656e7472616e742063616c6c0060448201526064015b60405180910390fd5b600260009081556001600160a01b038616815260036020526040902060010154600160a81b900460ff166102cb5760405162461bcd60e51b8152602060048201526013602482015272105cdcd95d081b9bdd081cdd5c1c1bdc9d1959606a1b6044820152606401610256565b6001600160a01b0381166103145760405162461bcd60e51b815260206004820152601060248201526f24b73b30b634b2103932b1b2b4bb32b960811b6044820152606401610256565b6000858533848787426040516020016103339796959493929190610f13565b60408051601f1981840301815291815281516020928301206000818152600290935291205490915060ff16156103a75760405162461bcd60e51b815260206004820152601960248201527814995c5d595cdd08185b1c9958591e481c1c9bd8d95cdcd959603a1b6044820152606401610256565b60008560018111156103bb576103bb610e97565b036104255760405163079cc67960e41b8152336004820152602481018590526001600160a01b038716906379cc679090604401600060405180830381600087803b15801561040857600080fd5b505af115801561041c573d6000803e3d6000fd5b5050505061046f565b831561046f5760405162461bcd60e51b8152602060048201526019602482015278496e76616c696420616d6f756e7420666f722045524337323160381b6044820152606401610256565b60008181526002602052604090819020805460ff191660011790555133906001600160a01b0388169083907fa929f659604f1900ebd9e7796d24bccb8cc2d0a7f97a06631c7224288806c3d3906104d29089908990918252602082015260400190565b60405180910390a46001600160a01b038087166000908152600360205260408120600101549091169086600181111561050d5761050d610e97565b036105c85760405163a9059cbb60e01b81526001600160a01b0384811660048301526024820187905282169063a9059cbb906044016020604051808303816000875af1158015610561573d6000803e3d6000fd5b505050506040513d601f19601f820116820180604052508101906105859190610f87565b6105c35760405162461bcd60e51b815260206004820152600f60248201526e151c985b9cd9995c8819985a5b1959608a1b6044820152606401610256565b610631565b6040516323b872dd60e01b81523060048201526001600160a01b038481166024830152604482018690528216906323b872dd90606401600060405180830381600087803b15801561061857600080fd5b505af115801561062c573d6000803e3d6000fd5b505050505b826001600160a01b0316816001600160a01b0316837fe1bd86389d7468af7575ee867ae809919d13a3ae4a7bc8b3f95a748dd1b8ce1f8888604051610680929190918252602082015260400190565b60405180910390a4505060016000555050505050565b61069e610ccb565b6001600160a01b038316158015906106be57506001600160a01b03821615155b6106fe5760405162461bcd60e51b8152602060048201526011602482015270496e76616c69642061646472657373657360781b6044820152606401610256565b6040518060800160405280846001600160a01b03168152602001836001600160a01b0316815260200182600181111561073957610739610e97565b8152600160209182018190526001600160a01b03808716600090815260038452604090819020855181549084166001600160a01b0319918216178255948601518185018054919094169581168617845591860151909490936001600160a81b03199092161790600160a01b9084908111156107b6576107b6610e97565b02179055506060919091015160019091018054911515600160a81b0260ff60a81b19909216919091179055505050565b6107ee610ccb565b6107f86000610cf8565b565b3360009081526004602052604090205460ff166108595760405162461bcd60e51b815260206004820152601760248201527f4e6f742061207472757374656420666f727761726465720000000000000000006044820152606401610256565b6001600160a01b038616600090815260036020526040902060010154600160a81b900460ff166108c15760405162461bcd60e51b8152602060048201526013602482015272105cdcd95d081b9bdd081cdd5c1c1bdc9d1959606a1b6044820152606401610256565b6001600160a01b03821661090a5760405162461bcd60e51b815260206004820152601060248201526f24b73b30b634b2103932b1b2b4bb32b960811b6044820152606401610256565b6000868683858888426040516020016109299796959493929190610f13565b60408051601f1981840301815291815281516020928301206000818152600290935291205490915060ff161561099d5760405162461bcd60e51b815260206004820152601960248201527814995c5d595cdd08185b1c9958591e481c1c9bd8d95cdcd959603a1b6044820152606401610256565b60008660018111156109b1576109b1610e97565b03610a1d5760405163079cc67960e41b81526001600160a01b038381166004830152602482018790528816906379cc679090604401600060405180830381600087803b158015610a0057600080fd5b505af1158015610a14573d6000803e3d6000fd5b50505050610a67565b8415610a675760405162461bcd60e51b8152602060048201526019602482015278496e76616c696420616d6f756e7420666f722045524337323160381b6044820152606401610256565b60008181526002602052604090819020805460ff19166001179055516001600160a01b03808416919089169083907fa929f659604f1900ebd9e7796d24bccb8cc2d0a7f97a06631c7224288806c3d390610acd908a908a90918252602082015260400190565b60405180910390a46001600160a01b0380881660009081526003602052604081206001015490911690876001811115610b0857610b08610e97565b03610bc35760405163a9059cbb60e01b81526001600160a01b0385811660048301526024820188905282169063a9059cbb906044016020604051808303816000875af1158015610b5c573d6000803e3d6000fd5b505050506040513d601f19601f82011682018060405250810190610b809190610f87565b610bbe5760405162461bcd60e51b815260206004820152600f60248201526e151c985b9cd9995c8819985a5b1959608a1b6044820152606401610256565b610c2c565b6040516323b872dd60e01b81523060048201526001600160a01b038581166024830152604482018790528216906323b872dd90606401600060405180830381600087803b158015610c1357600080fd5b505af1158015610c27573d6000803e3d6000fd5b505050505b836001600160a01b0316816001600160a01b0316837fe1bd86389d7468af7575ee867ae809919d13a3ae4a7bc8b3f95a748dd1b8ce1f8989604051610c7b929190918252602082015260400190565b60405180910390a45050505050505050565b610c95610ccb565b6001600160a01b038116610cbf57604051631e4fbdf760e01b815260006004820152602401610256565b610cc881610cf8565b50565b6001546001600160a01b031633146107f85760405163118cdaa760e01b8152336004820152602401610256565b600180546001600160a01b038381166001600160a01b0319831681179093556040519116919082907f8be0079c531659141344cd1fd0a4f28419497f9722a3daafe3b4186f6b6457e090600090a35050565b80356001600160a01b0381168114610d6157600080fd5b919050565b600060208284031215610d7857600080fd5b610d8182610d4a565b9392505050565b803560028110610d6157600080fd5b600080600080600060a08688031215610daf57600080fd5b610db886610d4a565b9450610dc660208701610d88565b93506040860135925060608601359150610de260808701610d4a565b90509295509295909350565b600080600060608486031215610e0357600080fd5b610e0c84610d4a565b9250610e1a60208501610d4a565b9150610e2860408501610d88565b90509250925092565b60008060008060008060c08789031215610e4a57600080fd5b610e5387610d4a565b9550610e6160208801610d88565b94506040870135935060608701359250610e7d60808801610d4a565b9150610e8b60a08801610d4a565b90509295509295509295565b634e487b7160e01b600052602160045260246000fd5b6001600160a01b038581168252841660208201526080810160028410610ee357634e487b7160e01b600052602160045260246000fd5b836040830152821515606083015295945050505050565b600060208284031215610f0c57600080fd5b5035919050565b60006bffffffffffffffffffffffff19808a60601b16835260028910610f4957634e487b7160e01b600052602160045260246000fd5b60f89890981b601483015250606095861b871660158201529390941b9094166029830152603d820152605d810192909252607d820152609d01919050565b600060208284031215610f9957600080fd5b81518015158114610d8157600080fdfea264697066735822122017e2f7dbf50da8d8db6b19fecac0b81eb7e5e152d19ce2cf83f3ff53e2e93f9764736f6c63430008180033",
  "linkReferences": {},
  "deployedLinkReferences": {}
}