{
  "_format": "hh-sol-artifact-1",
  "contractName": "CrCoToken",
  "sourceName": "contracts/CrCoToken.sol",
  "abi": [
    {
      "inputs": [],
      "stateMutability": "nonpayable",
      "type": "constructor"
    },
    {
      "anonymous": false,
      "inputs": [
        {
          "indexed": true,
          "internalType": "address",
          "name": "owner",
          "type": "address"
        },
        {
          "indexed": true,
          "internalType": "address",
          "name": "spender",
          "type": "address"
        },
        {
          "indexed": false,
          "internalType": "uint256",
          "name": "value",
          "type": "uint256"
        }
      ],
      "name": "Approval",
      "type": "event"
    },
    {
      "anonymous": false,
      "inputs": [
        {
          "indexed": true,
          "internalType": "bytes32",
          "name": "role",
          "type": "bytes32"
        },
        {
          "indexed": true,
          "internalType": "bytes32",
          "name": "previousAdminRole",
          "type": "bytes32"
        },
        {
          "indexed": true,
          "internalType": "bytes32",
          "name": "newAdminRole",
          "type": "bytes32"
        }
      ],
      "name": "RoleAdminChanged",
      "type": "event"
    },
    {
      "anonymous": false,
      "inputs": [
        {
          "indexed": true,
          "internalType": "bytes32",
          "name": "role",
          "type": "bytes32"
        },
        {
          "indexed": true,
          "internalType": "address",
          "name": "account",
          "type": "address"
        },
        {
          "indexed": true,
          "internalType": "address",
          "name": "sender",
          "type": "address"
        }
      ],
      "name": "RoleGranted",
      "type": "event"
    },
    {
      "anonymous": false,
      "inputs": [
        {
          "indexed": true,
          "internalType": "bytes32",
          "name": "role",
          "type": "bytes32"
        },
        {
          "indexed": true,
          "internalType": "address",
          "name": "account",
          "type": "address"
        },
        {
          "indexed": true,
          "internalType": "address",
          "name": "sender",
          "type": "address"
        }
      ],
      "name": "RoleRevoked",
      "type": "event"
    },
    {
      "anonymous": false,
      "inputs": [
        {
          "indexed": true,
          "internalType": "address",
          "name": "from",
          "type": "address"
        },
        {
          "indexed": true,
          "internalType": "address",
          "name": "to",
          "type": "address"
        },
        {
          "indexed": false,
          "internalType": "uint256",
          "name": "value",
          "type": "uint256"
        }
      ],
      "name": "Transfer",
      "type": "event"
    },
    {
      "inputs": [],
      "name": "BURNER_ROLE",
      "outputs": [
        {
          "internalType": "bytes32",
          "name": "",
          "type": "bytes32"
        }
      ],
      "stateMutability": "view",
      "type": "function"
    },
    {
      "inputs": [],
      "name": "DEFAULT_ADMIN_ROLE",
      "outputs": [
        {
          "internalType": "bytes32",
          "name": "",
          "type": "bytes32"
        }
      ],
      "stateMutability": "view",
      "type": "function"
    },
    {
      "inputs": [],
      "name": "MINTER_ROLE",
      "outputs": [
        {
          "internalType": "bytes32",
          "name": "",
          "type": "bytes32"
        }
      ],
      "stateMutability": "view",
      "type": "function"
    },
    {
      "inputs": [
        {
          "internalType": "address",
          "name": "owner",
          "type": "address"
        },
        {
          "internalType": "address",
          "name": "spender",
          "type": "address"
        }
      ],
      "name": "allowance",
      "outputs": [
        {
          "internalType": "uint256",
          "name": "",
          "type": "uint256"
        }
      ],
      "stateMutability": "view",
      "type": "function"
    },
    {
      "inputs": [
        {
          "internalType": "address",
          "name": "spender",
          "type": "address"
        },
        {
          "internalType": "uint256",
          "name": "amount",
          "type": "uint256"
        }
      ],
      "name": "approve",
      "outputs": [
        {
          "internalType": "bool",
          "name": "",
          "type": "bool"
        }
      ],
      "stateMutability": "nonpayable",
      "type": "function"
    },
    {
      "inputs": [
        {
          "internalType": "address",
          "name": "account",
          "type": "address"
        }
      ],
      "name": "balanceOf",
      "outputs": [
        {
          "internalType": "uint256",
          "name": "",
          "type": "uint256"
        }
      ],
      "stateMutability": "view",
      "type": "function"
    },
    {
      "inputs": [
        {
          "internalType": "address",
          "name": "from",
          "type": "address"
        },
        {
          "internalType": "uint256",
          "name": "amount",
          "type": "uint256"
        }
      ],
      "name": "burn",
      "outputs": [],
      "stateMutability": "nonpayable",
      "type": "function"
    },
    {
      "inputs": [],
      "name": "decimals",
      "outputs": [
        {
          "internalType": "uint8",
          "name": "",
          "type": "uint8"
        }
      ],
      "stateMutability": "view",
      "type": "function"
    },
    {
      "inputs": [
        {
          "internalType": "address",
          "name": "spender",
          "type": "address"
        },
        {
          "internalType": "uint256",
          "name": "subtractedValue",
          "type": "uint256"
        }
      ],
      "name": "decreaseAllowance",
      "outputs": [
        {
          "internalType": "bool",
          "name": "",
          "type": "bool"
        }
      ],
      "stateMutability": "nonpayable",
      "type": "function"
    },
    {
      "inputs": [
        {
          "internalType": "bytes32",
          "name": "role",
          "type": "bytes32"
        }
      ],
      "name": "getRoleAdmin",
      "outputs": [
        {
          "internalType": "bytes32",
          "name": "",
          "type": "bytes32"
        }
      ],
      "stateMutability": "view",
      "type": "function"
    },
    {
      "inputs": [
        {
          "internalType": "bytes32",
          "name": "role",
          "type": "bytes32"
        },
        {
          "internalType": "address",
          "name": "account",
          "type": "address"
        }
      ],
      "name": "grantRole",
      "outputs": [],
      "stateMutability": "nonpayable",
      "type": "function"
    },
    {
      "inputs": [
        {
          "internalType": "bytes32",
          "name": "role",
          "type": "bytes32"
        },
        {
          "internalType": "address",
          "name": "account",
          "type": "address"
        }
      ],
      "name": "hasRole",
      "outputs": [
        {
          "internalType": "bool",
          "name": "",
          "type": "bool"
        }
      ],
      "stateMutability": "view",
      "type": "function"
    },
    {
      "inputs": [
        {
          "internalType": "address",
          "name": "spender",
          "type": "address"
        },
        {
          "internalType": "uint256",
          "name": "addedValue",
          "type": "uint256"
        }
      ],
      "name": "increaseAllowance",
      "outputs": [
        {
          "internalType": "bool",
          "name": "",
          "type": "bool"
        }
      ],
      "stateMutability": "nonpayable",
      "type": "function"
    },
    {
      "inputs": [
        {
          "internalType": "address",
          "name": "to",
          "type": "address"
        },
        {
          "internalType": "uint256",
          "name": "amount",
          "type": "uint256"
        }
      ],
      "name": "mint",
      "outputs": [],
      "stateMutability": "nonpayable",
      "type": "function"
    },
    {
      "inputs": [],
      "name": "name",
      "outputs": [
        {
          "internalType": "string",
          "name": "",
          "type": "string"
        }
      ],
      "stateMutability": "view",
      "type": "function"
    },
    {
      "inputs": [
        {
          "internalType": "bytes32",
          "name": "role",
          "type": "bytes32"
        },
        {
          "internalType": "address",
          "name": "account",
          "type": "address"
        }
      ],
      "name": "renounceRole",
      "outputs": [],
      "stateMutability": "nonpayable",
      "type": "function"
    },
    {
      "inputs": [
        {
          "internalType": "bytes32",
          "name": "role",
          "type": "bytes32"
        },
        {
          "internalType": "address",
          "name": "account",
          "type": "address"
        }
      ],
      "name": "revokeRole",
      "outputs": [],
      "stateMutability": "nonpayable",
      "type": "function"
    },
    {
      "inputs": [
        {
          "internalType": "bytes4",
          "name": "interfaceId",
          "type": "bytes4"
        }
      ],
      "name": "supportsInterface",
      "outputs": [
        {
          "internalType": "bool",
          "name": "",
          "type": "bool"
        }
      ],
      "stateMutability": "view",
      "type": "function"
    },
    {
      "inputs": [],
      "name": "symbol",
      "outputs": [
        {
          "internalType": "string",
          "name": "",
          "type": "string"
        }
      ],
      "stateMutability": "view",
      "type": "function"
    },
    {
      "inputs": [],
      "name": "totalSupply",
      "outputs": [
        {
          "internalType": "uint256",
          "name": "",
          "type": "uint256"
        }
      ],
      "stateMutability": "view",
      "type": "function"
    },
    {
      "inputs": [
        {
          "internalType": "address",
          "name": "to",
          "type": "address"
        },
        {
          "internalType": "uint256",
          "name": "amount",
          "type": "uint256"
        }
      ],
      "name": "transfer",
      "outputs": [
        {
          "internalType": "bool",
          "name": "",
          "type": "bool"
        }
      ],
      "stateMutability": "nonpayable",
      "type": "function"
    },
    {
      "inputs": [
        {
          "internalType": "address",
          "name": "from",
          "type": "address"
        },
        {
          "internalType": "address",
          "name": "to",
          "type": "address"
        },
        {
          "internalType": "uint256",
          "name": "amount",
          "type": "uint256"
        }
      ],
      "name": "transferFrom",
      "outputs": [
        {
          "internalType": "bool",
          "name": "",
          "type": "bool"
        }
      ],
      "stateMutability": "nonpayable",
      "type": "function"
    }
  ],
  "bytecode": "0x60806040523480156200001157600080fd5b506040518060400160405280600a81526020017f4372436f20546f6b656e000000000000000000000000000000000000000000008152506040518060400160405280600481526020017f4352434f0000000000000000000000000000000000000000000000000000000081525081600390816200008f91906200050a565b508060049081620000a191906200050a565b5050506001600681905550620000c16000801b336200012b60201b60201c565b620000f37f9f2df0fed2c77648de5860a4cc508cd0818c85b8b8a1ab4ceeef8d981c8956a6336200012b60201b60201c565b620001257f3c11d16cbaffd01df69ce1c404f6340ee057498f5f00246190ea54220576a848336200012b60201b60201c565b620005f1565b6200013d82826200021d60201b60201c565b620002195760016005600084815260200190815260200160002060000160008373ffffffffffffffffffffffffffffffffffffffff1673ffffffffffffffffffffffffffffffffffffffff16815260200190815260200160002060006101000a81548160ff021916908315150217905550620001be6200028860201b60201c565b73ffffffffffffffffffffffffffffffffffffffff168173ffffffffffffffffffffffffffffffffffffffff16837f2f8788117e7eff1d82e926ec794901d17c78024a50270940304540a733656f0d60405160405180910390a45b5050565b60006005600084815260200190815260200160002060000160008373ffffffffffffffffffffffffffffffffffffffff1673ffffffffffffffffffffffffffffffffffffffff16815260200190815260200160002060009054906101000a900460ff16905092915050565b600033905090565b600081519050919050565b7f4e487b7100000000000000000000000000000000000000000000000000000000600052604160045260246000fd5b7f4e487b7100000000000000000000000000000000000000000000000000000000600052602260045260246000fd5b600060028204905060018216806200031257607f821691505b602082108103620003285762000327620002ca565b5b50919050565b60008190508160005260206000209050919050565b60006020601f8301049050919050565b600082821b905092915050565b600060088302620003927fffffffffffffffffffffffffffffffffffffffffffffffffffffffffffffffff8262000353565b6200039e868362000353565b95508019841693508086168417925050509392505050565b6000819050919050565b6000819050919050565b6000620003eb620003e5620003df84620003b6565b620003c0565b620003b6565b9050919050565b6000819050919050565b6200040783620003ca565b6200041f6200041682620003f2565b84845462000360565b825550505050565b600090565b6200043662000427565b62000443818484620003fc565b505050565b5b818110156200046b576200045f6000826200042c565b60018101905062000449565b5050565b601f821115620004ba5762000484816200032e565b6200048f8462000343565b810160208510156200049f578190505b620004b7620004ae8562000343565b83018262000448565b50505b505050565b600082821c905092915050565b6000620004df60001984600802620004bf565b1980831691505092915050565b6000620004fa8383620004cc565b9150826002028217905092915050565b620005158262000290565b67ffffffffffffffff8111156200053157620005306200029b565b5b6200053d8254620002f9565b6200054a8282856200046f565b600060209050601f8311600181146200058257600084156200056d578287015190505b620005798582620004ec565b865550620005e9565b601f19841662000592866200032e565b60005b82811015620005bc5784890151825560018201915060208501945060208101905062000595565b86831015620005dc5784890151620005d8601f891682620004cc565b8355505b6001600288020188555050505b505050505050565b6124d280620006016000396000f3fe608060405234801561001057600080fd5b50600436106101425760003560e01c806340c10f19116100b8578063a217fddf1161007c578063a217fddf1461039d578063a457c2d7146103bb578063a9059cbb146103eb578063d53913931461041b578063d547741f14610439578063dd62ed3e1461045557610142565b806340c10f19146102e757806370a082311461030357806391d148541461033357806395d89b41146103635780639dc29fac1461038157610142565b8063248a9ca31161010a578063248a9ca314610213578063282c51f3146102435780632f2ff15d14610261578063313ce5671461027d57806336568abe1461029b57806339509351146102b757610142565b806301ffc9a71461014757806306fdde0314610177578063095ea7b31461019557806318160ddd146101c557806323b872dd146101e3575b600080fd5b610161600480360381019061015c91906117c5565b610485565b60405161016e919061180d565b60405180910390f35b61017f6104ff565b60405161018c91906118b8565b60405180910390f35b6101af60048036038101906101aa919061196e565b610591565b6040516101bc919061180d565b60405180910390f35b6101cd6105b4565b6040516101da91906119bd565b60405180910390f35b6101fd60048036038101906101f891906119d8565b6105be565b60405161020a919061180d565b60405180910390f35b61022d60048036038101906102289190611a61565b6105ed565b60405161023a9190611a9d565b60405180910390f35b61024b61060d565b6040516102589190611a9d565b60405180910390f35b61027b60048036038101906102769190611ab8565b610631565b005b610285610652565b6040516102929190611b14565b60405180910390f35b6102b560048036038101906102b09190611ab8565b61065b565b005b6102d160048036038101906102cc919061196e565b6106de565b6040516102de919061180d565b60405180910390f35b61030160048036038101906102fc919061196e565b610715565b005b61031d60048036038101906103189190611b2f565b61074e565b60405161032a91906119bd565b60405180910390f35b61034d60048036038101906103489190611ab8565b610796565b60405161035a919061180d565b60405180910390f35b61036b610801565b60405161037891906118b8565b60405180910390f35b61039b6004803603810190610396919061196e565b610893565b005b6103a56108cc565b6040516103b29190611a9d565b60405180910390f35b6103d560048036038101906103d0919061196e565b6108d3565b6040516103e2919061180d565b60405180910390f35b6104056004803603810190610400919061196e565b61094a565b604051610412919061180d565b60405180910390f35b61042361096d565b6040516104309190611a9d565b60405180910390f35b610453600480360381019061044e9190611ab8565b610991565b005b61046f600480360381019061046a9190611b5c565b6109b2565b60405161047c91906119bd565b60405180910390f35b60007f7965db0b000000000000000000000000000000000000000000000000000000007bffffffffffffffffffffffffffffffffffffffffffffffffffffffff1916827bffffffffffffffffffffffffffffffffffffffffffffffffffffffff191614806104f857506104f782610a39565b5b9050919050565b60606003805461050e90611bcb565b80601f016020809104026020016040519081016040528092919081815260200182805461053a90611bcb565b80156105875780601f1061055c57610100808354040283529160200191610587565b820191906000526020600020905b81548152906001019060200180831161056a57829003601f168201915b5050505050905090565b60008061059c610aa3565b90506105a9818585610aab565b600191505092915050565b6000600254905090565b6000806105c9610aa3565b90506105d6858285610c74565b6105e1858585610d00565b60019150509392505050565b600060056000838152602001908152602001600020600101549050919050565b7f3c11d16cbaffd01df69ce1c404f6340ee057498f5f00246190ea54220576a84881565b61063a826105ed565b61064381610f76565b61064d8383610f8a565b505050565b60006012905090565b610663610aa3565b73ffffffffffffffffffffffffffffffffffffffff168173ffffffffffffffffffffffffffffffffffffffff16146106d0576040517f08c379a00000000000000000000000000000000000000000000000000000000081526004016106c790611c6e565b60405180910390fd5b6106da828261106b565b5050565b6000806106e9610aa3565b905061070a8185856106fb85896109b2565b6107059190611cbd565b610aab565b600191505092915050565b7f9f2df0fed2c77648de5860a4cc508cd0818c85b8b8a1ab4ceeef8d981c8956a661073f81610f76565b610749838361114d565b505050565b60008060008373ffffffffffffffffffffffffffffffffffffffff1673ffffffffffffffffffffffffffffffffffffffff168152602001908152602001600020549050919050565b60006005600084815260200190815260200160002060000160008373ffffffffffffffffffffffffffffffffffffffff1673ffffffffffffffffffffffffffffffffffffffff16815260200190815260200160002060009054906101000a900460ff16905092915050565b60606004805461081090611bcb565b80601f016020809104026020016040519081016040528092919081815260200182805461083c90611bcb565b80156108895780601f1061085e57610100808354040283529160200191610889565b820191906000526020600020905b81548152906001019060200180831161086c57829003601f168201915b5050505050905090565b7f3c11d16cbaffd01df69ce1c404f6340ee057498f5f00246190ea54220576a8486108bd81610f76565b6108c783836112a3565b505050565b6000801b81565b6000806108de610aa3565b905060006108ec82866109b2565b905083811015610931576040517f08c379a000000000000000000000000000000000000000000000000000000000815260040161092890611d63565b60405180910390fd5b61093e8286868403610aab565b60019250505092915050565b600080610955610aa3565b9050610962818585610d00565b600191505092915050565b7f9f2df0fed2c77648de5860a4cc508cd0818c85b8b8a1ab4ceeef8d981c8956a681565b61099a826105ed565b6109a381610f76565b6109ad838361106b565b505050565b6000600160008473ffffffffffffffffffffffffffffffffffffffff1673ffffffffffffffffffffffffffffffffffffffff16815260200190815260200160002060008373ffffffffffffffffffffffffffffffffffffffff1673ffffffffffffffffffffffffffffffffffffffff16815260200190815260200160002054905092915050565b60007f01ffc9a7000000000000000000000000000000000000000000000000000000007bffffffffffffffffffffffffffffffffffffffffffffffffffffffff1916827bffffffffffffffffffffffffffffffffffffffffffffffffffffffff1916149050919050565b600033905090565b600073ffffffffffffffffffffffffffffffffffffffff168373ffffffffffffffffffffffffffffffffffffffff1603610b1a576040517f08c379a0000000000000000000000000000000000000000000000000000000008152600401610b1190611df5565b60405180910390fd5b600073ffffffffffffffffffffffffffffffffffffffff168273ffffffffffffffffffffffffffffffffffffffff1603610b89576040517f08c379a0000000000000000000000000000000000000000000000000000000008152600401610b8090611e87565b60405180910390fd5b80600160008573ffffffffffffffffffffffffffffffffffffffff1673ffffffffffffffffffffffffffffffffffffffff16815260200190815260200160002060008473ffffffffffffffffffffffffffffffffffffffff1673ffffffffffffffffffffffffffffffffffffffff168152602001908152602001600020819055508173ffffffffffffffffffffffffffffffffffffffff168373ffffffffffffffffffffffffffffffffffffffff167f8c5be1e5ebec7d5bd14f71427d1e84f3dd0314c0f7b2291e5b200ac8c7c3b92583604051610c6791906119bd565b60405180910390a3505050565b6000610c8084846109b2565b90507fffffffffffffffffffffffffffffffffffffffffffffffffffffffffffffffff8114610cfa5781811015610cec576040517f08c379a0000000000000000000000000000000000000000000000000000000008152600401610ce390611ef3565b60405180910390fd5b610cf98484848403610aab565b5b50505050565b600073ffffffffffffffffffffffffffffffffffffffff168373ffffffffffffffffffffffffffffffffffffffff1603610d6f576040517f08c379a0000000000000000000000000000000000000000000000000000000008152600401610d6690611f85565b60405180910390fd5b600073ffffffffffffffffffffffffffffffffffffffff168273ffffffffffffffffffffffffffffffffffffffff1603610dde576040517f08c379a0000000000000000000000000000000000000000000000000000000008152600401610dd590612017565b60405180910390fd5b610de9838383611470565b60008060008573ffffffffffffffffffffffffffffffffffffffff1673ffffffffffffffffffffffffffffffffffffffff16815260200190815260200160002054905081811015610e6f576040517f08c379a0000000000000000000000000000000000000000000000000000000008152600401610e66906120a9565b60405180910390fd5b8181036000808673ffffffffffffffffffffffffffffffffffffffff1673ffffffffffffffffffffffffffffffffffffffff16815260200190815260200160002081905550816000808573ffffffffffffffffffffffffffffffffffffffff1673ffffffffffffffffffffffffffffffffffffffff168152602001908152602001600020600082825401925050819055508273ffffffffffffffffffffffffffffffffffffffff168473ffffffffffffffffffffffffffffffffffffffff167fddf252ad1be2c89b69c2b068fc378daa952ba7f163c4a11628f55a4df523b3ef84604051610f5d91906119bd565b60405180910390a3610f70848484611475565b50505050565b610f8781610f82610aa3565b61147a565b50565b610f948282610796565b6110675760016005600084815260200190815260200160002060000160008373ffffffffffffffffffffffffffffffffffffffff1673ffffffffffffffffffffffffffffffffffffffff16815260200190815260200160002060006101000a81548160ff02191690831515021790555061100c610aa3565b73ffffffffffffffffffffffffffffffffffffffff168173ffffffffffffffffffffffffffffffffffffffff16837f2f8788117e7eff1d82e926ec794901d17c78024a50270940304540a733656f0d60405160405180910390a45b5050565b6110758282610796565b156111495760006005600084815260200190815260200160002060000160008373ffffffffffffffffffffffffffffffffffffffff1673ffffffffffffffffffffffffffffffffffffffff16815260200190815260200160002060006101000a81548160ff0219169083151502179055506110ee610aa3565b73ffffffffffffffffffffffffffffffffffffffff168173ffffffffffffffffffffffffffffffffffffffff16837ff6391f5c32d9c69d2a47ea670b442974b53935d1edc7fd64eb21e047a839171b60405160405180910390a45b5050565b600073ffffffffffffffffffffffffffffffffffffffff168273ffffffffffffffffffffffffffffffffffffffff16036111bc576040517f08c379a00000000000000000000000000000000000000000000000000000000081526004016111b390612115565b60405180910390fd5b6111c860008383611470565b80600260008282546111da9190611cbd565b92505081905550806000808473ffffffffffffffffffffffffffffffffffffffff1673ffffffffffffffffffffffffffffffffffffffff168152602001908152602001600020600082825401925050819055508173ffffffffffffffffffffffffffffffffffffffff16600073ffffffffffffffffffffffffffffffffffffffff167fddf252ad1be2c89b69c2b068fc378daa952ba7f163c4a11628f55a4df523b3ef8360405161128b91906119bd565b60405180910390a361129f60008383611475565b5050565b600073ffffffffffffffffffffffffffffffffffffffff168273ffffffffffffffffffffffffffffffffffffffff1603611312576040517f08c379a0000000000000000000000000000000000000000000000000000000008152600401611309906121a7565b60405180910390fd5b61131e82600083611470565b60008060008473ffffffffffffffffffffffffffffffffffffffff1673ffffffffffffffffffffffffffffffffffffffff168152602001908152602001600020549050818110156113a4576040517f08c379a000000000000000000000000000000000000000000000000000000000815260040161139b90612239565b60405180910390fd5b8181036000808573ffffffffffffffffffffffffffffffffffffffff1673ffffffffffffffffffffffffffffffffffffffff1681526020019081526020016000208190555081600260008282540392505081905550600073ffffffffffffffffffffffffffffffffffffffff168373ffffffffffffffffffffffffffffffffffffffff167fddf252ad1be2c89b69c2b068fc378daa952ba7f163c4a11628f55a4df523b3ef8460405161145791906119bd565b60405180910390a361146b83600084611475565b505050565b505050565b505050565b6114848282610796565b6114fb57611491816114ff565b61149f8360001c602061152c565b6040516020016114b092919061232d565b6040516020818303038152906040526040517f08c379a00000000000000000000000000000000000000000000000000000000081526004016114f291906118b8565b60405180910390fd5b5050565b60606115258273ffffffffffffffffffffffffffffffffffffffff16601460ff1661152c565b9050919050565b60606000600283600261153f9190612367565b6115499190611cbd565b67ffffffffffffffff811115611562576115616123a9565b5b6040519080825280601f01601f1916602001820160405280156115945781602001600182028036833780820191505090505b5090507f3000000000000000000000000000000000000000000000000000000000000000816000815181106115cc576115cb6123d8565b5b60200101907effffffffffffffffffffffffffffffffffffffffffffffffffffffffffffff1916908160001a9053507f7800000000000000000000000000000000000000000000000000000000000000816001815181106116305761162f6123d8565b5b60200101907effffffffffffffffffffffffffffffffffffffffffffffffffffffffffffff1916908160001a905350600060018460026116709190612367565b61167a9190611cbd565b90505b600181111561171a577f3031323334353637383961626364656600000000000000000000000000000000600f8616601081106116bc576116bb6123d8565b5b1a60f81b8282815181106116d3576116d26123d8565b5b60200101907effffffffffffffffffffffffffffffffffffffffffffffffffffffffffffff1916908160001a905350600485901c94508061171390612407565b905061167d565b506000841461175e576040517f08c379a00000000000000000000000000000000000000000000000000000000081526004016117559061247c565b60405180910390fd5b8091505092915050565b600080fd5b60007fffffffff0000000000000000000000000000000000000000000000000000000082169050919050565b6117a28161176d565b81146117ad57600080fd5b50565b6000813590506117bf81611799565b92915050565b6000602082840312156117db576117da611768565b5b60006117e9848285016117b0565b91505092915050565b60008115159050919050565b611807816117f2565b82525050565b600060208201905061182260008301846117fe565b92915050565b600081519050919050565b600082825260208201905092915050565b60005b83811015611862578082015181840152602081019050611847565b60008484015250505050565b6000601f19601f8301169050919050565b600061188a82611828565b6118948185611833565b93506118a4818560208601611844565b6118ad8161186e565b840191505092915050565b600060208201905081810360008301526118d2818461187f565b905092915050565b600073ffffffffffffffffffffffffffffffffffffffff82169050919050565b6000611905826118da565b9050919050565b611915816118fa565b811461192057600080fd5b50565b6000813590506119328161190c565b92915050565b6000819050919050565b61194b81611938565b811461195657600080fd5b50565b60008135905061196881611942565b92915050565b6000806040838503121561198557611984611768565b5b600061199385828601611923565b92505060206119a485828601611959565b9150509250929050565b6119b781611938565b82525050565b60006020820190506119d260008301846119ae565b92915050565b6000806000606084860312156119f1576119f0611768565b5b60006119ff86828701611923565b9350506020611a1086828701611923565b9250506040611a2186828701611959565b9150509250925092565b6000819050919050565b611a3e81611a2b565b8114611a4957600080fd5b50565b600081359050611a5b81611a35565b92915050565b600060208284031215611a7757611a76611768565b5b6000611a8584828501611a4c565b91505092915050565b611a9781611a2b565b82525050565b6000602082019050611ab26000830184611a8e565b92915050565b60008060408385031215611acf57611ace611768565b5b6000611add85828601611a4c565b9250506020611aee85828601611923565b9150509250929050565b600060ff82169050919050565b611b0e81611af8565b82525050565b6000602082019050611b296000830184611b05565b92915050565b600060208284031215611b4557611b44611768565b5b6000611b5384828501611923565b91505092915050565b60008060408385031215611b7357611b72611768565b5b6000611b8185828601611923565b9250506020611b9285828601611923565b9150509250929050565b7f4e487b7100000000000000000000000000000000000000000000000000000000600052602260045260246000fd5b60006002820490506001821680611be357607f821691505b602082108103611bf657611bf5611b9c565b5b50919050565b7f416363657373436f6e74726f6c3a2063616e206f6e6c792072656e6f756e636560008201527f20726f6c657320666f722073656c660000000000000000000000000000000000602082015250565b6000611c58602f83611833565b9150611c6382611bfc565b604082019050919050565b60006020820190508181036000830152611c8781611c4b565b9050919050565b7f4e487b7100000000000000000000000000000000000000000000000000000000600052601160045260246000fd5b6000611cc882611938565b9150611cd383611938565b9250828201905080821115611ceb57611cea611c8e565b5b92915050565b7f45524332303a2064656372656173656420616c6c6f77616e63652062656c6f7760008201527f207a65726f000000000000000000000000000000000000000000000000000000602082015250565b6000611d4d602583611833565b9150611d5882611cf1565b604082019050919050565b60006020820190508181036000830152611d7c81611d40565b9050919050565b7f45524332303a20617070726f76652066726f6d20746865207a65726f2061646460008201527f7265737300000000000000000000000000000000000000000000000000000000602082015250565b6000611ddf602483611833565b9150611dea82611d83565b604082019050919050565b60006020820190508181036000830152611e0e81611dd2565b9050919050565b7f45524332303a20617070726f766520746f20746865207a65726f20616464726560008201527f7373000000000000000000000000000000000000000000000000000000000000602082015250565b6000611e71602283611833565b9150611e7c82611e15565b604082019050919050565b60006020820190508181036000830152611ea081611e64565b9050919050565b7f45524332303a20696e73756666696369656e7420616c6c6f77616e6365000000600082015250565b6000611edd601d83611833565b9150611ee882611ea7565b602082019050919050565b60006020820190508181036000830152611f0c81611ed0565b9050919050565b7f45524332303a207472616e736665722066726f6d20746865207a65726f20616460008201527f6472657373000000000000000000000000000000000000000000000000000000602082015250565b6000611f6f602583611833565b9150611f7a82611f13565b604082019050919050565b60006020820190508181036000830152611f9e81611f62565b9050919050565b7f45524332303a207472616e7366657220746f20746865207a65726f206164647260008201527f6573730000000000000000000000000000000000000000000000000000000000602082015250565b6000612001602383611833565b915061200c82611fa5565b604082019050919050565b6000602082019050818103600083015261203081611ff4565b9050919050565b7f45524332303a207472616e7366657220616d6f756e742065786365656473206260008201527f616c616e63650000000000000000000000000000000000000000000000000000602082015250565b6000612093602683611833565b915061209e82612037565b604082019050919050565b600060208201905081810360008301526120c281612086565b9050919050565b7f45524332303a206d696e7420746f20746865207a65726f206164647265737300600082015250565b60006120ff601f83611833565b915061210a826120c9565b602082019050919050565b6000602082019050818103600083015261212e816120f2565b9050919050565b7f45524332303a206275726e2066726f6d20746865207a65726f2061646472657360008201527f7300000000000000000000000000000000000000000000000000000000000000602082015250565b6000612191602183611833565b915061219c82612135565b604082019050919050565b600060208201905081810360008301526121c081612184565b9050919050565b7f45524332303a206275726e20616d6f756e7420657863656564732062616c616e60008201527f6365000000000000000000000000000000000000000000000000000000000000602082015250565b6000612223602283611833565b915061222e826121c7565b604082019050919050565b6000602082019050818103600083015261225281612216565b9050919050565b600081905092915050565b7f416363657373436f6e74726f6c3a206163636f756e7420000000000000000000600082015250565b600061229a601783612259565b91506122a582612264565b601782019050919050565b60006122bb82611828565b6122c58185612259565b93506122d5818560208601611844565b80840191505092915050565b7f206973206d697373696e6720726f6c6520000000000000000000000000000000600082015250565b6000612317601183612259565b9150612322826122e1565b601182019050919050565b60006123388261228d565b915061234482856122b0565b915061234f8261230a565b915061235b82846122b0565b91508190509392505050565b600061237282611938565b915061237d83611938565b925082820261238b81611938565b915082820484148315176123a2576123a1611c8e565b5b5092915050565b7f4e487b7100000000000000000000000000000000000000000000000000000000600052604160045260246000fd5b7f4e487b7100000000000000000000000000000000000000000000000000000000600052603260045260246000fd5b600061241282611938565b91506000820361242557612424611c8e565b5b600182039050919050565b7f537472696e67733a20686578206c656e67746820696e73756666696369656e74600082015250565b6000612466602083611833565b915061247182612430565b602082019050919050565b6000602082019050818103600083015261249581612459565b905091905056fea2646970667358221220aaa53a471cbcd8732a32afa87c5f37e5211eb9e75b2e606b70ce57335c59f2ad64736f6c63430008130033",
  "linkReferences": {},
  "deployedLinkReferences": {}
}