{
  "_format": "hh-sol-artifact-1",
  "contractName": "UnlockAndBurn",
  "sourceName": "contracts/UnlockAndBurn.sol",
  "abi": [
    {
      "inputs": [],
      "stateMutability": "nonpayable",
      "type": "constructor"
    },
    {
      "inputs": [
        {
          "internalType": "address",
          "name": "owner",
          "type": "address"
        }
      ],
      "name": "OwnableInvalidOwner",
      "type": "error"
    },
    {
      "inputs": [
        {
          "internalType": "address",
          "name": "account",
          "type": "address"
        }
      ],
      "name": "OwnableUnauthorizedAccount",
      "type": "error"
    },
    {
      "anonymous": false,
      "inputs": [
        {
          "indexed": true,
          "internalType": "bytes32",
          "name": "requestId",
          "type": "bytes32"
        },
        {
          "indexed": true,
          "internalType": "address",
          "name": "wrappedAsset",
          "type": "address"
        },
        {
          "indexed": true,
          "internalType": "address",
          "name": "sender",
          "type": "address"
        },
        {
          "indexed": false,
          "internalType": "uint256",
          "name": "amount",
          "type": "uint256"
        },
        {
          "indexed": false,
          "internalType": "uint256",
          "name": "tokenId",
          "type": "uint256"
        }
      ],
      "name": "AssetBurned",
      "type": "event"
    },
    {
      "anonymous": false,
      "inputs": [
        {
          "indexed": true,
          "internalType": "bytes32",
          "name": "requestId",
          "type": "bytes32"
        },
        {
          "indexed": true,
          "internalType": "address",
          "name": "originalAsset",
          "type": "address"
        },
        {
          "indexed": true,
          "internalType": "address",
          "name": "receiver",
          "type": "address"
        },
        {
          "indexed": false,
          "internalType": "uint256",
          "name": "amount",
          "type": "uint256"
        },
        {
          "indexed": false,
          "internalType": "uint256",
          "name": "tokenId",
          "type": "uint256"
        }
      ],
      "name": "AssetUnlocked",
      "type": "event"
    },
    {
      "anonymous": false,
      "inputs": [
        {
          "indexed": true,
          "internalType": "address",
          "name": "previousOwner",
          "type": "address"
        },
        {
          "indexed": true,
          "internalType": "address",
          "name": "newOwner",
          "type": "address"
        }
      ],
      "name": "OwnershipTransferred",
      "type": "event"
    },
    {
      "inputs": [
        {
          "internalType": "address",
          "name": "wrappedAsset",
          "type": "address"
        },
        {
          "internalType": "address",
          "name": "originalAsset",
          "type": "address"
        },
        {
          "internalType": "enum UnlockAndBurn.AssetType",
          "name": "",
          "type": "uint8"
        }
      ],
      "name": "addSupportedWrappedAsset",
      "outputs": [],
      "stateMutability": "nonpayable",
      "type": "function"
    },
    {
      "inputs": [],
      "name": "owner",
      "outputs": [
        {
          "internalType": "address",
          "name": "",
          "type": "address"
        }
      ],
      "stateMutability": "view",
      "type": "function"
    },
    {
      "inputs": [
        {
          "internalType": "bytes32",
          "name": "",
          "type": "bytes32"
        }
      ],
      "name": "processedRequests",
      "outputs": [
        {
          "internalType": "bool",
          "name": "",
          "type": "bool"
        }
      ],
      "stateMutability": "view",
      "type": "function"
    },
    {
      "inputs": [],
      "name": "renounceOwnership",
      "outputs": [],
      "stateMutability": "nonpayable",
      "type": "function"
    },
    {
      "inputs": [
        {
          "internalType": "address",
          "name": "",
          "type": "address"
        }
      ],
      "name": "supportedWrappedAssets",
      "outputs": [
        {
          "internalType": "bool",
          "name": "",
          "type": "bool"
        }
      ],
      "stateMutability": "view",
      "type": "function"
    },
    {
      "inputs": [
        {
          "internalType": "address",
          "name": "newOwner",
          "type": "address"
        }
      ],
      "name": "transferOwnership",
      "outputs": [],
      "stateMutability": "nonpayable",
      "type": "function"
    },
    {
      "inputs": [
        {
          "internalType": "address",
          "name": "wrappedAsset",
          "type": "address"
        },
        {
          "internalType": "enum UnlockAndBurn.AssetType",
          "name": "assetType",
          "type": "uint8"
        },
        {
          "internalType": "uint256",
          "name": "amount",
          "type": "uint256"
        },
        {
          "internalType": "uint256",
          "name": "tokenId",
          "type": "uint256"
        }
      ],
      "name": "unlockAndBurn",
      "outputs": [],
      "stateMutability": "nonpayable",
      "type": "function"
    },
    {
      "inputs": [
        {
          "internalType": "address",
          "name": "",
          "type": "address"
        }
      ],
      "name": "wrappedToOriginal",
      "outputs": [
        {
          "internalType": "address",
          "name": "",
          "type": "address"
        }
      ],
      "stateMutability": "view",
      "type": "function"
    }
  ],
  "bytecode": "0x60806040523480156200001157600080fd5b50336001600081905550600073ffffffffffffffffffffffffffffffffffffffff168173ffffffffffffffffffffffffffffffffffffffff1603620000905760006040517f1e4fbdf7000000000000000000000000000000000000000000000000000000008152600401620000879190620001b3565b60405180910390fd5b620000a181620000a860201b60201c565b50620001d0565b6000600160009054906101000a900473ffffffffffffffffffffffffffffffffffffffff16905081600160006101000a81548173ffffffffffffffffffffffffffffffffffffffff021916908373ffffffffffffffffffffffffffffffffffffffff1602179055508173ffffffffffffffffffffffffffffffffffffffff168173ffffffffffffffffffffffffffffffffffffffff167f8be0079c531659141344cd1fd0a4f28419497f9722a3daafe3b4186f6b6457e060405160405180910390a35050565b600073ffffffffffffffffffffffffffffffffffffffff82169050919050565b60006200019b826200016e565b9050919050565b620001ad816200018e565b82525050565b6000602082019050620001ca6000830184620001a2565b92915050565b61126f80620001e06000396000f3fe608060405234801561001057600080fd5b50600436106100885760003560e01c8063c7ef8f541161005b578063c7ef8f5414610101578063ce0fa5a914610131578063f2fde38b14610161578063f94f16a91461017d57610088565b8063686a38181461008d578063715018a6146100a95780637c0db610146100b35780638da5cb5b146100e3575b600080fd5b6100a760048036038101906100a29190610b58565b610199565b005b6100b1610325565b005b6100cd60048036038101906100c89190610bab565b610339565b6040516100da9190610be7565b60405180910390f35b6100eb61036c565b6040516100f89190610be7565b60405180910390f35b61011b60048036038101906101169190610bab565b610396565b6040516101289190610c1d565b60405180910390f35b61014b60048036038101906101469190610c6e565b6103b6565b6040516101589190610c1d565b60405180910390f35b61017b60048036038101906101769190610bab565b6103d6565b005b61019760048036038101906101929190610cd1565b61045c565b005b6101a161097b565b600073ffffffffffffffffffffffffffffffffffffffff168373ffffffffffffffffffffffffffffffffffffffff161415801561020b5750600073ffffffffffffffffffffffffffffffffffffffff168273ffffffffffffffffffffffffffffffffffffffff1614155b61024a576040517f08c379a000000000000000000000000000000000000000000000000000000000815260040161024190610d95565b60405180910390fd5b6001600460008573ffffffffffffffffffffffffffffffffffffffff1673ffffffffffffffffffffffffffffffffffffffff16815260200190815260200160002060006101000a81548160ff02191690831515021790555081600360008573ffffffffffffffffffffffffffffffffffffffff1673ffffffffffffffffffffffffffffffffffffffff16815260200190815260200160002060006101000a81548173ffffffffffffffffffffffffffffffffffffffff021916908373ffffffffffffffffffffffffffffffffffffffff160217905550505050565b61032d61097b565b6103376000610a02565b565b60036020528060005260406000206000915054906101000a900473ffffffffffffffffffffffffffffffffffffffff1681565b6000600160009054906101000a900473ffffffffffffffffffffffffffffffffffffffff16905090565b60046020528060005260406000206000915054906101000a900460ff1681565b60026020528060005260406000206000915054906101000a900460ff1681565b6103de61097b565b600073ffffffffffffffffffffffffffffffffffffffff168173ffffffffffffffffffffffffffffffffffffffff16036104505760006040517f1e4fbdf70000000000000000000000000000000000000000000000000000000081526004016104479190610be7565b60405180910390fd5b61045981610a02565b50565b6002600054036104a1576040517f08c379a000000000000000000000000000000000000000000000000000000000815260040161049890610e01565b60405180910390fd5b6002600081905550600460008573ffffffffffffffffffffffffffffffffffffffff1673ffffffffffffffffffffffffffffffffffffffff16815260200190815260200160002060009054906101000a900460ff16610535576040517f08c379a000000000000000000000000000000000000000000000000000000000815260040161052c90610e6d565b60405180910390fd5b600084843385854260405160200161055296959493929190610f94565b6040516020818303038152906040528051906020012090506002600082815260200190815260200160002060009054906101000a900460ff16156105cb576040517f08c379a00000000000000000000000000000000000000000000000000000000081526004016105c290611050565b60405180910390fd5b600060018111156105df576105de610ed5565b5b8460018111156105f2576105f1610ed5565b5b03610669578473ffffffffffffffffffffffffffffffffffffffff166379cc679033856040518363ffffffff1660e01b815260040161063292919061107f565b600060405180830381600087803b15801561064c57600080fd5b505af1158015610660573d6000803e3d6000fd5b505050506106ad565b600083146106ac576040517f08c379a00000000000000000000000000000000000000000000000000000000081526004016106a3906110f4565b60405180910390fd5b5b60016002600083815260200190815260200160002060006101000a81548160ff0219169083151502179055503373ffffffffffffffffffffffffffffffffffffffff168573ffffffffffffffffffffffffffffffffffffffff16827fa929f659604f1900ebd9e7796d24bccb8cc2d0a7f97a06631c7224288806c3d38686604051610739929190611114565b60405180910390a46000600360008773ffffffffffffffffffffffffffffffffffffffff1673ffffffffffffffffffffffffffffffffffffffff16815260200190815260200160002060009054906101000a900473ffffffffffffffffffffffffffffffffffffffff169050600060018111156107b9576107b8610ed5565b5b8560018111156107cc576107cb610ed5565b5b03610893578073ffffffffffffffffffffffffffffffffffffffff1663a9059cbb33866040518363ffffffff1660e01b815260040161080c92919061107f565b6020604051808303816000875af115801561082b573d6000803e3d6000fd5b505050506040513d601f19601f8201168201806040525081019061084f9190611169565b61088e576040517f08c379a0000000000000000000000000000000000000000000000000000000008152600401610885906111e2565b60405180910390fd5b610903565b8073ffffffffffffffffffffffffffffffffffffffff166323b872dd3033866040518463ffffffff1660e01b81526004016108d093929190611202565b600060405180830381600087803b1580156108ea57600080fd5b505af11580156108fe573d6000803e3d6000fd5b505050505b3373ffffffffffffffffffffffffffffffffffffffff168173ffffffffffffffffffffffffffffffffffffffff16837fe1bd86389d7468af7575ee867ae809919d13a3ae4a7bc8b3f95a748dd1b8ce1f8787604051610963929190611114565b60405180910390a45050600160008190555050505050565b610983610ac8565b73ffffffffffffffffffffffffffffffffffffffff166109a161036c565b73ffffffffffffffffffffffffffffffffffffffff1614610a00576109c4610ac8565b6040517f118cdaa70000000000000000000000000000000000000000000000000000000081526004016109f79190610be7565b60405180910390fd5b565b6000600160009054906101000a900473ffffffffffffffffffffffffffffffffffffffff16905081600160006101000a81548173ffffffffffffffffffffffffffffffffffffffff021916908373ffffffffffffffffffffffffffffffffffffffff1602179055508173ffffffffffffffffffffffffffffffffffffffff168173ffffffffffffffffffffffffffffffffffffffff167f8be0079c531659141344cd1fd0a4f28419497f9722a3daafe3b4186f6b6457e060405160405180910390a35050565b600033905090565b600080fd5b600073ffffffffffffffffffffffffffffffffffffffff82169050919050565b6000610b0082610ad5565b9050919050565b610b1081610af5565b8114610b1b57600080fd5b50565b600081359050610b2d81610b07565b92915050565b60028110610b4057600080fd5b50565b600081359050610b5281610b33565b92915050565b600080600060608486031215610b7157610b70610ad0565b5b6000610b7f86828701610b1e565b9350506020610b9086828701610b1e565b9250506040610ba186828701610b43565b9150509250925092565b600060208284031215610bc157610bc0610ad0565b5b6000610bcf84828501610b1e565b91505092915050565b610be181610af5565b82525050565b6000602082019050610bfc6000830184610bd8565b92915050565b60008115159050919050565b610c1781610c02565b82525050565b6000602082019050610c326000830184610c0e565b92915050565b6000819050919050565b610c4b81610c38565b8114610c5657600080fd5b50565b600081359050610c6881610c42565b92915050565b600060208284031215610c8457610c83610ad0565b5b6000610c9284828501610c59565b91505092915050565b6000819050919050565b610cae81610c9b565b8114610cb957600080fd5b50565b600081359050610ccb81610ca5565b92915050565b60008060008060808587031215610ceb57610cea610ad0565b5b6000610cf987828801610b1e565b9450506020610d0a87828801610b43565b9350506040610d1b87828801610cbc565b9250506060610d2c87828801610cbc565b91505092959194509250565b600082825260208201905092915050565b7f496e76616c696420616464726573736573000000000000000000000000000000600082015250565b6000610d7f601183610d38565b9150610d8a82610d49565b602082019050919050565b60006020820190508181036000830152610dae81610d72565b9050919050565b7f5265656e7472616e637947756172643a207265656e7472616e742063616c6c00600082015250565b6000610deb601f83610d38565b9150610df682610db5565b602082019050919050565b60006020820190508181036000830152610e1a81610dde565b9050919050565b7f4173736574206e6f7420737570706f7274656400000000000000000000000000600082015250565b6000610e57601383610d38565b9150610e6282610e21565b602082019050919050565b60006020820190508181036000830152610e8681610e4a565b9050919050565b60008160601b9050919050565b6000610ea582610e8d565b9050919050565b6000610eb782610e9a565b9050919050565b610ecf610eca82610af5565b610eac565b82525050565b7f4e487b7100000000000000000000000000000000000000000000000000000000600052602160045260246000fd5b60028110610f1557610f14610ed5565b5b50565b6000819050610f2682610f04565b919050565b6000610f3682610f18565b9050919050565b60008160f81b9050919050565b6000610f5582610f3d565b9050919050565b610f6d610f6882610f2b565b610f4a565b82525050565b6000819050919050565b610f8e610f8982610c9b565b610f73565b82525050565b6000610fa08289610ebe565b601482019150610fb08288610f5c565b600182019150610fc08287610ebe565b601482019150610fd08286610f7d565b602082019150610fe08285610f7d565b602082019150610ff08284610f7d565b602082019150819050979650505050505050565b7f5265717565737420616c72656164792070726f63657373656400000000000000600082015250565b600061103a601983610d38565b915061104582611004565b602082019050919050565b600060208201905081810360008301526110698161102d565b9050919050565b61107981610c9b565b82525050565b60006040820190506110946000830185610bd8565b6110a16020830184611070565b9392505050565b7f496e76616c696420616d6f756e7420666f722045524337323100000000000000600082015250565b60006110de601983610d38565b91506110e9826110a8565b602082019050919050565b6000602082019050818103600083015261110d816110d1565b9050919050565b60006040820190506111296000830185611070565b6111366020830184611070565b9392505050565b61114681610c02565b811461115157600080fd5b50565b6000815190506111638161113d565b92915050565b60006020828403121561117f5761117e610ad0565b5b600061118d84828501611154565b91505092915050565b7f5472616e73666572206661696c65640000000000000000000000000000000000600082015250565b60006111cc600f83610d38565b91506111d782611196565b602082019050919050565b600060208201905081810360008301526111fb816111bf565b9050919050565b60006060820190506112176000830186610bd8565b6112246020830185610bd8565b6112316040830184611070565b94935050505056fea2646970667358221220545ac3ecf2f6ed97b7d68a9a72d4b68fc884b5deb3cc4792e09c8c09eaa0d56a64736f6c63430008180033",
  "linkReferences": {},
  "deployedLinkReferences": {}
}