{
  "_format": "hh-sol-artifact-1",
  "contractName": "UnlockAndBurn",
  "sourceName": "contracts/UnlockAndBurn.sol",
  "abi": [
    {
      "inputs": [],
      "stateMutability": "nonpayable",
      "type": "constructor"
    },
    {
      "inputs": [
        {
          "internalType": "address",
          "name": "owner",
          "type": "address"
        }
      ],
      "name": "OwnableInvalidOwner",
      "type": "error"
    },
    {
      "inputs": [
        {
          "internalType": "address",
          "name": "account",
          "type": "address"
        }
      ],
      "name": "OwnableUnauthorizedAccount",
      "type": "error"
    },
    {
      "anonymous": false,
      "inputs": [
        {
          "indexed": true,
          "internalType": "bytes32",
          "name": "requestId",
          "type": "bytes32"
        },
        {
          "indexed": true,
          "internalType": "address",
          "name": "wrappedAsset",
          "type": "address"
        },
        {
          "indexed": true,
          "internalType": "address",
          "name": "sender",
          "type": "address"
        },
        {
          "indexed": false,
          "internalType": "uint256",
          "name": "amount",
          "type": "uint256"
        },
        {
          "indexed": false,
          "internalType": "uint256",
          "name": "tokenId",
          "type": "uint256"
        }
      ],
      "name": "AssetBurned",
      "type": "event"
    },
    {
      "anonymous": false,
      "inputs": [
        {
          "indexed": true,
          "internalType": "bytes32",
          "name": "requestId",
          "type": "bytes32"
        },
        {
          "indexed": true,
          "internalType": "address",
          "name": "originalAsset",
          "type": "address"
        },
        {
          "indexed": true,
          "internalType": "address",
          "name": "receiver",
          "type": "address"
        },
        {
          "indexed": false,
          "internalType": "uint256",
          "name": "amount",
          "type": "uint256"
        },
        {
          "indexed": false,
          "internalType": "uint256",
          "name": "tokenId",
          "type": "uint256"
        }
      ],
      "name": "AssetUnlocked",
      "type": "event"
    },
    {
      "anonymous": false,
      "inputs": [
        {
          "indexed": true,
          "internalType": "address",
          "name": "previousOwner",
          "type": "address"
        },
        {
          "indexed": true,
          "internalType": "address",
          "name": "newOwner",
          "type": "address"
        }
      ],
      "name": "OwnershipTransferred",
      "type": "event"
    },
    {
      "inputs": [
        {
          "internalType": "address",
          "name": "wrappedAsset",
          "type": "address"
        },
        {
          "internalType": "address",
          "name": "originalAsset",
          "type": "address"
        },
        {
          "internalType": "enum UnlockAndBurn.AssetType",
          "name": "",
          "type": "uint8"
        }
      ],
      "name": "addSupportedWrappedAsset",
      "outputs": [],
      "stateMutability": "nonpayable",
      "type": "function"
    },
    {
      "inputs": [],
      "name": "owner",
      "outputs": [
        {
          "internalType": "address",
          "name": "",
          "type": "address"
        }
      ],
      "stateMutability": "view",
      "type": "function"
    },
    {
      "inputs": [
        {
          "internalType": "bytes32",
          "name": "",
          "type": "bytes32"
        }
      ],
      "name": "processedRequests",
      "outputs": [
        {
          "internalType": "bool",
          "name": "",
          "type": "bool"
        }
      ],
      "stateMutability": "view",
      "type": "function"
    },
    {
      "inputs": [],
      "name": "renounceOwnership",
      "outputs": [],
      "stateMutability": "nonpayable",
      "type": "function"
    },
    {
      "inputs": [
        {
          "internalType": "address",
          "name": "",
          "type": "address"
        }
      ],
      "name": "supportedWrappedAssets",
      "outputs": [
        {
          "internalType": "bool",
          "name": "",
          "type": "bool"
        }
      ],
      "stateMutability": "view",
      "type": "function"
    },
    {
      "inputs": [
        {
          "internalType": "address",
          "name": "newOwner",
          "type": "address"
        }
      ],
      "name": "transferOwnership",
      "outputs": [],
      "stateMutability": "nonpayable",
      "type": "function"
    },
    {
      "inputs": [
        {
          "internalType": "address",
          "name": "wrappedAsset",
          "type": "address"
        },
        {
          "internalType": "enum UnlockAndBurn.AssetType",
          "name": "assetType",
          "type": "uint8"
        },
        {
          "internalType": "uint256",
          "name": "amount",
          "type": "uint256"
        },
        {
          "internalType": "uint256",
          "name": "tokenId",
          "type": "uint256"
        }
      ],
      "name": "unlockAndBurn",
      "outputs": [],
      "stateMutability": "nonpayable",
      "type": "function"
    },
    {
      "inputs": [
        {
          "internalType": "address",
          "name": "",
          "type": "address"
        }
      ],
      "name": "wrappedToOriginal",
      "outputs": [
        {
          "internalType": "address",
          "name": "",
          "type": "address"
        }
      ],
      "stateMutability": "view",
      "type": "function"
    }
  ],
  "bytecode": "0x608060405234801561001057600080fd5b506001600055338061003c57604051631e4fbdf760e01b81526000600482015260240160405180910390fd5b6100458161004b565b5061009d565b600180546001600160a01b038381166001600160a01b0319831681179093556040519116919082907f8be0079c531659141344cd1fd0a4f28419497f9722a3daafe3b4186f6b6457e090600090a35050565b6108ec806100ac6000396000f3fe608060405234801561001057600080fd5b50600436106100885760003560e01c8063c7ef8f541161005b578063c7ef8f5414610101578063ce0fa5a914610134578063f2fde38b14610157578063f94f16a91461016a57600080fd5b8063686a38181461008d578063715018a6146100a25780637c0db610146100aa5780638da5cb5b146100f0575b600080fd5b6100a061009b366004610751565b61017d565b005b6100a0610230565b6100d36100b8366004610794565b6003602052600090815260409020546001600160a01b031681565b6040516001600160a01b0390911681526020015b60405180910390f35b6001546001600160a01b03166100d3565b61012461010f366004610794565b60046020526000908152604090205460ff1681565b60405190151581526020016100e7565b6101246101423660046107b6565b60026020526000908152604090205460ff1681565b6100a0610165366004610794565b610244565b6100a06101783660046107cf565b610282565b6101856106a7565b6001600160a01b038316158015906101a557506001600160a01b03821615155b6101ea5760405162461bcd60e51b8152602060048201526011602482015270496e76616c69642061646472657373657360781b60448201526064015b60405180910390fd5b506001600160a01b039182166000908152600460209081526040808320805460ff19166001179055600390915290208054919092166001600160a01b0319909116179055565b6102386106a7565b61024260006106d4565b565b61024c6106a7565b6001600160a01b03811661027657604051631e4fbdf760e01b8152600060048201526024016101e1565b61027f816106d4565b50565b6002600054036102d45760405162461bcd60e51b815260206004820152601f60248201527f5265656e7472616e637947756172643a207265656e7472616e742063616c6c0060448201526064016101e1565b600260009081556001600160a01b03851681526004602052604090205460ff166103365760405162461bcd60e51b8152602060048201526013602482015272105cdcd95d081b9bdd081cdd5c1c1bdc9d1959606a1b60448201526064016101e1565b600084843385854260405160200161035396959493929190610827565b60408051601f1981840301815291815281516020928301206000818152600290935291205490915060ff16156103cb5760405162461bcd60e51b815260206004820152601960248201527f5265717565737420616c72656164792070726f6365737365640000000000000060448201526064016101e1565b60008460018111156103df576103df610811565b036104495760405163079cc67960e41b8152336004820152602481018490526001600160a01b038616906379cc679090604401600060405180830381600087803b15801561042c57600080fd5b505af1158015610440573d6000803e3d6000fd5b50505050610497565b82156104975760405162461bcd60e51b815260206004820152601960248201527f496e76616c696420616d6f756e7420666f72204552433732310000000000000060448201526064016101e1565b60008181526002602052604090819020805460ff191660011790555133906001600160a01b0387169083907fa929f659604f1900ebd9e7796d24bccb8cc2d0a7f97a06631c7224288806c3d3906104fa9088908890918252602082015260400190565b60405180910390a46001600160a01b038086166000908152600360205260408120549091169085600181111561053257610532610811565b036105eb5760405163a9059cbb60e01b8152336004820152602481018590526001600160a01b0382169063a9059cbb906044016020604051808303816000875af1158015610584573d6000803e3d6000fd5b505050506040513d601f19601f820116820180604052508101906105a89190610894565b6105e65760405162461bcd60e51b815260206004820152600f60248201526e151c985b9cd9995c8819985a5b1959608a1b60448201526064016101e1565b610652565b6040516323b872dd60e01b8152306004820152336024820152604481018490526001600160a01b038216906323b872dd90606401600060405180830381600087803b15801561063957600080fd5b505af115801561064d573d6000803e3d6000fd5b505050505b604080518581526020810185905233916001600160a01b0384169185917fe1bd86389d7468af7575ee867ae809919d13a3ae4a7bc8b3f95a748dd1b8ce1f910160405180910390a45050600160005550505050565b6001546001600160a01b031633146102425760405163118cdaa760e01b81523360048201526024016101e1565b600180546001600160a01b038381166001600160a01b0319831681179093556040519116919082907f8be0079c531659141344cd1fd0a4f28419497f9722a3daafe3b4186f6b6457e090600090a35050565b80356001600160a01b038116811461073d57600080fd5b919050565b80356002811061073d57600080fd5b60008060006060848603121561076657600080fd5b61076f84610726565b925061077d60208501610726565b915061078b60408501610742565b90509250925092565b6000602082840312156107a657600080fd5b6107af82610726565b9392505050565b6000602082840312156107c857600080fd5b5035919050565b600080600080608085870312156107e557600080fd5b6107ee85610726565b93506107fc60208601610742565b93969395505050506040820135916060013590565b634e487b7160e01b600052602160045260246000fd5b60006bffffffffffffffffffffffff19808960601b1683526002881061085d57634e487b7160e01b600052602160045260246000fd5b60f89790971b60148301525060609490941b9094166015840152602983019190915260498201526069810191909152608901919050565b6000602082840312156108a657600080fd5b815180151581146107af57600080fdfea2646970667358221220ae38790c3ff83e4a806d7b0775a30955fc502749c1098847692385ed629197ce64736f6c63430008180033",
  "linkReferences": {},
  "deployedLinkReferences": {}
}