{
  "_format": "hh-sol-artifact-1",
  "contractName": "Bridge",
  "sourceName": "contracts/Bridge.sol",
  "abi": [
    {
      "inputs": [],
      "stateMutability": "nonpayable",
      "type": "constructor"
    },
    {
      "inputs": [
        {
          "internalType": "address",
          "name": "owner",
          "type": "address"
        }
      ],
      "name": "OwnableInvalidOwner",
      "type": "error"
    },
    {
      "inputs": [
        {
          "internalType": "address",
          "name": "account",
          "type": "address"
        }
      ],
      "name": "OwnableUnauthorizedAccount",
      "type": "error"
    },
    {
      "anonymous": false,
      "inputs": [
        {
          "indexed": true,
          "internalType": "address",
          "name": "previousOwner",
          "type": "address"
        },
        {
          "indexed": true,
          "internalType": "address",
          "name": "newOwner",
          "type": "address"
        }
      ],
      "name": "OwnershipTransferred",
      "type": "event"
    },
    {
      "anonymous": false,
      "inputs": [
        {
          "indexed": true,
          "internalType": "address",
          "name": "token",
          "type": "address"
        },
        {
          "indexed": true,
          "internalType": "address",
          "name": "from",
          "type": "address"
        },
        {
          "indexed": false,
          "internalType": "uint256",
          "name": "amount",
          "type": "uint256"
        },
        {
          "indexed": false,
          "internalType": "uint256",
          "name": "targetChainId",
          "type": "uint256"
        },
        {
          "indexed": false,
          "internalType": "uint256",
          "name": "nonce",
          "type": "uint256"
        }
      ],
      "name": "TokensLocked",
      "type": "event"
    },
    {
      "anonymous": false,
      "inputs": [
        {
          "indexed": true,
          "internalType": "address",
          "name": "token",
          "type": "address"
        },
        {
          "indexed": true,
          "internalType": "address",
          "name": "to",
          "type": "address"
        },
        {
          "indexed": false,
          "internalType": "uint256",
          "name": "amount",
          "type": "uint256"
        },
        {
          "indexed": true,
          "internalType": "bytes32",
          "name": "transactionHash",
          "type": "bytes32"
        }
      ],
      "name": "TokensUnlocked",
      "type": "event"
    },
    {
      "inputs": [
        {
          "internalType": "address",
          "name": "token",
          "type": "address"
        },
        {
          "internalType": "uint256",
          "name": "amount",
          "type": "uint256"
        },
        {
          "internalType": "uint256",
          "name": "targetChainId",
          "type": "uint256"
        }
      ],
      "name": "lockTokens",
      "outputs": [],
      "stateMutability": "nonpayable",
      "type": "function"
    },
    {
      "inputs": [
        {
          "internalType": "address",
          "name": "",
          "type": "address"
        }
      ],
      "name": "nonces",
      "outputs": [
        {
          "internalType": "uint256",
          "name": "",
          "type": "uint256"
        }
      ],
      "stateMutability": "view",
      "type": "function"
    },
    {
      "inputs": [],
      "name": "owner",
      "outputs": [
        {
          "internalType": "address",
          "name": "",
          "type": "address"
        }
      ],
      "stateMutability": "view",
      "type": "function"
    },
    {
      "inputs": [
        {
          "internalType": "address",
          "name": "",
          "type": "address"
        },
        {
          "internalType": "bytes32",
          "name": "",
          "type": "bytes32"
        }
      ],
      "name": "processedHashes",
      "outputs": [
        {
          "internalType": "bool",
          "name": "",
          "type": "bool"
        }
      ],
      "stateMutability": "view",
      "type": "function"
    },
    {
      "inputs": [],
      "name": "renounceOwnership",
      "outputs": [],
      "stateMutability": "nonpayable",
      "type": "function"
    },
    {
      "inputs": [
        {
          "internalType": "address",
          "name": "newOwner",
          "type": "address"
        }
      ],
      "name": "transferOwnership",
      "outputs": [],
      "stateMutability": "nonpayable",
      "type": "function"
    },
    {
      "inputs": [
        {
          "internalType": "address",
          "name": "token",
          "type": "address"
        },
        {
          "internalType": "address",
          "name": "to",
          "type": "address"
        },
        {
          "internalType": "uint256",
          "name": "amount",
          "type": "uint256"
        },
        {
          "internalType": "bytes32",
          "name": "transactionHash",
          "type": "bytes32"
        }
      ],
      "name": "unlockTokens",
      "outputs": [],
      "stateMutability": "nonpayable",
      "type": "function"
    }
  ],
  "bytecode": "0x608060405234801561001057600080fd5b50336001600081905550600073ffffffffffffffffffffffffffffffffffffffff168173ffffffffffffffffffffffffffffffffffffffff160361008c5760006040517f1e4fbdf700000000000000000000000000000000000000000000000000000000815260040161008391906101a8565b60405180910390fd5b61009b816100a160201b60201c565b506101c3565b6000600160009054906101000a900473ffffffffffffffffffffffffffffffffffffffff16905081600160006101000a81548173ffffffffffffffffffffffffffffffffffffffff021916908373ffffffffffffffffffffffffffffffffffffffff1602179055508173ffffffffffffffffffffffffffffffffffffffff168173ffffffffffffffffffffffffffffffffffffffff167f8be0079c531659141344cd1fd0a4f28419497f9722a3daafe3b4186f6b6457e060405160405180910390a35050565b600073ffffffffffffffffffffffffffffffffffffffff82169050919050565b600061019282610167565b9050919050565b6101a281610187565b82525050565b60006020820190506101bd6000830184610199565b92915050565b610e8a806101d26000396000f3fe608060405234801561001057600080fd5b506004361061007d5760003560e01c80638da5cb5b1161005b5780638da5cb5b146100d8578063a25983e5146100f6578063d22be76014610112578063f2fde38b146101425761007d565b8063304ccad314610082578063715018a61461009e5780637ecebe00146100a8575b600080fd5b61009c6004803603810190610097919061097b565b61015e565b005b6100a661042e565b005b6100c260048036038101906100bd91906109e2565b610442565b6040516100cf9190610a1e565b60405180910390f35b6100e061045a565b6040516100ed9190610a48565b60405180910390f35b610110600480360381019061010b9190610a63565b610484565b005b61012c60048036038101906101279190610ab6565b6106a2565b6040516101399190610b11565b60405180910390f35b61015c600480360381019061015791906109e2565b6106d1565b005b610166610757565b6002600054036101ab576040517f08c379a00000000000000000000000000000000000000000000000000000000081526004016101a290610b89565b60405180910390fd5b6002600081905550600260008573ffffffffffffffffffffffffffffffffffffffff1673ffffffffffffffffffffffffffffffffffffffff168152602001908152602001600020600082815260200190815260200160002060009054906101000a900460ff1615610251576040517f08c379a000000000000000000000000000000000000000000000000000000000815260040161024890610bf5565b60405180910390fd5b60008211610294576040517f08c379a000000000000000000000000000000000000000000000000000000000815260040161028b90610c61565b60405180910390fd5b6001600260008673ffffffffffffffffffffffffffffffffffffffff1673ffffffffffffffffffffffffffffffffffffffff168152602001908152602001600020600083815260200190815260200160002060006101000a81548160ff0219169083151502179055508373ffffffffffffffffffffffffffffffffffffffff1663a9059cbb84846040518363ffffffff1660e01b8152600401610338929190610c81565b6020604051808303816000875af1158015610357573d6000803e3d6000fd5b505050506040513d601f19601f8201168201806040525081019061037b9190610cd6565b6103ba576040517f08c379a00000000000000000000000000000000000000000000000000000000081526004016103b190610d4f565b60405180910390fd5b808373ffffffffffffffffffffffffffffffffffffffff168573ffffffffffffffffffffffffffffffffffffffff167fc24528373542ee9723afbd28e392c80d637cad2d28d9034600064379224c4405856040516104189190610a1e565b60405180910390a4600160008190555050505050565b610436610757565b61044060006107de565b565b60036020528060005260406000206000915090505481565b6000600160009054906101000a900473ffffffffffffffffffffffffffffffffffffffff16905090565b6002600054036104c9576040517f08c379a00000000000000000000000000000000000000000000000000000000081526004016104c090610b89565b60405180910390fd5b600260008190555060008211610514576040517f08c379a000000000000000000000000000000000000000000000000000000000815260040161050b90610c61565b60405180910390fd5b8273ffffffffffffffffffffffffffffffffffffffff166323b872dd3330856040518463ffffffff1660e01b815260040161055193929190610d6f565b6020604051808303816000875af1158015610570573d6000803e3d6000fd5b505050506040513d601f19601f820116820180604052508101906105949190610cd6565b6105d3576040517f08c379a00000000000000000000000000000000000000000000000000000000081526004016105ca90610d4f565b60405180910390fd5b6000600360003373ffffffffffffffffffffffffffffffffffffffff1673ffffffffffffffffffffffffffffffffffffffff168152602001908152602001600020600081548092919061062590610dd5565b9190505590503373ffffffffffffffffffffffffffffffffffffffff168473ffffffffffffffffffffffffffffffffffffffff167fa6782d3322abbfbe850e6d5c5c78e8e1df603ea07608bb9a62dd83f40d4feccc85858560405161068c93929190610e1d565b60405180910390a3506001600081905550505050565b60026020528160005260406000206020528060005260406000206000915091509054906101000a900460ff1681565b6106d9610757565b600073ffffffffffffffffffffffffffffffffffffffff168173ffffffffffffffffffffffffffffffffffffffff160361074b5760006040517f1e4fbdf70000000000000000000000000000000000000000000000000000000081526004016107429190610a48565b60405180910390fd5b610754816107de565b50565b61075f6108a4565b73ffffffffffffffffffffffffffffffffffffffff1661077d61045a565b73ffffffffffffffffffffffffffffffffffffffff16146107dc576107a06108a4565b6040517f118cdaa70000000000000000000000000000000000000000000000000000000081526004016107d39190610a48565b60405180910390fd5b565b6000600160009054906101000a900473ffffffffffffffffffffffffffffffffffffffff16905081600160006101000a81548173ffffffffffffffffffffffffffffffffffffffff021916908373ffffffffffffffffffffffffffffffffffffffff1602179055508173ffffffffffffffffffffffffffffffffffffffff168173ffffffffffffffffffffffffffffffffffffffff167f8be0079c531659141344cd1fd0a4f28419497f9722a3daafe3b4186f6b6457e060405160405180910390a35050565b600033905090565b600080fd5b600073ffffffffffffffffffffffffffffffffffffffff82169050919050565b60006108dc826108b1565b9050919050565b6108ec816108d1565b81146108f757600080fd5b50565b600081359050610909816108e3565b92915050565b6000819050919050565b6109228161090f565b811461092d57600080fd5b50565b60008135905061093f81610919565b92915050565b6000819050919050565b61095881610945565b811461096357600080fd5b50565b6000813590506109758161094f565b92915050565b60008060008060808587031215610995576109946108ac565b5b60006109a3878288016108fa565b94505060206109b4878288016108fa565b93505060406109c587828801610930565b92505060606109d687828801610966565b91505092959194509250565b6000602082840312156109f8576109f76108ac565b5b6000610a06848285016108fa565b91505092915050565b610a188161090f565b82525050565b6000602082019050610a336000830184610a0f565b92915050565b610a42816108d1565b82525050565b6000602082019050610a5d6000830184610a39565b92915050565b600080600060608486031215610a7c57610a7b6108ac565b5b6000610a8a868287016108fa565b9350506020610a9b86828701610930565b9250506040610aac86828701610930565b9150509250925092565b60008060408385031215610acd57610acc6108ac565b5b6000610adb858286016108fa565b9250506020610aec85828601610966565b9150509250929050565b60008115159050919050565b610b0b81610af6565b82525050565b6000602082019050610b266000830184610b02565b92915050565b600082825260208201905092915050565b7f5265656e7472616e637947756172643a207265656e7472616e742063616c6c00600082015250565b6000610b73601f83610b2c565b9150610b7e82610b3d565b602082019050919050565b60006020820190508181036000830152610ba281610b66565b9050919050565b7f5472616e73616374696f6e20616c72656164792070726f636573736564000000600082015250565b6000610bdf601d83610b2c565b9150610bea82610ba9565b602082019050919050565b60006020820190508181036000830152610c0e81610bd2565b9050919050565b7f416d6f756e74206d7573742062652067726561746572207468616e2030000000600082015250565b6000610c4b601d83610b2c565b9150610c5682610c15565b602082019050919050565b60006020820190508181036000830152610c7a81610c3e565b9050919050565b6000604082019050610c966000830185610a39565b610ca36020830184610a0f565b9392505050565b610cb381610af6565b8114610cbe57600080fd5b50565b600081519050610cd081610caa565b92915050565b600060208284031215610cec57610ceb6108ac565b5b6000610cfa84828501610cc1565b91505092915050565b7f5472616e73666572206661696c65640000000000000000000000000000000000600082015250565b6000610d39600f83610b2c565b9150610d4482610d03565b602082019050919050565b60006020820190508181036000830152610d6881610d2c565b9050919050565b6000606082019050610d846000830186610a39565b610d916020830185610a39565b610d9e6040830184610a0f565b949350505050565b7f4e487b7100000000000000000000000000000000000000000000000000000000600052601160045260246000fd5b6000610de08261090f565b91507fffffffffffffffffffffffffffffffffffffffffffffffffffffffffffffffff8203610e1257610e11610da6565b5b600182019050919050565b6000606082019050610e326000830186610a0f565b610e3f6020830185610a0f565b610e4c6040830184610a0f565b94935050505056fea2646970667358221220e67c8eee7aef61ad896dc9578ed864d47963adf35f0f7e903298b49f2abd9ab564736f6c63430008180033",
  "linkReferences": {},
  "deployedLinkReferences": {}
}