{
  "_format": "hh-sol-artifact-1",
  "contractName": "TokenFactory",
  "sourceName": "contracts/TokenFactory.sol",
  "abi": [
    {
      "inputs": [],
      "stateMutability": "nonpayable",
      "type": "constructor"
    },
    {
      "inputs": [
        {
          "internalType": "address",
          "name": "owner",
          "type": "address"
        }
      ],
      "name": "OwnableInvalidOwner",
      "type": "error"
    },
    {
      "inputs": [
        {
          "internalType": "address",
          "name": "account",
          "type": "address"
        }
      ],
      "name": "OwnableUnauthorizedAccount",
      "type": "error"
    },
    {
      "anonymous": false,
      "inputs": [
        {
          "indexed": true,
          "internalType": "address",
          "name": "previousOwner",
          "type": "address"
        },
        {
          "indexed": true,
          "internalType": "address",
          "name": "newOwner",
          "type": "address"
        }
      ],
      "name": "OwnershipTransferred",
      "type": "event"
    },
    {
      "anonymous": false,
      "inputs": [
        {
          "indexed": true,
          "internalType": "address",
          "name": "token",
          "type": "address"
        },
        {
          "indexed": false,
          "internalType": "string",
          "name": "name",
          "type": "string"
        },
        {
          "indexed": false,
          "internalType": "string",
          "name": "symbol",
          "type": "string"
        }
      ],
      "name": "TokenCreated",
      "type": "event"
    },
    {
      "inputs": [
        {
          "internalType": "string",
          "name": "name",
          "type": "string"
        },
        {
          "internalType": "string",
          "name": "symbol",
          "type": "string"
        },
        {
          "internalType": "uint256",
          "name": "initialSupply",
          "type": "uint256"
        }
      ],
      "name": "createToken",
      "outputs": [
        {
          "internalType": "address",
          "name": "",
          "type": "address"
        }
      ],
      "stateMutability": "nonpayable",
      "type": "function"
    },
    {
      "inputs": [
        {
          "internalType": "address",
          "name": "",
          "type": "address"
        }
      ],
      "name": "isValidToken",
      "outputs": [
        {
          "internalType": "bool",
          "name": "",
          "type": "bool"
        }
      ],
      "stateMutability": "view",
      "type": "function"
    },
    {
      "inputs": [],
      "name": "owner",
      "outputs": [
        {
          "internalType": "address",
          "name": "",
          "type": "address"
        }
      ],
      "stateMutability": "view",
      "type": "function"
    },
    {
      "inputs": [],
      "name": "renounceOwnership",
      "outputs": [],
      "stateMutability": "nonpayable",
      "type": "function"
    },
    {
      "inputs": [
        {
          "internalType": "address",
          "name": "newOwner",
          "type": "address"
        }
      ],
      "name": "transferOwnership",
      "outputs": [],
      "stateMutability": "nonpayable",
      "type": "function"
    }
  ],
  "bytecode": "0x608060405234801561001057600080fd5b50338061003757604051631e4fbdf760e01b81526000600482015260240160405180910390fd5b61004081610046565b50610096565b600080546001600160a01b038381166001600160a01b0319831681178455604051919092169283917f8be0079c531659141344cd1fd0a4f28419497f9722a3daafe3b4186f6b6457e09190a35050565b6113a9806100a56000396000f3fe60806040523480156200001157600080fd5b50600436106200005e5760003560e01c80635b0605301462000063578063715018a614620000975780638da5cb5b14620000a3578063c187645314620000b5578063f2fde38b14620000ec575b600080fd5b6200007a620000743660046200034a565b62000103565b6040516001600160a01b0390911681526020015b60405180910390f35b620000a1620001b2565b005b6000546001600160a01b03166200007a565b620000db620000c6366004620003be565b60016020526000908152604090205460ff1681565b60405190151581526020016200008e565b620000a1620000fd366004620003be565b620001ca565b60008084848433604051620001189062000291565b62000127949392919062000438565b604051809103906000f08015801562000144573d6000803e3d6000fd5b506001600160a01b038116600081815260016020819052604091829020805460ff1916909117905551919250907fffc04f682c7b287e4b552dacd4b833d7c33dc0549cd6da84388408e4830c056290620001a2908890889062000483565b60405180910390a2949350505050565b620001bc62000212565b620001c8600062000241565b565b620001d462000212565b6001600160a01b0381166200020457604051631e4fbdf760e01b8152600060048201526024015b60405180910390fd5b6200020f8162000241565b50565b6000546001600160a01b03163314620001c85760405163118cdaa760e01b8152336004820152602401620001fb565b600080546001600160a01b038381166001600160a01b0319831681178455604051919092169283917f8be0079c531659141344cd1fd0a4f28419497f9722a3daafe3b4186f6b6457e09190a35050565b610ebe80620004b683390190565b634e487b7160e01b600052604160045260246000fd5b600082601f830112620002c757600080fd5b813567ffffffffffffffff80821115620002e557620002e56200029f565b604051601f8301601f19908116603f011681019082821181831017156200031057620003106200029f565b816040528381528660208588010111156200032a57600080fd5b836020870160208301376000602085830101528094505050505092915050565b6000806000606084860312156200036057600080fd5b833567ffffffffffffffff808211156200037957600080fd5b6200038787838801620002b5565b945060208601359150808211156200039e57600080fd5b50620003ad86828701620002b5565b925050604084013590509250925092565b600060208284031215620003d157600080fd5b81356001600160a01b0381168114620003e957600080fd5b9392505050565b6000815180845260005b818110156200041857602081850181015186830182015201620003fa565b506000602082860101526020601f19601f83011685010191505092915050565b6080815260006200044d6080830187620003f0565b8281036020840152620004618187620003f0565b604084019590955250506001600160a01b039190911660609091015292915050565b604081526000620004986040830185620003f0565b8281036020840152620004ac8185620003f0565b9594505050505056fe60806040523480156200001157600080fd5b5060405162000ebe38038062000ebe83398101604081905262000034916200027c565b8084846003620000458382620003a2565b506004620000548282620003a2565b5050506001600160a01b0381166200008757604051631e4fbdf760e01b8152600060048201526024015b60405180910390fd5b6200009281620000a9565b506200009f8183620000fb565b5050505062000496565b600580546001600160a01b038381166001600160a01b0319831681179093556040519116919082907f8be0079c531659141344cd1fd0a4f28419497f9722a3daafe3b4186f6b6457e090600090a35050565b6001600160a01b038216620001275760405163ec442f0560e01b8152600060048201526024016200007e565b80600260008282546200013b91906200046e565b90915550506001600160a01b038216600090815260208190526040812080548392906200016a9084906200046e565b90915550506040518181526001600160a01b038316906000907fddf252ad1be2c89b69c2b068fc378daa952ba7f163c4a11628f55a4df523b3ef9060200160405180910390a35050565b634e487b7160e01b600052604160045260246000fd5b600082601f830112620001dc57600080fd5b81516001600160401b0380821115620001f957620001f9620001b4565b604051601f8301601f19908116603f01168101908282118183101715620002245762000224620001b4565b81604052838152602092508660208588010111156200024257600080fd5b600091505b8382101562000266578582018301518183018401529082019062000247565b6000602085830101528094505050505092915050565b600080600080608085870312156200029357600080fd5b84516001600160401b0380821115620002ab57600080fd5b620002b988838901620001ca565b95506020870151915080821115620002d057600080fd5b50620002df87828801620001ca565b60408701516060880151919550935090506001600160a01b03811681146200030657600080fd5b939692955090935050565b600181811c908216806200032657607f821691505b6020821081036200034757634e487b7160e01b600052602260045260246000fd5b50919050565b601f8211156200039d576000816000526020600020601f850160051c81016020861015620003785750805b601f850160051c820191505b81811015620003995782815560010162000384565b5050505b505050565b81516001600160401b03811115620003be57620003be620001b4565b620003d681620003cf845462000311565b846200034d565b602080601f8311600181146200040e5760008415620003f55750858301515b600019600386901b1c1916600185901b17855562000399565b600085815260208120601f198616915b828110156200043f578886015182559484019460019091019084016200041e565b50858210156200045e5787850151600019600388901b60f8161c191681555b5050505050600190811b01905550565b808201808211156200049057634e487b7160e01b600052601160045260246000fd5b92915050565b610a1880620004a66000396000f3fe608060405234801561001057600080fd5b50600436106100ea5760003560e01c8063715018a61161008c5780639dc29fac116100665780639dc29fac146101cd578063a9059cbb146101e0578063dd62ed3e146101f3578063f2fde38b1461022c57600080fd5b8063715018a6146101a25780638da5cb5b146101aa57806395d89b41146101c557600080fd5b806323b872dd116100c857806323b872dd14610142578063313ce5671461015557806340c10f191461016457806370a082311461017957600080fd5b806306fdde03146100ef578063095ea7b31461010d57806318160ddd14610130575b600080fd5b6100f761023f565b6040516101049190610846565b60405180910390f35b61012061011b3660046108b1565b6102d1565b6040519015158152602001610104565b6002545b604051908152602001610104565b6101206101503660046108db565b6102eb565b60405160128152602001610104565b6101776101723660046108b1565b61030f565b005b610134610187366004610917565b6001600160a01b031660009081526020819052604090205490565b610177610325565b6005546040516001600160a01b039091168152602001610104565b6100f7610339565b6101776101db3660046108b1565b610348565b6101206101ee3660046108b1565b61035a565b610134610201366004610939565b6001600160a01b03918216600090815260016020908152604080832093909416825291909152205490565b61017761023a366004610917565b610368565b60606003805461024e9061096c565b80601f016020809104026020016040519081016040528092919081815260200182805461027a9061096c565b80156102c75780601f1061029c576101008083540402835291602001916102c7565b820191906000526020600020905b8154815290600101906020018083116102aa57829003601f168201915b5050505050905090565b6000336102df8185856103ab565b60019150505b92915050565b6000336102f9858285610461565b6103048585856104db565b506001949350505050565b61031761061c565b6103218282610649565b5050565b61032d61061c565b61033760006106fc565b565b60606004805461024e9061096c565b61035061061c565b610321828261074e565b6000336102df8185856104db565b61037061061c565b6001600160a01b03811661039f57604051631e4fbdf760e01b8152600060048201526024015b60405180910390fd5b6103a8816106fc565b50565b6001600160a01b0383166103d557604051634b637e8f60e11b815260006004820152602401610396565b6001600160a01b0382166103ff57604051634a1406b160e11b815260006004820152602401610396565b6001600160a01b0383811660008181526001602090815260408083209487168084529482529182902085905590518481527f8c5be1e5ebec7d5bd14f71427d1e84f3dd0314c0f7b2291e5b200ac8c7c3b92591015b60405180910390a3505050565b6001600160a01b03838116600090815260016020908152604080832093861683529290522054818110156104c157604051637dc7a0d960e11b81526001600160a01b03841660048201526024810182905260448101839052606401610396565b6104d584846104d085856109bc565b6103ab565b50505050565b6001600160a01b03831661050557604051634b637e8f60e11b815260006004820152602401610396565b6001600160a01b03821661052f5760405163ec442f0560e01b815260006004820152602401610396565b6001600160a01b038316600090815260208190526040902054818110156105825760405163391434e360e21b81526001600160a01b03851660048201526024810182905260448101839052606401610396565b61058c82826109bc565b6001600160a01b0380861660009081526020819052604080822093909355908516815290812080548492906105c29084906109cf565b92505081905550826001600160a01b0316846001600160a01b03167fddf252ad1be2c89b69c2b068fc378daa952ba7f163c4a11628f55a4df523b3ef8460405161060e91815260200190565b60405180910390a350505050565b6005546001600160a01b031633146103375760405163118cdaa760e01b8152336004820152602401610396565b6001600160a01b0382166106735760405163ec442f0560e01b815260006004820152602401610396565b806002600082825461068591906109cf565b90915550506001600160a01b038216600090815260208190526040812080548392906106b29084906109cf565b90915550506040518181526001600160a01b038316906000907fddf252ad1be2c89b69c2b068fc378daa952ba7f163c4a11628f55a4df523b3ef9060200160405180910390a35050565b600580546001600160a01b038381166001600160a01b0319831681179093556040519116919082907f8be0079c531659141344cd1fd0a4f28419497f9722a3daafe3b4186f6b6457e090600090a35050565b6001600160a01b03821661077857604051634b637e8f60e11b815260006004820152602401610396565b6001600160a01b038216600090815260208190526040902054818110156107cb5760405163391434e360e21b81526001600160a01b03841660048201526024810182905260448101839052606401610396565b6107d582826109bc565b6001600160a01b038416600090815260208190526040812091909155600280548492906108039084906109bc565b90915550506040518281526000906001600160a01b038516907fddf252ad1be2c89b69c2b068fc378daa952ba7f163c4a11628f55a4df523b3ef90602001610454565b60006020808352835180602085015260005b8181101561087457858101830151858201604001528201610858565b506000604082860101526040601f19601f8301168501019250505092915050565b80356001600160a01b03811681146108ac57600080fd5b919050565b600080604083850312156108c457600080fd5b6108cd83610895565b946020939093013593505050565b6000806000606084860312156108f057600080fd5b6108f984610895565b925061090760208501610895565b9150604084013590509250925092565b60006020828403121561092957600080fd5b61093282610895565b9392505050565b6000806040838503121561094c57600080fd5b61095583610895565b915061096360208401610895565b90509250929050565b600181811c9082168061098057607f821691505b6020821081036109a057634e487b7160e01b600052602260045260246000fd5b50919050565b634e487b7160e01b600052601160045260246000fd5b818103818111156102e5576102e56109a6565b808201808211156102e5576102e56109a656fea26469706673582212202d718b88c8f5ff8d4700f07c837b43935726548705cccf23103055dba641c37664736f6c63430008180033a26469706673582212204f362d401a5c38109d43d9c984c1162d6201f26b051d0258fc887382e4d3073a64736f6c63430008180033",
  "linkReferences": {},
  "deployedLinkReferences": {}
}