{
  "_format": "hh-sol-artifact-1",
  "contractName": "AccountFactory",
  "sourceName": "contracts/AccountFactory.sol",
  "abi": [
    {
      "inputs": [
        {
          "internalType": "address",
          "name": "_entryPoint",
          "type": "address"
        }
      ],
      "stateMutability": "nonpayable",
      "type": "constructor"
    },
    {
      "anonymous": false,
      "inputs": [
        {
          "indexed": true,
          "internalType": "address",
          "name": "account",
          "type": "address"
        },
        {
          "indexed": true,
          "internalType": "address",
          "name": "owner",
          "type": "address"
        }
      ],
      "name": "AccountCreated",
      "type": "event"
    },
    {
      "inputs": [
        {
          "internalType": "address",
          "name": "owner",
          "type": "address"
        }
      ],
      "name": "createAccount",
      "outputs": [
        {
          "internalType": "address",
          "name": "",
          "type": "address"
        }
      ],
      "stateMutability": "nonpayable",
      "type": "function"
    },
    {
      "inputs": [],
      "name": "entryPoint",
      "outputs": [
        {
          "internalType": "contract IEntryPoint",
          "name": "",
          "type": "address"
        }
      ],
      "stateMutability": "view",
      "type": "function"
    }
  ],
  "bytecode": "0x60a060405234801561001057600080fd5b5060405161099138038061099183398101604081905261002f9161009a565b6001600160a01b0381166100895760405162461bcd60e51b815260206004820152601a60248201527f496e76616c696420456e747279506f696e742061646472657373000000000000604482015260640160405180910390fd5b6001600160a01b03166080526100ca565b6000602082840312156100ac57600080fd5b81516001600160a01b03811681146100c357600080fd5b9392505050565b6080516108a76100ea60003960008181606f015260d801526108a76000f3fe608060405234801561001057600080fd5b50600436106100365760003560e01c80639859387b1461003b578063b0d691fe1461006a575b600080fd5b61004e610049366004610192565b610091565b6040516001600160a01b03909116815260200160405180910390f35b61004e7f000000000000000000000000000000000000000000000000000000000000000081565b6040516bffffffffffffffffffffffff19606083901b16602082015242603482015260009081906054016040516020818303038152906040528051906020012090506000817f00000000000000000000000000000000000000000000000000000000000000008560405161010490610185565b6001600160a01b039283168152911660208201526040018190604051809103906000f590508015801561013b573d6000803e3d6000fd5b509050836001600160a01b0316816001600160a01b03167fac631f3001b55ea1509cf3d7e74898f85392a61a76e8149181ae1259622dabc860405160405180910390a39392505050565b6106af806101c383390190565b6000602082840312156101a457600080fd5b81356001600160a01b03811681146101bb57600080fd5b939250505056fe60a060405234801561001057600080fd5b506040516106af3803806106af83398101604081905261002f91610073565b6001600160a01b03918216608052600080546001600160a01b031916919092161790556100a6565b80516001600160a01b038116811461006e57600080fd5b919050565b6000806040838503121561008657600080fd5b61008f83610057565b915061009d60208401610057565b90509250929050565b6080516105e26100cd6000396000818160860152818160e9015261022b01526105e26000f3fe608060405234801561001057600080fd5b506004361061004c5760003560e01c80638da5cb5b14610051578063b0d691fe14610081578063b61d27f6146100a8578063fff35b72146100bd575b600080fd5b600054610064906001600160a01b031681565b6040516001600160a01b0390911681526020015b60405180910390f35b6100647f000000000000000000000000000000000000000000000000000000000000000081565b6100bb6100b6366004610410565b6100de565b005b6100d06100cb3660046104a5565b61021e565b604051908152602001610078565b336001600160a01b037f000000000000000000000000000000000000000000000000000000000000000016146101675760405162461bcd60e51b8152602060048201526024808201527f4163636f756e743a206f6e6c7920456e747279506f696e742063616e206578656044820152636375746560e01b60648201526084015b60405180910390fd5b6000846001600160a01b03168484846040516101849291906104f0565b60006040518083038185875af1925050503d80600081146101c1576040519150601f19603f3d011682016040523d82523d6000602084013e6101c6565b606091505b50509050806102175760405162461bcd60e51b815260206004820152601960248201527f4163636f756e743a20657865637574696f6e206661696c656400000000000000604482015260640161015e565b5050505050565b6000336001600160a01b037f000000000000000000000000000000000000000000000000000000000000000016146102a65760405162461bcd60e51b815260206004820152602560248201527f4163636f756e743a206f6e6c7920456e747279506f696e742063616e2076616c604482015264696461746560d81b606482015260840161015e565b6000826040516020016102bb91815260200190565b60408051601f19818403018152919052805160209091012090506001816102e6610140870187610500565b60008181106102f7576102f761054e565b919091013560f81c905061030f610140880188610500565b61031e91602191600191610564565b6103279161058e565b610335610140890189610500565b61034491604191602191610564565b61034d9161058e565b6040805160008152602081018083529590955260ff909316928401929092526060830152608082015260a0016020604051602081039080840390855afa15801561039b573d6000803e3d6000fd5b5050604051601f1901516000546001600160a01b0390811691161490506104045760405162461bcd60e51b815260206004820152601860248201527f4163636f756e743a2077726f6e67207369676e61747572650000000000000000604482015260640161015e565b60009150505b92915050565b6000806000806060858703121561042657600080fd5b84356001600160a01b038116811461043d57600080fd5b935060208501359250604085013567ffffffffffffffff8082111561046157600080fd5b818701915087601f83011261047557600080fd5b81358181111561048457600080fd5b88602082850101111561049657600080fd5b95989497505060200194505050565b600080604083850312156104b857600080fd5b823567ffffffffffffffff8111156104cf57600080fd5b830161016081860312156104e257600080fd5b946020939093013593505050565b8183823760009101908152919050565b6000808335601e1984360301811261051757600080fd5b83018035915067ffffffffffffffff82111561053257600080fd5b60200191503681900382131561054757600080fd5b9250929050565b634e487b7160e01b600052603260045260246000fd5b6000808585111561057457600080fd5b8386111561058157600080fd5b5050820193919092039150565b8035602083101561040a57600019602084900360031b1b169291505056fea264697066735822122004d95b9d9b1d1ba30876fb19d1712c4c6ceaf05f60c710a72f00fd40821dc0e764736f6c63430008180033a26469706673582212205eac1742833d11bc81b3bac1261bc711965a327c22344b8754d5f46d30db23d564736f6c63430008180033",
  "linkReferences": {},
  "deployedLinkReferences": {}
}