{
  "_format": "hh-sol-artifact-1",
  "contractName": "BridgeOracle",
  "sourceName": "contracts/BridgeOracle.sol",
  "abi": [
    {
      "inputs": [
        {
          "internalType": "uint8",
          "name": "_requiredConfirmations",
          "type": "uint8"
        }
      ],
      "stateMutability": "nonpayable",
      "type": "constructor"
    },
    {
      "inputs": [
        {
          "internalType": "address",
          "name": "owner",
          "type": "address"
        }
      ],
      "name": "OwnableInvalidOwner",
      "type": "error"
    },
    {
      "inputs": [
        {
          "internalType": "address",
          "name": "account",
          "type": "address"
        }
      ],
      "name": "OwnableUnauthorizedAccount",
      "type": "error"
    },
    {
      "inputs": [],
      "name": "PausableAlreadyPaused",
      "type": "error"
    },
    {
      "inputs": [],
      "name": "PausableAlreadyUnpaused",
      "type": "error"
    },
    {
      "inputs": [],
      "name": "PausableNotPaused",
      "type": "error"
    },
    {
      "inputs": [],
      "name": "PausablePaused",
      "type": "error"
    },
    {
      "anonymous": false,
      "inputs": [
        {
          "indexed": true,
          "internalType": "bytes32",
          "name": "operationId",
          "type": "bytes32"
        },
        {
          "indexed": true,
          "internalType": "address",
          "name": "oracle",
          "type": "address"
        }
      ],
      "name": "OperationConfirmed",
      "type": "event"
    },
    {
      "anonymous": false,
      "inputs": [
        {
          "indexed": true,
          "internalType": "bytes32",
          "name": "operationId",
          "type": "bytes32"
        }
      ],
      "name": "OperationProcessed",
      "type": "event"
    },
    {
      "anonymous": false,
      "inputs": [
        {
          "indexed": true,
          "internalType": "address",
          "name": "oracle",
          "type": "address"
        }
      ],
      "name": "OracleAuthorized",
      "type": "event"
    },
    {
      "anonymous": false,
      "inputs": [
        {
          "indexed": true,
          "internalType": "address",
          "name": "oracle",
          "type": "address"
        }
      ],
      "name": "OracleDeauthorized",
      "type": "event"
    },
    {
      "anonymous": false,
      "inputs": [
        {
          "indexed": true,
          "internalType": "address",
          "name": "previousOwner",
          "type": "address"
        },
        {
          "indexed": true,
          "internalType": "address",
          "name": "newOwner",
          "type": "address"
        }
      ],
      "name": "OwnershipTransferred",
      "type": "event"
    },
    {
      "anonymous": false,
      "inputs": [
        {
          "indexed": false,
          "internalType": "address",
          "name": "account",
          "type": "address"
        }
      ],
      "name": "Paused",
      "type": "event"
    },
    {
      "anonymous": false,
      "inputs": [
        {
          "indexed": false,
          "internalType": "address",
          "name": "account",
          "type": "address"
        }
      ],
      "name": "Unpaused",
      "type": "event"
    },
    {
      "inputs": [
        {
          "internalType": "address",
          "name": "oracle",
          "type": "address"
        }
      ],
      "name": "addOracle",
      "outputs": [],
      "stateMutability": "nonpayable",
      "type": "function"
    },
    {
      "inputs": [
        {
          "internalType": "address",
          "name": "",
          "type": "address"
        }
      ],
      "name": "authorizedOracles",
      "outputs": [
        {
          "internalType": "bool",
          "name": "",
          "type": "bool"
        }
      ],
      "stateMutability": "view",
      "type": "function"
    },
    {
      "inputs": [
        {
          "internalType": "bytes32",
          "name": "operationId",
          "type": "bytes32"
        }
      ],
      "name": "confirmOperation",
      "outputs": [],
      "stateMutability": "nonpayable",
      "type": "function"
    },
    {
      "inputs": [
        {
          "internalType": "bytes32",
          "name": "operationId",
          "type": "bytes32"
        }
      ],
      "name": "isOperationConfirmed",
      "outputs": [
        {
          "internalType": "bool",
          "name": "",
          "type": "bool"
        }
      ],
      "stateMutability": "view",
      "type": "function"
    },
    {
      "inputs": [
        {
          "internalType": "bytes32",
          "name": "",
          "type": "bytes32"
        }
      ],
      "name": "operationConfirmations",
      "outputs": [
        {
          "internalType": "uint8",
          "name": "",
          "type": "uint8"
        }
      ],
      "stateMutability": "view",
      "type": "function"
    },
    {
      "inputs": [],
      "name": "owner",
      "outputs": [
        {
          "internalType": "address",
          "name": "",
          "type": "address"
        }
      ],
      "stateMutability": "view",
      "type": "function"
    },
    {
      "inputs": [],
      "name": "paused",
      "outputs": [
        {
          "internalType": "bool",
          "name": "",
          "type": "bool"
        }
      ],
      "stateMutability": "view",
      "type": "function"
    },
    {
      "inputs": [
        {
          "internalType": "bytes32",
          "name": "",
          "type": "bytes32"
        }
      ],
      "name": "processedOperations",
      "outputs": [
        {
          "internalType": "bool",
          "name": "",
          "type": "bool"
        }
      ],
      "stateMutability": "view",
      "type": "function"
    },
    {
      "inputs": [
        {
          "internalType": "address",
          "name": "oracle",
          "type": "address"
        }
      ],
      "name": "removeOracle",
      "outputs": [],
      "stateMutability": "nonpayable",
      "type": "function"
    },
    {
      "inputs": [],
      "name": "renounceOwnership",
      "outputs": [],
      "stateMutability": "nonpayable",
      "type": "function"
    },
    {
      "inputs": [],
      "name": "requiredConfirmations",
      "outputs": [
        {
          "internalType": "uint8",
          "name": "",
          "type": "uint8"
        }
      ],
      "stateMutability": "view",
      "type": "function"
    },
    {
      "inputs": [
        {
          "internalType": "address",
          "name": "newOwner",
          "type": "address"
        }
      ],
      "name": "transferOwnership",
      "outputs": [],
      "stateMutability": "nonpayable",
      "type": "function"
    },
    {
      "inputs": [
        {
          "internalType": "uint8",
          "name": "_requiredConfirmations",
          "type": "uint8"
        }
      ],
      "name": "updateRequiredConfirmations",
      "outputs": [],
      "stateMutability": "nonpayable",
      "type": "function"
    }
  ],
  "bytecode": "0x608060405234801561001057600080fd5b5060405161098538038061098583398101604081905261002f91610174565b338061005657604051631e4fbdf760e01b8152600060048201526024015b60405180910390fd5b61005f81610124565b506000805460ff60a01b1916905560ff81166100c85760405162461bcd60e51b815260206004820152602260248201527f526571756972656420636f6e6669726d6174696f6e73206d757374206265203e604482015261020360f41b606482015260840161004d565b6004805460ff831660ff19918216179091553360008181526001602081905260408083208054909516909117909355915190917f5a7a3f71a35f5e2589980d29d1c6d8c75e39657751190874081e55208bae24b791a25061019e565b600080546001600160a01b038381166001600160a01b0319831681178455604051919092169283917f8be0079c531659141344cd1fd0a4f28419497f9722a3daafe3b4186f6b6457e09190a35050565b60006020828403121561018657600080fd5b815160ff8116811461019757600080fd5b9392505050565b6107d8806101ad6000396000f3fe608060405234801561001057600080fd5b50600436106100cf5760003560e01c80637167061b1161008c578063df5dd1a511610066578063df5dd1a5146101ce578063e3a87470146101e1578063f2fde38b14610204578063fdc85fc41461021757600080fd5b80637167061b1461019357806382e717f7146101a65780638da5cb5b146101b357600080fd5b80630450013a146100d4578063106ca7bc146100e95780631f125155146101215780635c975abb1461015657806361c992a314610168578063715018a61461018b575b600080fd5b6100e76100e2366004610709565b61022a565b005b61010c6100f7366004610733565b60009081526002602052604090205460ff1690565b60405190151581526020015b60405180910390f35b61014461012f366004610733565b60036020526000908152604090205460ff1681565b60405160ff9091168152602001610118565b600054600160a01b900460ff1661010c565b61010c61017636600461074c565b60016020526000908152604090205460ff1681565b6100e76102ab565b6100e76101a1366004610733565b6102bf565b6004546101449060ff1681565b6000546040516001600160a01b039091168152602001610118565b6100e76101dc36600461074c565b610491565b61010c6101ef366004610733565b60026020526000908152604090205460ff1681565b6100e761021236600461074c565b6105a0565b6100e761022536600461074c565b6105db565b61023261068c565b60008160ff16116102955760405162461bcd60e51b815260206004820152602260248201527f526571756972656420636f6e6669726d6174696f6e73206d757374206265203e604482015261020360f41b60648201526084015b60405180910390fd5b6004805460ff191660ff92909216919091179055565b6102b361068c565b6102bd60006106b9565b565b3360009081526001602052604090205460ff166103165760405162461bcd60e51b81526020600482015260156024820152744e6f7420617574686f72697a6564206f7261636c6560581b604482015260640161028c565b600054600160a01b900460ff16156103635760405162461bcd60e51b815260206004820152601060248201526f14185d5cd8589b194e881c185d5cd95960821b604482015260640161028c565b60008181526002602052604090205460ff16156103c25760405162461bcd60e51b815260206004820152601b60248201527f4f7065726174696f6e20616c72656164792070726f6365737365640000000000604482015260640161028c565b6000818152600360205260408120805460ff16916103df83610775565b91906101000a81548160ff021916908360ff16021790555050336001600160a01b0316817f419a6fc41d52acdad28534c22b03d6afae3112f8df9e0f4e33df71a87a1e830a60405160405180910390a360045460008281526003602052604090205460ff91821691161061048e57600081815260026020526040808220805460ff191660011790555182917f2384d28d382ffe43c2a58be762abbed2a87eee38737d5f9102e2f579bd8b3c3491a25b50565b61049961068c565b6001600160a01b0381166104e85760405162461bcd60e51b8152602060048201526016602482015275496e76616c6964206f7261636c65206164647265737360501b604482015260640161028c565b6001600160a01b03811660009081526001602052604090205460ff16156105515760405162461bcd60e51b815260206004820152601960248201527f4f7261636c6520616c726561647920617574686f72697a656400000000000000604482015260640161028c565b6001600160a01b0381166000818152600160208190526040808320805460ff1916909217909155517f5a7a3f71a35f5e2589980d29d1c6d8c75e39657751190874081e55208bae24b79190a250565b6105a861068c565b6001600160a01b0381166105d257604051631e4fbdf760e01b81526000600482015260240161028c565b61048e816106b9565b6105e361068c565b6001600160a01b03811660009081526001602052604090205460ff166106435760405162461bcd60e51b815260206004820152601560248201527413dc9858db19481b9bdd08185d5d1a1bdc9a5e9959605a1b604482015260640161028c565b6001600160a01b038116600081815260016020526040808220805460ff19169055517fd9208accea6cedc894d1ffe2d3793fa9285afc1e08473d1adfcad86b26deadbd9190a250565b6000546001600160a01b031633146102bd5760405163118cdaa760e01b815233600482015260240161028c565b600080546001600160a01b038381166001600160a01b0319831681178455604051919092169283917f8be0079c531659141344cd1fd0a4f28419497f9722a3daafe3b4186f6b6457e09190a35050565b60006020828403121561071b57600080fd5b813560ff8116811461072c57600080fd5b9392505050565b60006020828403121561074557600080fd5b5035919050565b60006020828403121561075e57600080fd5b81356001600160a01b038116811461072c57600080fd5b600060ff821660ff810361079957634e487b7160e01b600052601160045260246000fd5b6001019291505056fea26469706673582212203f68c5eedb33f9a97f14f81df7e4294bf923c5bd26b9872e6d51326a690eb4fa64736f6c63430008180033",
  "linkReferences": {},
  "deployedLinkReferences": {}
}