{
  "_format": "hh-sol-artifact-1",
  "contractName": "BridgeValidator",
  "sourceName": "contracts/BridgeValidator.sol",
  "abi": [
    {
      "inputs": [
        {
          "internalType": "uint256",
          "name": "_requiredValidations",
          "type": "uint256"
        },
        {
          "internalType": "uint256",
          "name": "_validationTimeout",
          "type": "uint256"
        }
      ],
      "stateMutability": "nonpayable",
      "type": "constructor"
    },
    {
      "inputs": [
        {
          "internalType": "address",
          "name": "owner",
          "type": "address"
        }
      ],
      "name": "OwnableInvalidOwner",
      "type": "error"
    },
    {
      "inputs": [
        {
          "internalType": "address",
          "name": "account",
          "type": "address"
        }
      ],
      "name": "OwnableUnauthorizedAccount",
      "type": "error"
    },
    {
      "inputs": [],
      "name": "PausableAlreadyPaused",
      "type": "error"
    },
    {
      "inputs": [],
      "name": "PausableAlreadyUnpaused",
      "type": "error"
    },
    {
      "inputs": [],
      "name": "PausableNotPaused",
      "type": "error"
    },
    {
      "inputs": [],
      "name": "PausablePaused",
      "type": "error"
    },
    {
      "anonymous": false,
      "inputs": [
        {
          "indexed": true,
          "internalType": "bytes32",
          "name": "operationId",
          "type": "bytes32"
        },
        {
          "indexed": true,
          "internalType": "address",
          "name": "validator",
          "type": "address"
        }
      ],
      "name": "OperationValidated",
      "type": "event"
    },
    {
      "anonymous": false,
      "inputs": [
        {
          "indexed": true,
          "internalType": "address",
          "name": "previousOwner",
          "type": "address"
        },
        {
          "indexed": true,
          "internalType": "address",
          "name": "newOwner",
          "type": "address"
        }
      ],
      "name": "OwnershipTransferred",
      "type": "event"
    },
    {
      "anonymous": false,
      "inputs": [
        {
          "indexed": false,
          "internalType": "address",
          "name": "account",
          "type": "address"
        }
      ],
      "name": "Paused",
      "type": "event"
    },
    {
      "anonymous": false,
      "inputs": [
        {
          "indexed": false,
          "internalType": "address",
          "name": "account",
          "type": "address"
        }
      ],
      "name": "Unpaused",
      "type": "event"
    },
    {
      "anonymous": false,
      "inputs": [
        {
          "indexed": true,
          "internalType": "bytes32",
          "name": "operationId",
          "type": "bytes32"
        }
      ],
      "name": "ValidationComplete",
      "type": "event"
    },
    {
      "anonymous": false,
      "inputs": [
        {
          "indexed": true,
          "internalType": "address",
          "name": "validator",
          "type": "address"
        }
      ],
      "name": "ValidatorAdded",
      "type": "event"
    },
    {
      "anonymous": false,
      "inputs": [
        {
          "indexed": true,
          "internalType": "address",
          "name": "validator",
          "type": "address"
        }
      ],
      "name": "ValidatorRemoved",
      "type": "event"
    },
    {
      "inputs": [
        {
          "internalType": "address",
          "name": "validator",
          "type": "address"
        }
      ],
      "name": "addValidator",
      "outputs": [],
      "stateMutability": "nonpayable",
      "type": "function"
    },
    {
      "inputs": [
        {
          "internalType": "bytes32",
          "name": "operationId",
          "type": "bytes32"
        }
      ],
      "name": "isOperationValid",
      "outputs": [
        {
          "internalType": "bool",
          "name": "",
          "type": "bool"
        }
      ],
      "stateMutability": "view",
      "type": "function"
    },
    {
      "inputs": [],
      "name": "owner",
      "outputs": [
        {
          "internalType": "address",
          "name": "",
          "type": "address"
        }
      ],
      "stateMutability": "view",
      "type": "function"
    },
    {
      "inputs": [],
      "name": "paused",
      "outputs": [
        {
          "internalType": "bool",
          "name": "",
          "type": "bool"
        }
      ],
      "stateMutability": "view",
      "type": "function"
    },
    {
      "inputs": [
        {
          "internalType": "address",
          "name": "validator",
          "type": "address"
        }
      ],
      "name": "removeValidator",
      "outputs": [],
      "stateMutability": "nonpayable",
      "type": "function"
    },
    {
      "inputs": [],
      "name": "renounceOwnership",
      "outputs": [],
      "stateMutability": "nonpayable",
      "type": "function"
    },
    {
      "inputs": [],
      "name": "requiredValidations",
      "outputs": [
        {
          "internalType": "uint256",
          "name": "",
          "type": "uint256"
        }
      ],
      "stateMutability": "view",
      "type": "function"
    },
    {
      "inputs": [
        {
          "internalType": "address",
          "name": "newOwner",
          "type": "address"
        }
      ],
      "name": "transferOwnership",
      "outputs": [],
      "stateMutability": "nonpayable",
      "type": "function"
    },
    {
      "inputs": [
        {
          "internalType": "uint256",
          "name": "_requiredValidations",
          "type": "uint256"
        }
      ],
      "name": "updateRequiredValidations",
      "outputs": [],
      "stateMutability": "nonpayable",
      "type": "function"
    },
    {
      "inputs": [
        {
          "internalType": "uint256",
          "name": "_validationTimeout",
          "type": "uint256"
        }
      ],
      "name": "updateValidationTimeout",
      "outputs": [],
      "stateMutability": "nonpayable",
      "type": "function"
    },
    {
      "inputs": [
        {
          "internalType": "bytes32",
          "name": "operationId",
          "type": "bytes32"
        },
        {
          "internalType": "address",
          "name": "token",
          "type": "address"
        },
        {
          "internalType": "address",
          "name": "from",
          "type": "address"
        },
        {
          "internalType": "uint256",
          "name": "amount",
          "type": "uint256"
        },
        {
          "internalType": "uint256",
          "name": "timestamp",
          "type": "uint256"
        }
      ],
      "name": "validateOperation",
      "outputs": [],
      "stateMutability": "nonpayable",
      "type": "function"
    },
    {
      "inputs": [
        {
          "internalType": "bytes32",
          "name": "",
          "type": "bytes32"
        }
      ],
      "name": "validationCounts",
      "outputs": [
        {
          "internalType": "uint256",
          "name": "",
          "type": "uint256"
        }
      ],
      "stateMutability": "view",
      "type": "function"
    },
    {
      "inputs": [],
      "name": "validationTimeout",
      "outputs": [
        {
          "internalType": "uint256",
          "name": "",
          "type": "uint256"
        }
      ],
      "stateMutability": "view",
      "type": "function"
    },
    {
      "inputs": [
        {
          "internalType": "bytes32",
          "name": "",
          "type": "bytes32"
        },
        {
          "internalType": "address",
          "name": "",
          "type": "address"
        }
      ],
      "name": "validations",
      "outputs": [
        {
          "internalType": "bool",
          "name": "",
          "type": "bool"
        }
      ],
      "stateMutability": "view",
      "type": "function"
    },
    {
      "inputs": [
        {
          "internalType": "address",
          "name": "",
          "type": "address"
        }
      ],
      "name": "validators",
      "outputs": [
        {
          "internalType": "bool",
          "name": "",
          "type": "bool"
        }
      ],
      "stateMutability": "view",
      "type": "function"
    }
  ],
  "bytecode": "0x608060405234801561001057600080fd5b50604051610ba6380380610ba683398101604081905261002f916101ae565b338061005657604051631e4fbdf760e01b8152600060048201526024015b60405180910390fd5b61005f8161015e565b506000805460ff60a01b19169055816100ba5760405162461bcd60e51b815260206004820152601c60248201527f496e76616c69642072657175697265642076616c69646174696f6e7300000000604482015260640161004d565b6000811161010a5760405162461bcd60e51b815260206004820152601a60248201527f496e76616c69642076616c69646174696f6e2074696d656f7574000000000000604482015260640161004d565b60048290556005819055336000818152600160208190526040808320805460ff1916909217909155517fe366c1c0452ed8eec96861e9e54141ebff23c9ec89fe27b996b45f5ec38849879190a250506101d2565b600080546001600160a01b038381166001600160a01b0319831681178455604051919092169283917f8be0079c531659141344cd1fd0a4f28419497f9722a3daafe3b4186f6b6457e09190a35050565b600080604083850312156101c157600080fd5b505080516020909101519092909150565b6109c5806101e16000396000f3fe608060405234801561001057600080fd5b50600436106100f55760003560e01c80637f9ee85111610097578063e67608e611610066578063e67608e6146101fc578063e81f68451461020f578063f2fde38b14610235578063fa52c7d81461024857600080fd5b80637f9ee851146101b2578063893ee8cf146101c55780638da5cb5b146101d8578063db94e942146101f357600080fd5b80635c975abb116100d35780635c975abb1461013e5780636cb8de311461015c578063715018a61461018a57806373d40ed51461019257600080fd5b80630de1e2b4146100fa57806340a141ff146101165780634d238c8e1461012b575b600080fd5b61010360045481565b6040519081526020015b60405180910390f35b610129610124366004610892565b61026b565b005b610129610139366004610892565b610329565b600054600160a01b900460ff165b604051901515815260200161010d565b61014c61016a3660046108b4565b600260209081526000928352604080842090915290825290205460ff1681565b61012961043f565b6101036101a03660046108e0565b60036020526000908152604090205481565b6101296101c03660046108e0565b610453565b6101296101d33660046108e0565b6104b0565b6000546040516001600160a01b03909116815260200161010d565b61010360055481565b61012961020a3660046108f9565b61050d565b61014c61021d3660046108e0565b60045460009182526003602052604090912054101590565b610129610243366004610892565b6107bb565b61014c610256366004610892565b60016020526000908152604090205460ff1681565b6102736107f9565b6001600160a01b03811660009081526001602052604090205460ff166102e05760405162461bcd60e51b815260206004820152601760248201527f56616c696461746f7220646f65736e277420657869737400000000000000000060448201526064015b60405180910390fd5b6001600160a01b038116600081815260016020526040808220805460ff19169055517fe1434e25d6611e0db941968fdc97811c982ac1602e951637d206f5fdda9dd8f19190a250565b6103316107f9565b6001600160a01b0381166103875760405162461bcd60e51b815260206004820152601960248201527f496e76616c69642076616c696461746f7220616464726573730000000000000060448201526064016102d7565b6001600160a01b03811660009081526001602052604090205460ff16156103f05760405162461bcd60e51b815260206004820152601860248201527f56616c696461746f7220616c726561647920657869737473000000000000000060448201526064016102d7565b6001600160a01b0381166000818152600160208190526040808320805460ff1916909217909155517fe366c1c0452ed8eec96861e9e54141ebff23c9ec89fe27b996b45f5ec38849879190a250565b6104476107f9565b6104516000610826565b565b61045b6107f9565b600081116104ab5760405162461bcd60e51b815260206004820152601c60248201527f496e76616c69642072657175697265642076616c69646174696f6e730000000060448201526064016102d7565b600455565b6104b86107f9565b600081116105085760405162461bcd60e51b815260206004820152601a60248201527f496e76616c69642076616c69646174696f6e2074696d656f757400000000000060448201526064016102d7565b600555565b3360009081526001602052604090205460ff1661056c5760405162461bcd60e51b815260206004820152601860248201527f4e6f7420617574686f72697a65642076616c696461746f72000000000000000060448201526064016102d7565b600054600160a01b900460ff16156105b95760405162461bcd60e51b815260206004820152601060248201526f14185d5cd8589b194e881c185d5cd95960821b60448201526064016102d7565b600085815260026020908152604080832033845290915290205460ff16156106175760405162461bcd60e51b8152602060048201526011602482015270105b1c9958591e481d985b1a59185d1959607a1b60448201526064016102d7565b600554610624908261095d565b4211156106685760405162461bcd60e51b815260206004820152601260248201527115985b1a59185d1a5bdb881d1a5b595bdd5d60721b60448201526064016102d7565b6040805160208082018890526bffffffffffffffffffffffff19606088811b82168486015287901b1660548301526068820185905260888083018590528351808403909101815260a890920190925280519101208086146107045760405162461bcd60e51b8152602060048201526016602482015275092dcecc2d8d2c840dee0cae4c2e8d2dedc40d0c2e6d60531b60448201526064016102d7565b60008681526002602090815260408083203384528252808320805460ff191660011790558883526003909152812080549161073e83610976565b9091555050604051339087907fd60c5b678b6416f25820ed3c3dd3af9bad90ce20c0b32f2e5fe3c2ec6ceb340f90600090a3600454600087815260036020526040902054106107b35760405186907fd6786b40ef49930f8c98c99c3cc9ef7bd9c7e4e294588136b1566093d0dc091790600090a25b505050505050565b6107c36107f9565b6001600160a01b0381166107ed57604051631e4fbdf760e01b8152600060048201526024016102d7565b6107f681610826565b50565b6000546001600160a01b031633146104515760405163118cdaa760e01b81523360048201526024016102d7565b600080546001600160a01b038381166001600160a01b0319831681178455604051919092169283917f8be0079c531659141344cd1fd0a4f28419497f9722a3daafe3b4186f6b6457e09190a35050565b80356001600160a01b038116811461088d57600080fd5b919050565b6000602082840312156108a457600080fd5b6108ad82610876565b9392505050565b600080604083850312156108c757600080fd5b823591506108d760208401610876565b90509250929050565b6000602082840312156108f257600080fd5b5035919050565b600080600080600060a0868803121561091157600080fd5b8535945061092160208701610876565b935061092f60408701610876565b94979396509394606081013594506080013592915050565b634e487b7160e01b600052601160045260246000fd5b8082018082111561097057610970610947565b92915050565b60006001820161098857610988610947565b506001019056fea264697066735822122087672ab807d601a60e4d60650849412fa59453588c29f792dccfab593bee81e464736f6c63430008180033",
  "linkReferences": {},
  "deployedLinkReferences": {}
}