{
  "_format": "hh-sol-artifact-1",
  "contractName": "GaslessForwarder",
  "sourceName": "contracts/GaslessForwarder.sol",
  "abi": [
    {
      "inputs": [],
      "stateMutability": "nonpayable",
      "type": "constructor"
    },
    {
      "inputs": [
        {
          "internalType": "address",
          "name": "owner",
          "type": "address"
        }
      ],
      "name": "OwnableInvalidOwner",
      "type": "error"
    },
    {
      "inputs": [
        {
          "internalType": "address",
          "name": "account",
          "type": "address"
        }
      ],
      "name": "OwnableUnauthorizedAccount",
      "type": "error"
    },
    {
      "anonymous": false,
      "inputs": [
        {
          "indexed": true,
          "internalType": "address",
          "name": "previousOwner",
          "type": "address"
        },
        {
          "indexed": true,
          "internalType": "address",
          "name": "newOwner",
          "type": "address"
        }
      ],
      "name": "OwnershipTransferred",
      "type": "event"
    },
    {
      "anonymous": false,
      "inputs": [
        {
          "indexed": true,
          "internalType": "address",
          "name": "from",
          "type": "address"
        },
        {
          "indexed": true,
          "internalType": "address",
          "name": "to",
          "type": "address"
        },
        {
          "indexed": false,
          "internalType": "bytes",
          "name": "data",
          "type": "bytes"
        },
        {
          "indexed": false,
          "internalType": "uint256",
          "name": "nonce",
          "type": "uint256"
        }
      ],
      "name": "RequestExecuted",
      "type": "event"
    },
    {
      "inputs": [
        {
          "internalType": "address",
          "name": "from",
          "type": "address"
        },
        {
          "internalType": "address",
          "name": "to",
          "type": "address"
        },
        {
          "internalType": "bytes",
          "name": "data",
          "type": "bytes"
        },
        {
          "internalType": "uint256",
          "name": "nonce",
          "type": "uint256"
        },
        {
          "internalType": "bytes",
          "name": "signature",
          "type": "bytes"
        }
      ],
      "name": "execute",
      "outputs": [
        {
          "internalType": "bool",
          "name": "",
          "type": "bool"
        },
        {
          "internalType": "bytes",
          "name": "",
          "type": "bytes"
        }
      ],
      "stateMutability": "nonpayable",
      "type": "function"
    },
    {
      "inputs": [
        {
          "internalType": "bytes32",
          "name": "",
          "type": "bytes32"
        }
      ],
      "name": "executed",
      "outputs": [
        {
          "internalType": "bool",
          "name": "",
          "type": "bool"
        }
      ],
      "stateMutability": "view",
      "type": "function"
    },
    {
      "inputs": [
        {
          "internalType": "address",
          "name": "from",
          "type": "address"
        }
      ],
      "name": "getNonce",
      "outputs": [
        {
          "internalType": "uint256",
          "name": "",
          "type": "uint256"
        }
      ],
      "stateMutability": "view",
      "type": "function"
    },
    {
      "inputs": [
        {
          "internalType": "address",
          "name": "",
          "type": "address"
        }
      ],
      "name": "nonces",
      "outputs": [
        {
          "internalType": "uint256",
          "name": "",
          "type": "uint256"
        }
      ],
      "stateMutability": "view",
      "type": "function"
    },
    {
      "inputs": [],
      "name": "owner",
      "outputs": [
        {
          "internalType": "address",
          "name": "",
          "type": "address"
        }
      ],
      "stateMutability": "view",
      "type": "function"
    },
    {
      "inputs": [],
      "name": "renounceOwnership",
      "outputs": [],
      "stateMutability": "nonpayable",
      "type": "function"
    },
    {
      "inputs": [
        {
          "internalType": "address",
          "name": "newOwner",
          "type": "address"
        }
      ],
      "name": "transferOwnership",
      "outputs": [],
      "stateMutability": "nonpayable",
      "type": "function"
    }
  ],
  "bytecode": "0x608060405234801561001057600080fd5b50338061003757604051631e4fbdf760e01b81526000600482015260240160405180910390fd5b61004081610046565b50610096565b600080546001600160a01b038381166001600160a01b0319831681178455604051919092169283917f8be0079c531659141344cd1fd0a4f28419497f9722a3daafe3b4186f6b6457e09190a35050565b61094e806100a56000396000f3fe608060405234801561001057600080fd5b506004361061007d5760003560e01c80637ecebe001161005b5780637ecebe00146100e95780638da5cb5b14610109578063a9fcfb3314610124578063f2fde38b1461015757600080fd5b80632d0335ab1461008257806340a805dc146100be578063715018a6146100df575b600080fd5b6100ab6100903660046106c9565b6001600160a01b031660009081526002602052604090205490565b6040519081526020015b60405180910390f35b6100d16100cc366004610734565b61016a565b6040516100b59291906107cf565b6100e7610498565b005b6100ab6100f73660046106c9565b60026020526000908152604090205481565b6000546040516001600160a01b0390911681526020016100b5565b610147610132366004610828565b60016020526000908152604090205460ff1681565b60405190151581526020016100b5565b6100e76101653660046106c9565b6104ac565b6001600160a01b03871660009081526002602052604081205460609085146101c95760405162461bcd60e51b815260206004820152600d60248201526c496e76616c6964206e6f6e636560981b60448201526064015b60405180910390fd5b60008989898989466040516020016101e696959493929190610841565b60405160208183030381529060405280519060200120905060008160405160200161023d91907f19457468657265756d205369676e6564204d6573736167653a0a3332000000008152601c810191909152603c0190565b60405160208183030381529060405280519060200120905060006102978288888080601f0160208091040260200160405190810160405280939291908181526020018383808284376000920191909152506104ea92505050565b90508b6001600160a01b0316816001600160a01b0316146102ee5760405162461bcd60e51b8152602060048201526011602482015270496e76616c6964207369676e617475726560781b60448201526064016101c0565b60008381526001602052604090205460ff161561034d5760405162461bcd60e51b815260206004820152601860248201527f5265717565737420616c7265616479206578656375746564000000000000000060448201526064016101c0565b6000838152600160208181526040808420805460ff19169093179092556001600160a01b038f1683526002905281208054916103888361089d565b91905055506000808c6001600160a01b03168c8c6040516103aa9291906108b6565b6000604051808303816000865af19150503d80600081146103e7576040519150601f19603f3d011682016040523d82523d6000602084013e6103ec565b606091505b5091509150816104365760405162461bcd60e51b8152602060048201526015602482015274119bdc9dd85c9919590818d85b1b0819985a5b1959605a1b60448201526064016101c0565b8c6001600160a01b03168e6001600160a01b03167f038b40c9db72d7ab12ac935561f314de2b74702b58c05b749541b4b5ebd18fe28e8e8e60405161047d939291906108c6565b60405180910390a3909d909c509a5050505050505050505050565b6104a0610630565b6104aa600061065d565b565b6104b4610630565b6001600160a01b0381166104de57604051631e4fbdf760e01b8152600060048201526024016101c0565b6104e78161065d565b50565b6000815160411461053d5760405162461bcd60e51b815260206004820152601860248201527f496e76616c6964207369676e6174757265206c656e677468000000000000000060448201526064016101c0565b60208201516040830151606084015160001a601b81101561056657610563601b826108ff565b90505b8060ff16601b148061057b57508060ff16601c145b6105c75760405162461bcd60e51b815260206004820152601b60248201527f496e76616c6964207369676e6174757265202776272076616c7565000000000060448201526064016101c0565b60408051600081526020810180835288905260ff831691810191909152606081018490526080810183905260019060a0016020604051602081039080840390855afa15801561061a573d6000803e3d6000fd5b5050506020604051035193505050505b92915050565b6000546001600160a01b031633146104aa5760405163118cdaa760e01b81523360048201526024016101c0565b600080546001600160a01b038381166001600160a01b0319831681178455604051919092169283917f8be0079c531659141344cd1fd0a4f28419497f9722a3daafe3b4186f6b6457e09190a35050565b80356001600160a01b03811681146106c457600080fd5b919050565b6000602082840312156106db57600080fd5b6106e4826106ad565b9392505050565b60008083601f8401126106fd57600080fd5b50813567ffffffffffffffff81111561071557600080fd5b60208301915083602082850101111561072d57600080fd5b9250929050565b600080600080600080600060a0888a03121561074f57600080fd5b610758886106ad565b9650610766602089016106ad565b9550604088013567ffffffffffffffff8082111561078357600080fd5b61078f8b838c016106eb565b909750955060608a0135945060808a01359150808211156107af57600080fd5b506107bc8a828b016106eb565b989b979a50959850939692959293505050565b82151581526000602060406020840152835180604085015260005b81811015610806578581018301518582016060015282016107ea565b506000606082860101526060601f19601f830116850101925050509392505050565b60006020828403121561083a57600080fd5b5035919050565b60006bffffffffffffffffffffffff19808960601b168352808860601b166014840152508486602884013750602893019283019190915260488201526068019392505050565b634e487b7160e01b600052601160045260246000fd5b6000600182016108af576108af610887565b5060010190565b8183823760009101908152919050565b604081528260408201528284606083013760006060848301015260006060601f19601f8601168301019050826020830152949350505050565b60ff818116838216019081111561062a5761062a61088756fea26469706673582212207b447205de96e19abf6455c2cffe6c12e1800ec97e79a72f9623982861074fc864736f6c63430008180033",
  "linkReferences": {},
  "deployedLinkReferences": {}
}