{
  "_format": "hh-sol-artifact-1",
  "contractName": "LockAndMint",
  "sourceName": "contracts/LockAndMint.sol",
  "abi": [
    {
      "inputs": [],
      "stateMutability": "nonpayable",
      "type": "constructor"
    },
    {
      "inputs": [
        {
          "internalType": "address",
          "name": "owner",
          "type": "address"
        }
      ],
      "name": "OwnableInvalidOwner",
      "type": "error"
    },
    {
      "inputs": [
        {
          "internalType": "address",
          "name": "account",
          "type": "address"
        }
      ],
      "name": "OwnableUnauthorizedAccount",
      "type": "error"
    },
    {
      "anonymous": false,
      "inputs": [
        {
          "indexed": true,
          "internalType": "bytes32",
          "name": "requestId",
          "type": "bytes32"
        },
        {
          "indexed": true,
          "internalType": "address",
          "name": "asset",
          "type": "address"
        },
        {
          "indexed": false,
          "internalType": "enum LockAndMint.AssetType",
          "name": "assetType",
          "type": "uint8"
        },
        {
          "indexed": true,
          "internalType": "address",
          "name": "sender",
          "type": "address"
        },
        {
          "indexed": false,
          "internalType": "address",
          "name": "receiver",
          "type": "address"
        },
        {
          "indexed": false,
          "internalType": "uint256",
          "name": "amount",
          "type": "uint256"
        },
        {
          "indexed": false,
          "internalType": "uint256",
          "name": "tokenId",
          "type": "uint256"
        }
      ],
      "name": "AssetLocked",
      "type": "event"
    },
    {
      "anonymous": false,
      "inputs": [
        {
          "indexed": true,
          "internalType": "bytes32",
          "name": "requestId",
          "type": "bytes32"
        },
        {
          "indexed": true,
          "internalType": "address",
          "name": "wrappedAsset",
          "type": "address"
        },
        {
          "indexed": true,
          "internalType": "address",
          "name": "receiver",
          "type": "address"
        },
        {
          "indexed": false,
          "internalType": "uint256",
          "name": "amount",
          "type": "uint256"
        },
        {
          "indexed": false,
          "internalType": "uint256",
          "name": "tokenId",
          "type": "uint256"
        }
      ],
      "name": "AssetMinted",
      "type": "event"
    },
    {
      "anonymous": false,
      "inputs": [
        {
          "indexed": true,
          "internalType": "address",
          "name": "previousOwner",
          "type": "address"
        },
        {
          "indexed": true,
          "internalType": "address",
          "name": "newOwner",
          "type": "address"
        }
      ],
      "name": "OwnershipTransferred",
      "type": "event"
    },
    {
      "inputs": [
        {
          "internalType": "address",
          "name": "asset",
          "type": "address"
        },
        {
          "internalType": "address",
          "name": "wrappedVersion",
          "type": "address"
        },
        {
          "internalType": "enum LockAndMint.AssetType",
          "name": "",
          "type": "uint8"
        }
      ],
      "name": "addSupportedAsset",
      "outputs": [],
      "stateMutability": "nonpayable",
      "type": "function"
    },
    {
      "inputs": [
        {
          "internalType": "address",
          "name": "",
          "type": "address"
        }
      ],
      "name": "assetToWrapped",
      "outputs": [
        {
          "internalType": "address",
          "name": "",
          "type": "address"
        }
      ],
      "stateMutability": "view",
      "type": "function"
    },
    {
      "inputs": [
        {
          "internalType": "address",
          "name": "asset",
          "type": "address"
        },
        {
          "internalType": "enum LockAndMint.AssetType",
          "name": "assetType",
          "type": "uint8"
        },
        {
          "internalType": "uint256",
          "name": "amount",
          "type": "uint256"
        },
        {
          "internalType": "uint256",
          "name": "tokenId",
          "type": "uint256"
        },
        {
          "internalType": "address",
          "name": "receiver",
          "type": "address"
        }
      ],
      "name": "lockAndMint",
      "outputs": [],
      "stateMutability": "nonpayable",
      "type": "function"
    },
    {
      "inputs": [],
      "name": "owner",
      "outputs": [
        {
          "internalType": "address",
          "name": "",
          "type": "address"
        }
      ],
      "stateMutability": "view",
      "type": "function"
    },
    {
      "inputs": [
        {
          "internalType": "bytes32",
          "name": "",
          "type": "bytes32"
        }
      ],
      "name": "processedRequests",
      "outputs": [
        {
          "internalType": "bool",
          "name": "",
          "type": "bool"
        }
      ],
      "stateMutability": "view",
      "type": "function"
    },
    {
      "inputs": [],
      "name": "renounceOwnership",
      "outputs": [],
      "stateMutability": "nonpayable",
      "type": "function"
    },
    {
      "inputs": [
        {
          "internalType": "address",
          "name": "",
          "type": "address"
        }
      ],
      "name": "supportedAssets",
      "outputs": [
        {
          "internalType": "bool",
          "name": "",
          "type": "bool"
        }
      ],
      "stateMutability": "view",
      "type": "function"
    },
    {
      "inputs": [
        {
          "internalType": "address",
          "name": "newOwner",
          "type": "address"
        }
      ],
      "name": "transferOwnership",
      "outputs": [],
      "stateMutability": "nonpayable",
      "type": "function"
    }
  ],
  "bytecode": "0x60806040523480156200001157600080fd5b50336001600081905550600073ffffffffffffffffffffffffffffffffffffffff168173ffffffffffffffffffffffffffffffffffffffff1603620000905760006040517f1e4fbdf7000000000000000000000000000000000000000000000000000000008152600401620000879190620001b3565b60405180910390fd5b620000a181620000a860201b60201c565b50620001d0565b6000600160009054906101000a900473ffffffffffffffffffffffffffffffffffffffff16905081600160006101000a81548173ffffffffffffffffffffffffffffffffffffffff021916908373ffffffffffffffffffffffffffffffffffffffff1602179055508173ffffffffffffffffffffffffffffffffffffffff168173ffffffffffffffffffffffffffffffffffffffff167f8be0079c531659141344cd1fd0a4f28419497f9722a3daafe3b4186f6b6457e060405160405180910390a35050565b600073ffffffffffffffffffffffffffffffffffffffff82169050919050565b60006200019b826200016e565b9050919050565b620001ad816200018e565b82525050565b6000602082019050620001ca6000830184620001a2565b92915050565b6113c780620001e06000396000f3fe608060405234801561001057600080fd5b50600436106100885760003560e01c80639e79e4951161005b5780639e79e495146100ed578063bd81579e1461011d578063ce0fa5a91461014d578063f2fde38b1461017d57610088565b8063066c2b361461008d57806360772c92146100a9578063715018a6146100c55780638da5cb5b146100cf575b600080fd5b6100a760048036038101906100a29190610bcb565b610199565b005b6100c360048036038101906100be9190610c54565b610325565b005b6100cd6108b7565b005b6100d76108cb565b6040516100e49190610cde565b60405180910390f35b61010760048036038101906101029190610cf9565b6108f5565b6040516101149190610cde565b60405180910390f35b61013760048036038101906101329190610cf9565b610928565b6040516101449190610d41565b60405180910390f35b61016760048036038101906101629190610d92565b610948565b6040516101749190610d41565b60405180910390f35b61019760048036038101906101929190610cf9565b610968565b005b6101a16109ee565b600073ffffffffffffffffffffffffffffffffffffffff168373ffffffffffffffffffffffffffffffffffffffff161415801561020b5750600073ffffffffffffffffffffffffffffffffffffffff168273ffffffffffffffffffffffffffffffffffffffff1614155b61024a576040517f08c379a000000000000000000000000000000000000000000000000000000000815260040161024190610e1c565b60405180910390fd5b6001600360008573ffffffffffffffffffffffffffffffffffffffff1673ffffffffffffffffffffffffffffffffffffffff16815260200190815260200160002060006101000a81548160ff02191690831515021790555081600460008573ffffffffffffffffffffffffffffffffffffffff1673ffffffffffffffffffffffffffffffffffffffff16815260200190815260200160002060006101000a81548173ffffffffffffffffffffffffffffffffffffffff021916908373ffffffffffffffffffffffffffffffffffffffff160217905550505050565b60026000540361036a576040517f08c379a000000000000000000000000000000000000000000000000000000000815260040161036190610e88565b60405180910390fd5b6002600081905550600360008673ffffffffffffffffffffffffffffffffffffffff1673ffffffffffffffffffffffffffffffffffffffff16815260200190815260200160002060009054906101000a900460ff166103fe576040517f08c379a00000000000000000000000000000000000000000000000000000000081526004016103f590610ef4565b60405180910390fd5b600073ffffffffffffffffffffffffffffffffffffffff168173ffffffffffffffffffffffffffffffffffffffff160361046d576040517f08c379a000000000000000000000000000000000000000000000000000000000815260040161046490610f60565b60405180910390fd5b60008585338487874260405160200161048c9796959493929190611087565b6040516020818303038152906040528051906020012090506002600082815260200190815260200160002060009054906101000a900460ff1615610505576040517f08c379a00000000000000000000000000000000000000000000000000000000081526004016104fc90611154565b60405180910390fd5b6000600181111561051957610518610fc8565b5b85600181111561052c5761052b610fc8565b5b036105f5578573ffffffffffffffffffffffffffffffffffffffff166323b872dd3330876040518463ffffffff1660e01b815260040161056e93929190611183565b6020604051808303816000875af115801561058d573d6000803e3d6000fd5b505050506040513d601f19601f820116820180604052508101906105b191906111e6565b6105f0576040517f08c379a00000000000000000000000000000000000000000000000000000000081526004016105e79061125f565b60405180910390fd5b6106a8565b60008414610638576040517f08c379a000000000000000000000000000000000000000000000000000000000815260040161062f906112cb565b60405180910390fd5b8573ffffffffffffffffffffffffffffffffffffffff166323b872dd3330866040518463ffffffff1660e01b815260040161067593929190611183565b600060405180830381600087803b15801561068f57600080fd5b505af11580156106a3573d6000803e3d6000fd5b505050505b60016002600083815260200190815260200160002060006101000a81548160ff0219169083151502179055503373ffffffffffffffffffffffffffffffffffffffff168673ffffffffffffffffffffffffffffffffffffffff16827f8ce6fa2ef06e9a545986e3f2bad51628a2fb1353e34340155f212645901593bb8886898960405161073894939291906112fa565b60405180910390a46000600460008873ffffffffffffffffffffffffffffffffffffffff1673ffffffffffffffffffffffffffffffffffffffff16815260200190815260200160002060009054906101000a900473ffffffffffffffffffffffffffffffffffffffff169050600060018111156107b8576107b7610fc8565b5b8660018111156107cb576107ca610fc8565b5b0361083e578073ffffffffffffffffffffffffffffffffffffffff166340c10f1984876040518363ffffffff1660e01b815260040161080b92919061133f565b600060405180830381600087803b15801561082557600080fd5b505af1158015610839573d6000803e3d6000fd5b505050505b8273ffffffffffffffffffffffffffffffffffffffff168173ffffffffffffffffffffffffffffffffffffffff16837f48f409a802abbbe902790a364f23762a40d25ebba023e3e6efdc6dac2f81e581888860405161089e929190611368565b60405180910390a4505060016000819055505050505050565b6108bf6109ee565b6108c96000610a75565b565b6000600160009054906101000a900473ffffffffffffffffffffffffffffffffffffffff16905090565b60046020528060005260406000206000915054906101000a900473ffffffffffffffffffffffffffffffffffffffff1681565b60036020528060005260406000206000915054906101000a900460ff1681565b60026020528060005260406000206000915054906101000a900460ff1681565b6109706109ee565b600073ffffffffffffffffffffffffffffffffffffffff168173ffffffffffffffffffffffffffffffffffffffff16036109e25760006040517f1e4fbdf70000000000000000000000000000000000000000000000000000000081526004016109d99190610cde565b60405180910390fd5b6109eb81610a75565b50565b6109f6610b3b565b73ffffffffffffffffffffffffffffffffffffffff16610a146108cb565b73ffffffffffffffffffffffffffffffffffffffff1614610a7357610a37610b3b565b6040517f118cdaa7000000000000000000000000000000000000000000000000000000008152600401610a6a9190610cde565b60405180910390fd5b565b6000600160009054906101000a900473ffffffffffffffffffffffffffffffffffffffff16905081600160006101000a81548173ffffffffffffffffffffffffffffffffffffffff021916908373ffffffffffffffffffffffffffffffffffffffff1602179055508173ffffffffffffffffffffffffffffffffffffffff168173ffffffffffffffffffffffffffffffffffffffff167f8be0079c531659141344cd1fd0a4f28419497f9722a3daafe3b4186f6b6457e060405160405180910390a35050565b600033905090565b600080fd5b600073ffffffffffffffffffffffffffffffffffffffff82169050919050565b6000610b7382610b48565b9050919050565b610b8381610b68565b8114610b8e57600080fd5b50565b600081359050610ba081610b7a565b92915050565b60028110610bb357600080fd5b50565b600081359050610bc581610ba6565b92915050565b600080600060608486031215610be457610be3610b43565b5b6000610bf286828701610b91565b9350506020610c0386828701610b91565b9250506040610c1486828701610bb6565b9150509250925092565b6000819050919050565b610c3181610c1e565b8114610c3c57600080fd5b50565b600081359050610c4e81610c28565b92915050565b600080600080600060a08688031215610c7057610c6f610b43565b5b6000610c7e88828901610b91565b9550506020610c8f88828901610bb6565b9450506040610ca088828901610c3f565b9350506060610cb188828901610c3f565b9250506080610cc288828901610b91565b9150509295509295909350565b610cd881610b68565b82525050565b6000602082019050610cf36000830184610ccf565b92915050565b600060208284031215610d0f57610d0e610b43565b5b6000610d1d84828501610b91565b91505092915050565b60008115159050919050565b610d3b81610d26565b82525050565b6000602082019050610d566000830184610d32565b92915050565b6000819050919050565b610d6f81610d5c565b8114610d7a57600080fd5b50565b600081359050610d8c81610d66565b92915050565b600060208284031215610da857610da7610b43565b5b6000610db684828501610d7d565b91505092915050565b600082825260208201905092915050565b7f496e76616c696420616464726573736573000000000000000000000000000000600082015250565b6000610e06601183610dbf565b9150610e1182610dd0565b602082019050919050565b60006020820190508181036000830152610e3581610df9565b9050919050565b7f5265656e7472616e637947756172643a207265656e7472616e742063616c6c00600082015250565b6000610e72601f83610dbf565b9150610e7d82610e3c565b602082019050919050565b60006020820190508181036000830152610ea181610e65565b9050919050565b7f4173736574206e6f7420737570706f7274656400000000000000000000000000600082015250565b6000610ede601383610dbf565b9150610ee982610ea8565b602082019050919050565b60006020820190508181036000830152610f0d81610ed1565b9050919050565b7f496e76616c696420726563656976657200000000000000000000000000000000600082015250565b6000610f4a601083610dbf565b9150610f5582610f14565b602082019050919050565b60006020820190508181036000830152610f7981610f3d565b9050919050565b60008160601b9050919050565b6000610f9882610f80565b9050919050565b6000610faa82610f8d565b9050919050565b610fc2610fbd82610b68565b610f9f565b82525050565b7f4e487b7100000000000000000000000000000000000000000000000000000000600052602160045260246000fd5b6002811061100857611007610fc8565b5b50565b600081905061101982610ff7565b919050565b60006110298261100b565b9050919050565b60008160f81b9050919050565b600061104882611030565b9050919050565b61106061105b8261101e565b61103d565b82525050565b6000819050919050565b61108161107c82610c1e565b611066565b82525050565b6000611093828a610fb1565b6014820191506110a3828961104f565b6001820191506110b38288610fb1565b6014820191506110c38287610fb1565b6014820191506110d38286611070565b6020820191506110e38285611070565b6020820191506110f38284611070565b60208201915081905098975050505050505050565b7f5265717565737420616c72656164792070726f63657373656400000000000000600082015250565b600061113e601983610dbf565b915061114982611108565b602082019050919050565b6000602082019050818103600083015261116d81611131565b9050919050565b61117d81610c1e565b82525050565b60006060820190506111986000830186610ccf565b6111a56020830185610ccf565b6111b26040830184611174565b949350505050565b6111c381610d26565b81146111ce57600080fd5b50565b6000815190506111e0816111ba565b92915050565b6000602082840312156111fc576111fb610b43565b5b600061120a848285016111d1565b91505092915050565b7f5472616e73666572206661696c65640000000000000000000000000000000000600082015250565b6000611249600f83610dbf565b915061125482611213565b602082019050919050565b600060208201905081810360008301526112788161123c565b9050919050565b7f496e76616c696420616d6f756e7420666f722045524337323100000000000000600082015250565b60006112b5601983610dbf565b91506112c08261127f565b602082019050919050565b600060208201905081810360008301526112e4816112a8565b9050919050565b6112f48161101e565b82525050565b600060808201905061130f60008301876112eb565b61131c6020830186610ccf565b6113296040830185611174565b6113366060830184611174565b95945050505050565b60006040820190506113546000830185610ccf565b6113616020830184611174565b9392505050565b600060408201905061137d6000830185611174565b61138a6020830184611174565b939250505056fea2646970667358221220c4c45dd6100f838918db88f227e2ee1c559088abbe455a4e596ed7c0109c898f64736f6c63430008180033",
  "linkReferences": {},
  "deployedLinkReferences": {}
}