{
  "_format": "hh-sol-artifact-1",
  "contractName": "LockAndMint",
  "sourceName": "contracts/LockAndMint.sol",
  "abi": [
    {
      "inputs": [],
      "stateMutability": "nonpayable",
      "type": "constructor"
    },
    {
      "inputs": [
        {
          "internalType": "address",
          "name": "owner",
          "type": "address"
        }
      ],
      "name": "OwnableInvalidOwner",
      "type": "error"
    },
    {
      "inputs": [
        {
          "internalType": "address",
          "name": "account",
          "type": "address"
        }
      ],
      "name": "OwnableUnauthorizedAccount",
      "type": "error"
    },
    {
      "anonymous": false,
      "inputs": [
        {
          "indexed": true,
          "internalType": "bytes32",
          "name": "requestId",
          "type": "bytes32"
        },
        {
          "indexed": true,
          "internalType": "address",
          "name": "asset",
          "type": "address"
        },
        {
          "indexed": false,
          "internalType": "enum LockAndMint.AssetType",
          "name": "assetType",
          "type": "uint8"
        },
        {
          "indexed": true,
          "internalType": "address",
          "name": "sender",
          "type": "address"
        },
        {
          "indexed": false,
          "internalType": "address",
          "name": "receiver",
          "type": "address"
        },
        {
          "indexed": false,
          "internalType": "uint256",
          "name": "amount",
          "type": "uint256"
        },
        {
          "indexed": false,
          "internalType": "uint256",
          "name": "tokenId",
          "type": "uint256"
        }
      ],
      "name": "AssetLocked",
      "type": "event"
    },
    {
      "anonymous": false,
      "inputs": [
        {
          "indexed": true,
          "internalType": "bytes32",
          "name": "requestId",
          "type": "bytes32"
        },
        {
          "indexed": true,
          "internalType": "address",
          "name": "wrappedAsset",
          "type": "address"
        },
        {
          "indexed": true,
          "internalType": "address",
          "name": "receiver",
          "type": "address"
        },
        {
          "indexed": false,
          "internalType": "uint256",
          "name": "amount",
          "type": "uint256"
        },
        {
          "indexed": false,
          "internalType": "uint256",
          "name": "tokenId",
          "type": "uint256"
        }
      ],
      "name": "AssetMinted",
      "type": "event"
    },
    {
      "anonymous": false,
      "inputs": [
        {
          "indexed": true,
          "internalType": "address",
          "name": "previousOwner",
          "type": "address"
        },
        {
          "indexed": true,
          "internalType": "address",
          "name": "newOwner",
          "type": "address"
        }
      ],
      "name": "OwnershipTransferred",
      "type": "event"
    },
    {
      "inputs": [
        {
          "internalType": "address",
          "name": "asset",
          "type": "address"
        },
        {
          "internalType": "address",
          "name": "wrappedVersion",
          "type": "address"
        },
        {
          "internalType": "enum LockAndMint.AssetType",
          "name": "",
          "type": "uint8"
        }
      ],
      "name": "addSupportedAsset",
      "outputs": [],
      "stateMutability": "nonpayable",
      "type": "function"
    },
    {
      "inputs": [
        {
          "internalType": "address",
          "name": "",
          "type": "address"
        }
      ],
      "name": "assetToWrapped",
      "outputs": [
        {
          "internalType": "address",
          "name": "",
          "type": "address"
        }
      ],
      "stateMutability": "view",
      "type": "function"
    },
    {
      "inputs": [
        {
          "internalType": "address",
          "name": "asset",
          "type": "address"
        },
        {
          "internalType": "enum LockAndMint.AssetType",
          "name": "assetType",
          "type": "uint8"
        },
        {
          "internalType": "uint256",
          "name": "amount",
          "type": "uint256"
        },
        {
          "internalType": "uint256",
          "name": "tokenId",
          "type": "uint256"
        },
        {
          "internalType": "address",
          "name": "receiver",
          "type": "address"
        }
      ],
      "name": "lockAndMint",
      "outputs": [],
      "stateMutability": "nonpayable",
      "type": "function"
    },
    {
      "inputs": [],
      "name": "owner",
      "outputs": [
        {
          "internalType": "address",
          "name": "",
          "type": "address"
        }
      ],
      "stateMutability": "view",
      "type": "function"
    },
    {
      "inputs": [
        {
          "internalType": "bytes32",
          "name": "",
          "type": "bytes32"
        }
      ],
      "name": "processedRequests",
      "outputs": [
        {
          "internalType": "bool",
          "name": "",
          "type": "bool"
        }
      ],
      "stateMutability": "view",
      "type": "function"
    },
    {
      "inputs": [],
      "name": "renounceOwnership",
      "outputs": [],
      "stateMutability": "nonpayable",
      "type": "function"
    },
    {
      "inputs": [
        {
          "internalType": "address",
          "name": "",
          "type": "address"
        }
      ],
      "name": "supportedAssets",
      "outputs": [
        {
          "internalType": "bool",
          "name": "",
          "type": "bool"
        }
      ],
      "stateMutability": "view",
      "type": "function"
    },
    {
      "inputs": [
        {
          "internalType": "address",
          "name": "newOwner",
          "type": "address"
        }
      ],
      "name": "transferOwnership",
      "outputs": [],
      "stateMutability": "nonpayable",
      "type": "function"
    }
  ],
  "bytecode": "0x608060405234801561001057600080fd5b506001600055338061003c57604051631e4fbdf760e01b81526000600482015260240160405180910390fd5b6100458161004b565b5061009d565b600180546001600160a01b038381166001600160a01b0319831681179093556040519116919082907f8be0079c531659141344cd1fd0a4f28419497f9722a3daafe3b4186f6b6457e090600090a35050565b6109a5806100ac6000396000f3fe608060405234801561001057600080fd5b50600436106100885760003560e01c80639e79e4951161005b5780639e79e495146100e7578063bd81579e14610110578063ce0fa5a914610143578063f2fde38b1461016657600080fd5b8063066c2b361461008d57806360772c92146100a2578063715018a6146100b55780638da5cb5b146100bd575b600080fd5b6100a061009b3660046107a7565b610179565b005b6100a06100b03660046107ea565b61022c565b6100a06106ab565b6001546001600160a01b03165b6040516001600160a01b0390911681526020015b60405180910390f35b6100ca6100f5366004610841565b6004602052600090815260409020546001600160a01b031681565b61013361011e366004610841565b60036020526000908152604090205460ff1681565b60405190151581526020016100de565b610133610151366004610863565b60026020526000908152604090205460ff1681565b6100a0610174366004610841565b6106bf565b6101816106fd565b6001600160a01b038316158015906101a157506001600160a01b03821615155b6101e65760405162461bcd60e51b8152602060048201526011602482015270496e76616c69642061646472657373657360781b60448201526064015b60405180910390fd5b506001600160a01b039182166000908152600360209081526040808320805460ff19166001179055600490915290208054919092166001600160a01b0319909116179055565b60026000540361027e5760405162461bcd60e51b815260206004820152601f60248201527f5265656e7472616e637947756172643a207265656e7472616e742063616c6c0060448201526064016101dd565b600260009081556001600160a01b03861681526003602052604090205460ff166102e05760405162461bcd60e51b8152602060048201526013602482015272105cdcd95d081b9bdd081cdd5c1c1bdc9d1959606a1b60448201526064016101dd565b6001600160a01b0381166103295760405162461bcd60e51b815260206004820152601060248201526f24b73b30b634b2103932b1b2b4bb32b960811b60448201526064016101dd565b6000858533848787426040516020016103489796959493929190610892565b60408051601f1981840301815291815281516020928301206000818152600290935291205490915060ff16156103c05760405162461bcd60e51b815260206004820152601960248201527f5265717565737420616c72656164792070726f6365737365640000000000000060448201526064016101dd565b60008560018111156103d4576103d461087c565b03610493576040516323b872dd60e01b8152336004820152306024820152604481018590526001600160a01b038716906323b872dd906064016020604051808303816000875af115801561042c573d6000803e3d6000fd5b505050506040513d601f19601f820116820180604052508101906104509190610906565b61048e5760405162461bcd60e51b815260206004820152600f60248201526e151c985b9cd9995c8819985a5b1959608a1b60448201526064016101dd565b610548565b83156104e15760405162461bcd60e51b815260206004820152601960248201527f496e76616c696420616d6f756e7420666f72204552433732310000000000000060448201526064016101dd565b6040516323b872dd60e01b8152336004820152306024820152604481018490526001600160a01b038716906323b872dd90606401600060405180830381600087803b15801561052f57600080fd5b505af1158015610543573d6000803e3d6000fd5b505050505b60008181526002602052604090819020805460ff191660011790555133906001600160a01b0388169083907f8ce6fa2ef06e9a545986e3f2bad51628a2fb1353e34340155f212645901593bb906105a6908a9088908b908b90610928565b60405180910390a46001600160a01b03808716600090815260046020526040812054909116908660018111156105de576105de61087c565b03610646576040516340c10f1960e01b81526001600160a01b038481166004830152602482018790528216906340c10f1990604401600060405180830381600087803b15801561062d57600080fd5b505af1158015610641573d6000803e3d6000fd5b505050505b826001600160a01b0316816001600160a01b0316837f48f409a802abbbe902790a364f23762a40d25ebba023e3e6efdc6dac2f81e5818888604051610695929190918252602082015260400190565b60405180910390a4505060016000555050505050565b6106b36106fd565b6106bd600061072a565b565b6106c76106fd565b6001600160a01b0381166106f157604051631e4fbdf760e01b8152600060048201526024016101dd565b6106fa8161072a565b50565b6001546001600160a01b031633146106bd5760405163118cdaa760e01b81523360048201526024016101dd565b600180546001600160a01b038381166001600160a01b0319831681179093556040519116919082907f8be0079c531659141344cd1fd0a4f28419497f9722a3daafe3b4186f6b6457e090600090a35050565b80356001600160a01b038116811461079357600080fd5b919050565b80356002811061079357600080fd5b6000806000606084860312156107bc57600080fd5b6107c58461077c565b92506107d36020850161077c565b91506107e160408501610798565b90509250925092565b600080600080600060a0868803121561080257600080fd5b61080b8661077c565b945061081960208701610798565b935060408601359250606086013591506108356080870161077c565b90509295509295909350565b60006020828403121561085357600080fd5b61085c8261077c565b9392505050565b60006020828403121561087557600080fd5b5035919050565b634e487b7160e01b600052602160045260246000fd5b60006bffffffffffffffffffffffff19808a60601b168352600289106108c857634e487b7160e01b600052602160045260246000fd5b60f89890981b601483015250606095861b871660158201529390941b9094166029830152603d820152605d810192909252607d820152609d01919050565b60006020828403121561091857600080fd5b8151801515811461085c57600080fd5b608081016002861061094a57634e487b7160e01b600052602160045260246000fd5b9481526001600160a01b0393909316602084015260408301919091526060909101529056fea26469706673582212207add74274835e6657b7bb5e59c5bb42a205ee61ccd60a30d6e5e52034dac674b64736f6c63430008180033",
  "linkReferences": {},
  "deployedLinkReferences": {}
}