{
  "_format": "hh-sol-artifact-1",
  "contractName": "CrCoBridge",
  "sourceName": "contracts/CrCoBridge.sol",
  "abi": [
    {
      "inputs": [
        {
          "internalType": "address",
          "name": "_token",
          "type": "address"
        },
        {
          "internalType": "uint256",
          "name": "_chainId",
          "type": "uint256"
        }
      ],
      "stateMutability": "nonpayable",
      "type": "constructor"
    },
    {
      "anonymous": false,
      "inputs": [
        {
          "indexed": true,
          "internalType": "bytes32",
          "name": "transferId",
          "type": "bytes32"
        },
        {
          "indexed": false,
          "internalType": "bytes32",
          "name": "merkleRoot",
          "type": "bytes32"
        },
        {
          "indexed": false,
          "internalType": "uint256",
          "name": "timestamp",
          "type": "uint256"
        }
      ],
      "name": "ProofGenerated",
      "type": "event"
    },
    {
      "anonymous": false,
      "inputs": [
        {
          "indexed": true,
          "internalType": "bytes32",
          "name": "role",
          "type": "bytes32"
        },
        {
          "indexed": true,
          "internalType": "bytes32",
          "name": "previousAdminRole",
          "type": "bytes32"
        },
        {
          "indexed": true,
          "internalType": "bytes32",
          "name": "newAdminRole",
          "type": "bytes32"
        }
      ],
      "name": "RoleAdminChanged",
      "type": "event"
    },
    {
      "anonymous": false,
      "inputs": [
        {
          "indexed": true,
          "internalType": "bytes32",
          "name": "role",
          "type": "bytes32"
        },
        {
          "indexed": true,
          "internalType": "address",
          "name": "account",
          "type": "address"
        },
        {
          "indexed": true,
          "internalType": "address",
          "name": "sender",
          "type": "address"
        }
      ],
      "name": "RoleGranted",
      "type": "event"
    },
    {
      "anonymous": false,
      "inputs": [
        {
          "indexed": true,
          "internalType": "bytes32",
          "name": "role",
          "type": "bytes32"
        },
        {
          "indexed": true,
          "internalType": "address",
          "name": "account",
          "type": "address"
        },
        {
          "indexed": true,
          "internalType": "address",
          "name": "sender",
          "type": "address"
        }
      ],
      "name": "RoleRevoked",
      "type": "event"
    },
    {
      "anonymous": false,
      "inputs": [
        {
          "indexed": true,
          "internalType": "bytes32",
          "name": "transferId",
          "type": "bytes32"
        },
        {
          "indexed": true,
          "internalType": "address",
          "name": "recipient",
          "type": "address"
        },
        {
          "indexed": false,
          "internalType": "uint256",
          "name": "amount",
          "type": "uint256"
        },
        {
          "indexed": false,
          "internalType": "bool",
          "name": "isNFT",
          "type": "bool"
        },
        {
          "indexed": false,
          "internalType": "uint256",
          "name": "tokenId",
          "type": "uint256"
        }
      ],
      "name": "TransferCompleted",
      "type": "event"
    },
    {
      "anonymous": false,
      "inputs": [
        {
          "indexed": true,
          "internalType": "bytes32",
          "name": "transferId",
          "type": "bytes32"
        },
        {
          "indexed": true,
          "internalType": "address",
          "name": "sender",
          "type": "address"
        },
        {
          "indexed": true,
          "internalType": "address",
          "name": "recipient",
          "type": "address"
        },
        {
          "indexed": false,
          "internalType": "uint256",
          "name": "amount",
          "type": "uint256"
        },
        {
          "indexed": false,
          "internalType": "uint256",
          "name": "nonce",
          "type": "uint256"
        },
        {
          "indexed": false,
          "internalType": "uint256",
          "name": "sourceChain",
          "type": "uint256"
        },
        {
          "indexed": false,
          "internalType": "uint256",
          "name": "destinationChain",
          "type": "uint256"
        },
        {
          "indexed": false,
          "internalType": "bool",
          "name": "isNFT",
          "type": "bool"
        },
        {
          "indexed": false,
          "internalType": "uint256",
          "name": "tokenId",
          "type": "uint256"
        }
      ],
      "name": "TransferInitiated",
      "type": "event"
    },
    {
      "inputs": [],
      "name": "DEFAULT_ADMIN_ROLE",
      "outputs": [
        {
          "internalType": "bytes32",
          "name": "",
          "type": "bytes32"
        }
      ],
      "stateMutability": "view",
      "type": "function"
    },
    {
      "inputs": [],
      "name": "RELAYER_ROLE",
      "outputs": [
        {
          "internalType": "bytes32",
          "name": "",
          "type": "bytes32"
        }
      ],
      "stateMutability": "view",
      "type": "function"
    },
    {
      "inputs": [],
      "name": "chainId",
      "outputs": [
        {
          "internalType": "uint256",
          "name": "",
          "type": "uint256"
        }
      ],
      "stateMutability": "view",
      "type": "function"
    },
    {
      "inputs": [
        {
          "internalType": "bytes32[]",
          "name": "_proof",
          "type": "bytes32[]"
        },
        {
          "internalType": "bytes32",
          "name": "_root",
          "type": "bytes32"
        },
        {
          "internalType": "address",
          "name": "_recipient",
          "type": "address"
        },
        {
          "internalType": "uint256",
          "name": "_amount",
          "type": "uint256"
        },
        {
          "internalType": "uint256",
          "name": "_nonce",
          "type": "uint256"
        },
        {
          "internalType": "bool",
          "name": "_isNFT",
          "type": "bool"
        },
        {
          "internalType": "uint256",
          "name": "_tokenId",
          "type": "uint256"
        }
      ],
      "name": "completeTransfer",
      "outputs": [],
      "stateMutability": "nonpayable",
      "type": "function"
    },
    {
      "inputs": [
        {
          "internalType": "bytes32",
          "name": "role",
          "type": "bytes32"
        }
      ],
      "name": "getRoleAdmin",
      "outputs": [
        {
          "internalType": "bytes32",
          "name": "",
          "type": "bytes32"
        }
      ],
      "stateMutability": "view",
      "type": "function"
    },
    {
      "inputs": [
        {
          "internalType": "bytes32",
          "name": "_transferId",
          "type": "bytes32"
        }
      ],
      "name": "getTransferReceipt",
      "outputs": [
        {
          "components": [
            {
              "internalType": "bytes32",
              "name": "transferId",
              "type": "bytes32"
            },
            {
              "internalType": "address",
              "name": "sender",
              "type": "address"
            },
            {
              "internalType": "address",
              "name": "recipient",
              "type": "address"
            },
            {
              "internalType": "uint256",
              "name": "amount",
              "type": "uint256"
            },
            {
              "internalType": "uint256",
              "name": "timestamp",
              "type": "uint256"
            },
            {
              "internalType": "bool",
              "name": "isNFT",
              "type": "bool"
            },
            {
              "internalType": "uint256",
              "name": "tokenId",
              "type": "uint256"
            }
          ],
          "internalType": "struct CrCoBridge.TransferReceipt",
          "name": "",
          "type": "tuple"
        }
      ],
      "stateMutability": "view",
      "type": "function"
    },
    {
      "inputs": [
        {
          "internalType": "bytes32",
          "name": "role",
          "type": "bytes32"
        },
        {
          "internalType": "address",
          "name": "account",
          "type": "address"
        }
      ],
      "name": "grantRole",
      "outputs": [],
      "stateMutability": "nonpayable",
      "type": "function"
    },
    {
      "inputs": [
        {
          "internalType": "bytes32",
          "name": "role",
          "type": "bytes32"
        },
        {
          "internalType": "address",
          "name": "account",
          "type": "address"
        }
      ],
      "name": "hasRole",
      "outputs": [
        {
          "internalType": "bool",
          "name": "",
          "type": "bool"
        }
      ],
      "stateMutability": "view",
      "type": "function"
    },
    {
      "inputs": [
        {
          "internalType": "address",
          "name": "",
          "type": "address"
        },
        {
          "internalType": "uint256",
          "name": "",
          "type": "uint256"
        }
      ],
      "name": "hasTransferredNFT",
      "outputs": [
        {
          "internalType": "bool",
          "name": "",
          "type": "bool"
        }
      ],
      "stateMutability": "view",
      "type": "function"
    },
    {
      "inputs": [
        {
          "internalType": "address",
          "name": "_recipient",
          "type": "address"
        },
        {
          "internalType": "uint256",
          "name": "_amount",
          "type": "uint256"
        },
        {
          "internalType": "uint256",
          "name": "_destinationChain",
          "type": "uint256"
        },
        {
          "internalType": "bool",
          "name": "_isNFT",
          "type": "bool"
        },
        {
          "internalType": "uint256",
          "name": "_tokenId",
          "type": "uint256"
        }
      ],
      "name": "initiateTransfer",
      "outputs": [],
      "stateMutability": "nonpayable",
      "type": "function"
    },
    {
      "inputs": [],
      "name": "nonce",
      "outputs": [
        {
          "internalType": "uint256",
          "name": "",
          "type": "uint256"
        }
      ],
      "stateMutability": "view",
      "type": "function"
    },
    {
      "inputs": [
        {
          "internalType": "bytes32",
          "name": "",
          "type": "bytes32"
        }
      ],
      "name": "processedTransfers",
      "outputs": [
        {
          "internalType": "bool",
          "name": "",
          "type": "bool"
        }
      ],
      "stateMutability": "view",
      "type": "function"
    },
    {
      "inputs": [
        {
          "internalType": "bytes32",
          "name": "role",
          "type": "bytes32"
        },
        {
          "internalType": "address",
          "name": "account",
          "type": "address"
        }
      ],
      "name": "renounceRole",
      "outputs": [],
      "stateMutability": "nonpayable",
      "type": "function"
    },
    {
      "inputs": [
        {
          "internalType": "bytes32",
          "name": "role",
          "type": "bytes32"
        },
        {
          "internalType": "address",
          "name": "account",
          "type": "address"
        }
      ],
      "name": "revokeRole",
      "outputs": [],
      "stateMutability": "nonpayable",
      "type": "function"
    },
    {
      "inputs": [
        {
          "internalType": "uint256",
          "name": "_nonce",
          "type": "uint256"
        },
        {
          "internalType": "bytes32",
          "name": "_root",
          "type": "bytes32"
        }
      ],
      "name": "setTransferRoot",
      "outputs": [],
      "stateMutability": "nonpayable",
      "type": "function"
    },
    {
      "inputs": [
        {
          "internalType": "bytes4",
          "name": "interfaceId",
          "type": "bytes4"
        }
      ],
      "name": "supportsInterface",
      "outputs": [
        {
          "internalType": "bool",
          "name": "",
          "type": "bool"
        }
      ],
      "stateMutability": "view",
      "type": "function"
    },
    {
      "inputs": [],
      "name": "token",
      "outputs": [
        {
          "internalType": "contract CrCoToken",
          "name": "",
          "type": "address"
        }
      ],
      "stateMutability": "view",
      "type": "function"
    },
    {
      "inputs": [
        {
          "internalType": "bytes32",
          "name": "",
          "type": "bytes32"
        }
      ],
      "name": "transferReceipts",
      "outputs": [
        {
          "internalType": "bytes32",
          "name": "transferId",
          "type": "bytes32"
        },
        {
          "internalType": "address",
          "name": "sender",
          "type": "address"
        },
        {
          "internalType": "address",
          "name": "recipient",
          "type": "address"
        },
        {
          "internalType": "uint256",
          "name": "amount",
          "type": "uint256"
        },
        {
          "internalType": "uint256",
          "name": "timestamp",
          "type": "uint256"
        },
        {
          "internalType": "bool",
          "name": "isNFT",
          "type": "bool"
        },
        {
          "internalType": "uint256",
          "name": "tokenId",
          "type": "uint256"
        }
      ],
      "stateMutability": "view",
      "type": "function"
    },
    {
      "inputs": [
        {
          "internalType": "uint256",
          "name": "",
          "type": "uint256"
        }
      ],
      "name": "transferRoot",
      "outputs": [
        {
          "internalType": "bytes32",
          "name": "",
          "type": "bytes32"
        }
      ],
      "stateMutability": "view",
      "type": "function"
    }
  ],
  "bytecode": "0x60806040523480156200001157600080fd5b5060405162002bab38038062002bab8339818101604052810190620000379190620002df565b600160008190555081600260006101000a81548173ffffffffffffffffffffffffffffffffffffffff021916908373ffffffffffffffffffffffffffffffffffffffff160217905550806004819055506200009c6000801b33620000d660201b60201c565b620000ce7fe2b7fb3b832174769106daebcfd6d1970523240dda11281102db9363b83b0dc433620000d660201b60201c565b505062000326565b620000e88282620001c760201b60201c565b620001c357600180600084815260200190815260200160002060000160008373ffffffffffffffffffffffffffffffffffffffff1673ffffffffffffffffffffffffffffffffffffffff16815260200190815260200160002060006101000a81548160ff021916908315150217905550620001686200023260201b60201c565b73ffffffffffffffffffffffffffffffffffffffff168173ffffffffffffffffffffffffffffffffffffffff16837f2f8788117e7eff1d82e926ec794901d17c78024a50270940304540a733656f0d60405160405180910390a45b5050565b60006001600084815260200190815260200160002060000160008373ffffffffffffffffffffffffffffffffffffffff1673ffffffffffffffffffffffffffffffffffffffff16815260200190815260200160002060009054906101000a900460ff16905092915050565b600033905090565b600080fd5b600073ffffffffffffffffffffffffffffffffffffffff82169050919050565b60006200026c826200023f565b9050919050565b6200027e816200025f565b81146200028a57600080fd5b50565b6000815190506200029e8162000273565b92915050565b6000819050919050565b620002b981620002a4565b8114620002c557600080fd5b50565b600081519050620002d981620002ae565b92915050565b60008060408385031215620002f957620002f86200023a565b5b600062000309858286016200028d565b92505060206200031c85828601620002c8565b9150509250929050565b61287580620003366000396000f3fe608060405234801561001057600080fd5b50600436106101215760003560e01c8063a217fddf116100ad578063d547741f11610071578063d547741f14610334578063dd910d7514610350578063e3c2da4414610380578063e83e8f681461039c578063fc0c546a146103cc57610121565b8063a217fddf1461028a578063affed0e0146102a8578063b744a2f8146102c6578063cb21ae94146102e2578063d3f893ba1461031857610121565b806336568abe116100f457806336568abe146101d2578063600d778a146101ee57806391d148541461021e578063926d7d7f1461024e5780639a8a05921461026c57610121565b806301ffc9a7146101265780630cb1ae8c14610156578063248a9ca3146101865780632f2ff15d146101b6575b600080fd5b610140600480360381019061013b919061187c565b6103ea565b60405161014d91906118c4565b60405180910390f35b610170600480360381019061016b9190611915565b610464565b60405161017d9190611a48565b60405180910390f35b6101a0600480360381019061019b9190611915565b610580565b6040516101ad9190611a72565b60405180910390f35b6101d060048036038101906101cb9190611ab9565b6105a0565b005b6101ec60048036038101906101e79190611ab9565b6105c1565b005b61020860048036038101906102039190611b25565b610644565b6040516102159190611a72565b60405180910390f35b61023860048036038101906102339190611ab9565b61065c565b60405161024591906118c4565b60405180910390f35b6102566106c7565b6040516102639190611a72565b60405180910390f35b6102746106eb565b6040516102819190611b61565b60405180910390f35b6102926106f1565b60405161029f9190611a72565b60405180910390f35b6102b06106f8565b6040516102bd9190611b61565b60405180910390f35b6102e060048036038101906102db9190611ba8565b6106fe565b005b6102fc60048036038101906102f79190611915565b610c4f565b60405161030f9796959493929190611c32565b60405180910390f35b610332600480360381019061032d9190611ca1565b610cde565b005b61034e60048036038101906103499190611ab9565b610d25565b005b61036a60048036038101906103659190611915565b610d46565b60405161037791906118c4565b60405180910390f35b61039a60048036038101906103959190611d46565b610d66565b005b6103b660048036038101906103b19190611e08565b611119565b6040516103c391906118c4565b60405180910390f35b6103d4611148565b6040516103e19190611ea7565b60405180910390f35b60007f7965db0b000000000000000000000000000000000000000000000000000000007bffffffffffffffffffffffffffffffffffffffffffffffffffffffff1916827bffffffffffffffffffffffffffffffffffffffffffffffffffffffff1916148061045d575061045c8261116e565b5b9050919050565b61046c6117ac565b600860008381526020019081526020016000206040518060e0016040529081600082015481526020016001820160009054906101000a900473ffffffffffffffffffffffffffffffffffffffff1673ffffffffffffffffffffffffffffffffffffffff1673ffffffffffffffffffffffffffffffffffffffff1681526020016002820160009054906101000a900473ffffffffffffffffffffffffffffffffffffffff1673ffffffffffffffffffffffffffffffffffffffff1673ffffffffffffffffffffffffffffffffffffffff16815260200160038201548152602001600482015481526020016005820160009054906101000a900460ff161515151581526020016006820154815250509050919050565b600060016000838152602001908152602001600020600101549050919050565b6105a982610580565b6105b2816111d8565b6105bc83836111ec565b505050565b6105c96112cc565b73ffffffffffffffffffffffffffffffffffffffff168173ffffffffffffffffffffffffffffffffffffffff1614610636576040517f08c379a000000000000000000000000000000000000000000000000000000000815260040161062d90611f45565b60405180910390fd5b61064082826112d4565b5050565b60066020528060005260406000206000915090505481565b60006001600084815260200190815260200160002060000160008373ffffffffffffffffffffffffffffffffffffffff1673ffffffffffffffffffffffffffffffffffffffff16815260200190815260200160002060009054906101000a900460ff16905092915050565b7fe2b7fb3b832174769106daebcfd6d1970523240dda11281102db9363b83b0dc481565b60045481565b6000801b81565b60035481565b6107066113b6565b60008411806107125750815b610751576040517f08c379a000000000000000000000000000000000000000000000000000000000815260040161074890611fb1565b60405180910390fd5b6004548303610795576040517f08c379a000000000000000000000000000000000000000000000000000000000815260040161078c9061201d565b60405180910390fd5b60003386866003546004548888886040516020016107ba9897969594939291906120ee565b6040516020818303038152906040528051906020012090506005600082815260200190815260200160002060009054906101000a900460ff1615610833576040517f08c379a000000000000000000000000000000000000000000000000000000000815260040161082a906121cc565b60405180910390fd5b82156109d657600760003373ffffffffffffffffffffffffffffffffffffffff1673ffffffffffffffffffffffffffffffffffffffff168152602001908152602001600020600083815260200190815260200160002060009054906101000a900460ff16156108d7576040517f08c379a00000000000000000000000000000000000000000000000000000000081526004016108ce90612238565b60405180910390fd5b600260009054906101000a900473ffffffffffffffffffffffffffffffffffffffff1673ffffffffffffffffffffffffffffffffffffffff166323b872dd3330856040518463ffffffff1660e01b815260040161093693929190612258565b600060405180830381600087803b15801561095057600080fd5b505af1158015610964573d6000803e3d6000fd5b505050506001600760003373ffffffffffffffffffffffffffffffffffffffff1673ffffffffffffffffffffffffffffffffffffffff168152602001908152602001600020600084815260200190815260200160002060006101000a81548160ff021916908315150217905550610a66565b600260009054906101000a900473ffffffffffffffffffffffffffffffffffffffff1673ffffffffffffffffffffffffffffffffffffffff16639dc29fac33876040518363ffffffff1660e01b8152600401610a3392919061228f565b600060405180830381600087803b158015610a4d57600080fd5b505af1158015610a61573d6000803e3d6000fd5b505050505b6040518060e001604052808281526020013373ffffffffffffffffffffffffffffffffffffffff1681526020018773ffffffffffffffffffffffffffffffffffffffff168152602001868152602001428152602001841515815260200183815250600860008381526020019081526020016000206000820151816000015560208201518160010160006101000a81548173ffffffffffffffffffffffffffffffffffffffff021916908373ffffffffffffffffffffffffffffffffffffffff16021790555060408201518160020160006101000a81548173ffffffffffffffffffffffffffffffffffffffff021916908373ffffffffffffffffffffffffffffffffffffffff160217905550606082015181600301556080820151816004015560a08201518160050160006101000a81548160ff02191690831515021790555060c082015181600601559050508573ffffffffffffffffffffffffffffffffffffffff163373ffffffffffffffffffffffffffffffffffffffff16827f4fda400b8d152426172048af4eff5c1607d572e80c275505b9a474027bb7d9e0886003546004548a8a8a604051610c1f969594939291906122b8565b60405180910390a460036000815480929190610c3a90612348565b919050555050610c48611405565b5050505050565b60086020528060005260406000206000915090508060000154908060010160009054906101000a900473ffffffffffffffffffffffffffffffffffffffff16908060020160009054906101000a900473ffffffffffffffffffffffffffffffffffffffff16908060030154908060040154908060050160009054906101000a900460ff16908060060154905087565b7fe2b7fb3b832174769106daebcfd6d1970523240dda11281102db9363b83b0dc4610d08816111d8565b816006600085815260200190815260200160002081905550505050565b610d2e82610580565b610d37816111d8565b610d4183836112d4565b505050565b60056020528060005260406000206000915054906101000a900460ff1681565b610d6e6113b6565b7fe2b7fb3b832174769106daebcfd6d1970523240dda11281102db9363b83b0dc4610d98816111d8565b60008686868686604051602001610db3959493929190612390565b6040516020818303038152906040528051906020012090506005600082815260200190815260200160002060009054906101000a900460ff1615610e2c576040517f08c379a0000000000000000000000000000000000000000000000000000000008152600401610e23906121cc565b60405180910390fd5b610e788a8a80806020026020016040519081016040528093929190818152602001838360200280828437600081840152601f19601f82011690508083019250505050505050898361140f565b610eb7576040517f08c379a0000000000000000000000000000000000000000000000000000000008152600401610eae9061243b565b60405180910390fd5b60016005600083815260200190815260200160002060006101000a81548160ff0219169083151502179055508315610fe857600260009054906101000a900473ffffffffffffffffffffffffffffffffffffffff1673ffffffffffffffffffffffffffffffffffffffff166323b872dd3089866040518463ffffffff1660e01b8152600401610f4893929190612258565b600060405180830381600087803b158015610f6257600080fd5b505af1158015610f76573d6000803e3d6000fd5b505050506000600760008973ffffffffffffffffffffffffffffffffffffffff1673ffffffffffffffffffffffffffffffffffffffff168152602001908152602001600020600085815260200190815260200160002060006101000a81548160ff021916908315150217905550611078565b600260009054906101000a900473ffffffffffffffffffffffffffffffffffffffff1673ffffffffffffffffffffffffffffffffffffffff166340c10f1988886040518363ffffffff1660e01b815260040161104592919061228f565b600060405180830381600087803b15801561105f57600080fd5b505af1158015611073573d6000803e3d6000fd5b505050505b8673ffffffffffffffffffffffffffffffffffffffff16817ffdd3863abe982fb7a34f15684b6ac83206be78d59570130b41fd65f4156511098887876040516110c39392919061245b565b60405180910390a3807fe9cb74a54de9fa0e4db042752b4d34487cd00b7885f7fed93e2278e27a49836e89426040516110fd929190612492565b60405180910390a2505061110f611405565b5050505050505050565b60076020528160005260406000206020528060005260406000206000915091509054906101000a900460ff1681565b600260009054906101000a900473ffffffffffffffffffffffffffffffffffffffff1681565b60007f01ffc9a7000000000000000000000000000000000000000000000000000000007bffffffffffffffffffffffffffffffffffffffffffffffffffffffff1916827bffffffffffffffffffffffffffffffffffffffffffffffffffffffff1916149050919050565b6111e9816111e46112cc565b611426565b50565b6111f6828261065c565b6112c857600180600084815260200190815260200160002060000160008373ffffffffffffffffffffffffffffffffffffffff1673ffffffffffffffffffffffffffffffffffffffff16815260200190815260200160002060006101000a81548160ff02191690831515021790555061126d6112cc565b73ffffffffffffffffffffffffffffffffffffffff168173ffffffffffffffffffffffffffffffffffffffff16837f2f8788117e7eff1d82e926ec794901d17c78024a50270940304540a733656f0d60405160405180910390a45b5050565b600033905090565b6112de828261065c565b156113b25760006001600084815260200190815260200160002060000160008373ffffffffffffffffffffffffffffffffffffffff1673ffffffffffffffffffffffffffffffffffffffff16815260200190815260200160002060006101000a81548160ff0219169083151502179055506113576112cc565b73ffffffffffffffffffffffffffffffffffffffff168173ffffffffffffffffffffffffffffffffffffffff16837ff6391f5c32d9c69d2a47ea670b442974b53935d1edc7fd64eb21e047a839171b60405160405180910390a45b5050565b6002600054036113fb576040517f08c379a00000000000000000000000000000000000000000000000000000000081526004016113f290612507565b60405180910390fd5b6002600081905550565b6001600081905550565b60008261141c85846114ab565b1490509392505050565b611430828261065c565b6114a75761143d81611501565b61144b8360001c602061152e565b60405160200161145c929190612630565b6040516020818303038152906040526040517f08c379a000000000000000000000000000000000000000000000000000000000815260040161149e91906126b4565b60405180910390fd5b5050565b60008082905060005b84518110156114f6576114e1828683815181106114d4576114d36126d6565b5b602002602001015161176a565b915080806114ee90612348565b9150506114b4565b508091505092915050565b60606115278273ffffffffffffffffffffffffffffffffffffffff16601460ff1661152e565b9050919050565b6060600060028360026115419190612705565b61154b9190612747565b67ffffffffffffffff8111156115645761156361277b565b5b6040519080825280601f01601f1916602001820160405280156115965781602001600182028036833780820191505090505b5090507f3000000000000000000000000000000000000000000000000000000000000000816000815181106115ce576115cd6126d6565b5b60200101907effffffffffffffffffffffffffffffffffffffffffffffffffffffffffffff1916908160001a9053507f780000000000000000000000000000000000000000000000000000000000000081600181518110611632576116316126d6565b5b60200101907effffffffffffffffffffffffffffffffffffffffffffffffffffffffffffff1916908160001a905350600060018460026116729190612705565b61167c9190612747565b90505b600181111561171c577f3031323334353637383961626364656600000000000000000000000000000000600f8616601081106116be576116bd6126d6565b5b1a60f81b8282815181106116d5576116d46126d6565b5b60200101907effffffffffffffffffffffffffffffffffffffffffffffffffffffffffffff1916908160001a905350600485901c945080611715906127aa565b905061167f565b5060008414611760576040517f08c379a00000000000000000000000000000000000000000000000000000000081526004016117579061281f565b60405180910390fd5b8091505092915050565b60008183106117825761177d8284611795565b61178d565b61178c8383611795565b5b905092915050565b600082600052816020526040600020905092915050565b6040518060e0016040528060008019168152602001600073ffffffffffffffffffffffffffffffffffffffff168152602001600073ffffffffffffffffffffffffffffffffffffffff1681526020016000815260200160008152602001600015158152602001600081525090565b600080fd5b600080fd5b60007fffffffff0000000000000000000000000000000000000000000000000000000082169050919050565b61185981611824565b811461186457600080fd5b50565b60008135905061187681611850565b92915050565b6000602082840312156118925761189161181a565b5b60006118a084828501611867565b91505092915050565b60008115159050919050565b6118be816118a9565b82525050565b60006020820190506118d960008301846118b5565b92915050565b6000819050919050565b6118f2816118df565b81146118fd57600080fd5b50565b60008135905061190f816118e9565b92915050565b60006020828403121561192b5761192a61181a565b5b600061193984828501611900565b91505092915050565b61194b816118df565b82525050565b600073ffffffffffffffffffffffffffffffffffffffff82169050919050565b600061197c82611951565b9050919050565b61198c81611971565b82525050565b6000819050919050565b6119a581611992565b82525050565b6119b4816118a9565b82525050565b60e0820160008201516119d06000850182611942565b5060208201516119e36020850182611983565b5060408201516119f66040850182611983565b506060820151611a09606085018261199c565b506080820151611a1c608085018261199c565b5060a0820151611a2f60a08501826119ab565b5060c0820151611a4260c085018261199c565b50505050565b600060e082019050611a5d60008301846119ba565b92915050565b611a6c816118df565b82525050565b6000602082019050611a876000830184611a63565b92915050565b611a9681611971565b8114611aa157600080fd5b50565b600081359050611ab381611a8d565b92915050565b60008060408385031215611ad057611acf61181a565b5b6000611ade85828601611900565b9250506020611aef85828601611aa4565b9150509250929050565b611b0281611992565b8114611b0d57600080fd5b50565b600081359050611b1f81611af9565b92915050565b600060208284031215611b3b57611b3a61181a565b5b6000611b4984828501611b10565b91505092915050565b611b5b81611992565b82525050565b6000602082019050611b766000830184611b52565b92915050565b611b85816118a9565b8114611b9057600080fd5b50565b600081359050611ba281611b7c565b92915050565b600080600080600060a08688031215611bc457611bc361181a565b5b6000611bd288828901611aa4565b9550506020611be388828901611b10565b9450506040611bf488828901611b10565b9350506060611c0588828901611b93565b9250506080611c1688828901611b10565b9150509295509295909350565b611c2c81611971565b82525050565b600060e082019050611c47600083018a611a63565b611c546020830189611c23565b611c616040830188611c23565b611c6e6060830187611b52565b611c7b6080830186611b52565b611c8860a08301856118b5565b611c9560c0830184611b52565b98975050505050505050565b60008060408385031215611cb857611cb761181a565b5b6000611cc685828601611b10565b9250506020611cd785828601611900565b9150509250929050565b600080fd5b600080fd5b600080fd5b60008083601f840112611d0657611d05611ce1565b5b8235905067ffffffffffffffff811115611d2357611d22611ce6565b5b602083019150836020820283011115611d3f57611d3e611ceb565b5b9250929050565b60008060008060008060008060e0898b031215611d6657611d6561181a565b5b600089013567ffffffffffffffff811115611d8457611d8361181f565b5b611d908b828c01611cf0565b98509850506020611da38b828c01611900565b9650506040611db48b828c01611aa4565b9550506060611dc58b828c01611b10565b9450506080611dd68b828c01611b10565b93505060a0611de78b828c01611b93565b92505060c0611df88b828c01611b10565b9150509295985092959890939650565b60008060408385031215611e1f57611e1e61181a565b5b6000611e2d85828601611aa4565b9250506020611e3e85828601611b10565b9150509250929050565b6000819050919050565b6000611e6d611e68611e6384611951565b611e48565b611951565b9050919050565b6000611e7f82611e52565b9050919050565b6000611e9182611e74565b9050919050565b611ea181611e86565b82525050565b6000602082019050611ebc6000830184611e98565b92915050565b600082825260208201905092915050565b7f416363657373436f6e74726f6c3a2063616e206f6e6c792072656e6f756e636560008201527f20726f6c657320666f722073656c660000000000000000000000000000000000602082015250565b6000611f2f602f83611ec2565b9150611f3a82611ed3565b604082019050919050565b60006020820190508181036000830152611f5e81611f22565b9050919050565b7f496e76616c696420616d6f756e74000000000000000000000000000000000000600082015250565b6000611f9b600e83611ec2565b9150611fa682611f65565b602082019050919050565b60006020820190508181036000830152611fca81611f8e565b9050919050565b7f496e76616c69642064657374696e6174696f6e20636861696e00000000000000600082015250565b6000612007601983611ec2565b915061201282611fd1565b602082019050919050565b6000602082019050818103600083015261203681611ffa565b9050919050565b60008160601b9050919050565b60006120558261203d565b9050919050565b60006120678261204a565b9050919050565b61207f61207a82611971565b61205c565b82525050565b6000819050919050565b6120a061209b82611992565b612085565b82525050565b60008160f81b9050919050565b60006120be826120a6565b9050919050565b60006120d0826120b3565b9050919050565b6120e86120e3826118a9565b6120c5565b82525050565b60006120fa828b61206e565b60148201915061210a828a61206e565b60148201915061211a828961208f565b60208201915061212a828861208f565b60208201915061213a828761208f565b60208201915061214a828661208f565b60208201915061215a82856120d7565b60018201915061216a828461208f565b6020820191508190509998505050505050505050565b7f5472616e7366657220616c72656164792070726f636573736564000000000000600082015250565b60006121b6601a83611ec2565b91506121c182612180565b602082019050919050565b600060208201905081810360008301526121e5816121a9565b9050919050565b7f4e465420616c7265616479207472616e73666572726564000000000000000000600082015250565b6000612222601783611ec2565b915061222d826121ec565b602082019050919050565b6000602082019050818103600083015261225181612215565b9050919050565b600060608201905061226d6000830186611c23565b61227a6020830185611c23565b6122876040830184611b52565b949350505050565b60006040820190506122a46000830185611c23565b6122b16020830184611b52565b9392505050565b600060c0820190506122cd6000830189611b52565b6122da6020830188611b52565b6122e76040830187611b52565b6122f46060830186611b52565b61230160808301856118b5565b61230e60a0830184611b52565b979650505050505050565b7f4e487b7100000000000000000000000000000000000000000000000000000000600052601160045260246000fd5b600061235382611992565b91507fffffffffffffffffffffffffffffffffffffffffffffffffffffffffffffffff820361238557612384612319565b5b600182019050919050565b600061239c828861206e565b6014820191506123ac828761208f565b6020820191506123bc828661208f565b6020820191506123cc82856120d7565b6001820191506123dc828461208f565b6020820191508190509695505050505050565b7f496e76616c69642070726f6f6600000000000000000000000000000000000000600082015250565b6000612425600d83611ec2565b9150612430826123ef565b602082019050919050565b6000602082019050818103600083015261245481612418565b9050919050565b60006060820190506124706000830186611b52565b61247d60208301856118b5565b61248a6040830184611b52565b949350505050565b60006040820190506124a76000830185611a63565b6124b46020830184611b52565b9392505050565b7f5265656e7472616e637947756172643a207265656e7472616e742063616c6c00600082015250565b60006124f1601f83611ec2565b91506124fc826124bb565b602082019050919050565b60006020820190508181036000830152612520816124e4565b9050919050565b600081905092915050565b7f416363657373436f6e74726f6c3a206163636f756e7420000000000000000000600082015250565b6000612568601783612527565b915061257382612532565b601782019050919050565b600081519050919050565b60005b838110156125a757808201518184015260208101905061258c565b60008484015250505050565b60006125be8261257e565b6125c88185612527565b93506125d8818560208601612589565b80840191505092915050565b7f206973206d697373696e6720726f6c6520000000000000000000000000000000600082015250565b600061261a601183612527565b9150612625826125e4565b601182019050919050565b600061263b8261255b565b915061264782856125b3565b91506126528261260d565b915061265e82846125b3565b91508190509392505050565b6000601f19601f8301169050919050565b60006126868261257e565b6126908185611ec2565b93506126a0818560208601612589565b6126a98161266a565b840191505092915050565b600060208201905081810360008301526126ce818461267b565b905092915050565b7f4e487b7100000000000000000000000000000000000000000000000000000000600052603260045260246000fd5b600061271082611992565b915061271b83611992565b925082820261272981611992565b915082820484148315176127405761273f612319565b5b5092915050565b600061275282611992565b915061275d83611992565b925082820190508082111561277557612774612319565b5b92915050565b7f4e487b7100000000000000000000000000000000000000000000000000000000600052604160045260246000fd5b60006127b582611992565b9150600082036127c8576127c7612319565b5b600182039050919050565b7f537472696e67733a20686578206c656e67746820696e73756666696369656e74600082015250565b6000612809602083611ec2565b9150612814826127d3565b602082019050919050565b60006020820190508181036000830152612838816127fc565b905091905056fea2646970667358221220c0fab6bb35ee253af8ebb802554439865b34c7020e26087f27788a4898dd3db964736f6c63430008130033",
  "linkReferences": {},
  "deployedLinkReferences": {}
}