{
  "_format": "hh-sol-artifact-1",
  "contractName": "EntryPoint",
  "sourceName": "contracts/EntryPoint.sol",
  "abi": [
    {
      "anonymous": false,
      "inputs": [
        {
          "indexed": true,
          "internalType": "bytes32",
          "name": "userOpHash",
          "type": "bytes32"
        },
        {
          "indexed": true,
          "internalType": "address",
          "name": "sender",
          "type": "address"
        }
      ],
      "name": "AccountDeployed",
      "type": "event"
    },
    {
      "anonymous": false,
      "inputs": [
        {
          "indexed": true,
          "internalType": "bytes32",
          "name": "userOpHash",
          "type": "bytes32"
        },
        {
          "indexed": true,
          "internalType": "address",
          "name": "sender",
          "type": "address"
        },
        {
          "indexed": true,
          "internalType": "address",
          "name": "paymaster",
          "type": "address"
        }
      ],
      "name": "UserOperationEvent",
      "type": "event"
    },
    {
      "inputs": [
        {
          "internalType": "address",
          "name": "",
          "type": "address"
        }
      ],
      "name": "balances",
      "outputs": [
        {
          "internalType": "uint256",
          "name": "",
          "type": "uint256"
        }
      ],
      "stateMutability": "view",
      "type": "function"
    },
    {
      "inputs": [
        {
          "components": [
            {
              "internalType": "address",
              "name": "sender",
              "type": "address"
            },
            {
              "internalType": "uint256",
              "name": "nonce",
              "type": "uint256"
            },
            {
              "internalType": "bytes",
              "name": "initCode",
              "type": "bytes"
            },
            {
              "internalType": "bytes",
              "name": "callData",
              "type": "bytes"
            },
            {
              "internalType": "uint256",
              "name": "callGasLimit",
              "type": "uint256"
            },
            {
              "internalType": "uint256",
              "name": "verificationGasLimit",
              "type": "uint256"
            },
            {
              "internalType": "uint256",
              "name": "preVerificationGas",
              "type": "uint256"
            },
            {
              "internalType": "uint256",
              "name": "maxFeePerGas",
              "type": "uint256"
            },
            {
              "internalType": "uint256",
              "name": "maxPriorityFeePerGas",
              "type": "uint256"
            },
            {
              "internalType": "bytes",
              "name": "paymasterAndData",
              "type": "bytes"
            },
            {
              "internalType": "bytes",
              "name": "signature",
              "type": "bytes"
            }
          ],
          "internalType": "struct IEntryPoint.UserOperation[]",
          "name": "ops",
          "type": "tuple[]"
        },
        {
          "internalType": "address payable",
          "name": "beneficiary",
          "type": "address"
        }
      ],
      "name": "handleOps",
      "outputs": [],
      "stateMutability": "nonpayable",
      "type": "function"
    },
    {
      "inputs": [
        {
          "internalType": "address",
          "name": "",
          "type": "address"
        }
      ],
      "name": "nonces",
      "outputs": [
        {
          "internalType": "uint256",
          "name": "",
          "type": "uint256"
        }
      ],
      "stateMutability": "view",
      "type": "function"
    },
    {
      "inputs": [
        {
          "components": [
            {
              "internalType": "address",
              "name": "sender",
              "type": "address"
            },
            {
              "internalType": "uint256",
              "name": "nonce",
              "type": "uint256"
            },
            {
              "internalType": "bytes",
              "name": "initCode",
              "type": "bytes"
            },
            {
              "internalType": "bytes",
              "name": "callData",
              "type": "bytes"
            },
            {
              "internalType": "uint256",
              "name": "callGasLimit",
              "type": "uint256"
            },
            {
              "internalType": "uint256",
              "name": "verificationGasLimit",
              "type": "uint256"
            },
            {
              "internalType": "uint256",
              "name": "preVerificationGas",
              "type": "uint256"
            },
            {
              "internalType": "uint256",
              "name": "maxFeePerGas",
              "type": "uint256"
            },
            {
              "internalType": "uint256",
              "name": "maxPriorityFeePerGas",
              "type": "uint256"
            },
            {
              "internalType": "bytes",
              "name": "paymasterAndData",
              "type": "bytes"
            },
            {
              "internalType": "bytes",
              "name": "signature",
              "type": "bytes"
            }
          ],
          "internalType": "struct IEntryPoint.UserOperation",
          "name": "userOp",
          "type": "tuple"
        }
      ],
      "name": "simulateValidation",
      "outputs": [],
      "stateMutability": "nonpayable",
      "type": "function"
    },
    {
      "stateMutability": "payable",
      "type": "receive"
    }
  ],
  "bytecode": "0x608060405234801561001057600080fd5b506001600055610e89806100256000396000f3fe6080604052600436106100435760003560e01c80631fad948c1461007457806327e235e3146100965780637ecebe00146100d5578063ee2194231461010257600080fd5b3661006f5733600090815260016020526040812080543492906100679084906109ba565b925050819055005b600080fd5b34801561008057600080fd5b5061009461008f3660046109eb565b610122565b005b3480156100a257600080fd5b506100c36100b1366004610a81565b60016020526000908152604090205481565b60405190815260200160405180910390f35b3480156100e157600080fd5b506100c36100f0366004610a81565b60026020526000908152604090205481565b34801561010e57600080fd5b5061009461011d366004610aa5565b61032d565b6002600054036101795760405162461bcd60e51b815260206004820152601f60248201527f5265656e7472616e637947756172643a207265656e7472616e742063616c6c0060448201526064015b60405180910390fd5b600260009081555b82811015610265573684848381811061019c5761019c610ae1565b90506020028101906101ae9190610af7565b90506000816040516020016101c39190610c85565b6040516020818303038152906040528051906020012090506101e58282610366565b6101ef82826106a6565b6101fd610120830183610c98565b61020c91601491600091610cdf565b61021591610d09565b60601c6102256020840184610a81565b6001600160a01b0316827f5e6092511a396b40e19964f9873358568ddb4ed56a7255ee7c419ddb08e54c7f60405160405180910390a45050600101610181565b506001600160a01b0381161561032357478015610321576000826001600160a01b03168260405160006040518083038185875af1925050503d80600081146102c9576040519150601f19603f3d011682016040523d82523d6000602084013e6102ce565b606091505b505090508061031f5760405162461bcd60e51b815260206004820152601e60248201527f5472616e7366657220746f2062656e6566696369617279206661696c656400006044820152606401610170565b505b505b5050600160005550565b6000816040516020016103409190610c85565b6040516020818303038152906040528051906020012090506103628282610366565b5050565b6020820180359060029060009061037d9086610a81565b6001600160a01b03166001600160a01b0316815260200190815260200160002054146103db5760405162461bcd60e51b815260206004820152600d60248201526c496e76616c6964206e6f6e636560981b6044820152606401610170565b600260006103ec6020850185610a81565b6001600160a01b031681526020810191909152604001600090812080549161041383610d3e565b90915550600090506104286040840184610c98565b9050111561043a5761043a82826108a6565b60008061044a6020850185610a81565b6001600160a01b03168484604051602401610466929190610d57565b60408051601f198184030181529181526020820180516001600160e01b031660016206524760e11b03191790525161049e9190610d79565b600060405180830381855afa9150503d80600081146104d9576040519150601f19603f3d011682016040523d82523d6000602084013e6104de565b606091505b50915091508180156105015750808060200190518101906104ff9190610da8565b155b61054d5760405162461bcd60e51b815260206004820152601960248201527f4163636f756e742076616c69646174696f6e206661696c6564000000000000006044820152606401610170565b600061055d610120860186610c98565b905011156106a0576000610575610120860186610c98565b61058491601491600091610cdf565b61058d91610d09565b60601c90508085856105a7608083013560e0840135610dc1565b6040516024016105b993929190610dd8565b60408051601f198184030181529181526020820180516001600160e01b0316637a32e3bf60e11b179052516105ee9190610d79565b600060405180830381855afa9150503d8060008114610629576040519150601f19603f3d011682016040523d82523d6000602084013e61062e565b606091505b5090935091508280156106525750818060200190518101906106509190610da8565b155b61069e5760405162461bcd60e51b815260206004820152601b60248201527f5061796d61737465722076616c69646174696f6e206661696c656400000000006044820152606401610170565b505b50505050565b60005a905060006106ba6020850185610a81565b6001600160a01b03166106d06060860186610c98565b6040516106de929190610dfd565b6000604051808303816000865af19150503d806000811461071b576040519150601f19603f3d011682016040523d82523d6000602084013e610720565b606091505b50509050806107715760405162461bcd60e51b815260206004820152601f60248201527f55736572206f7065726174696f6e20657865637574696f6e206661696c6564006044820152606401610170565b6000610781610120860186610c98565b905011156106a0576000610799610120860186610c98565b6107a891601491600091610cdf565b6107b191610d09565b60601c9050600081865a6107c59087610e0d565b6040516024016107d6929190610e20565b60408051601f198184030181529181526020820180516001600160e01b031663bed042d160e01b1790525161080b9190610d79565b6000604051808303816000865af19150503d8060008114610848576040519150601f19603f3d011682016040523d82523d6000602084013e61084d565b606091505b505090508061089e5760405162461bcd60e51b815260206004820152601760248201527f5061796d617374657220706f73744f70206661696c65640000000000000000006044820152606401610170565b505050505050565b60006108b56040840184610c98565b8080601f01602080910402602001604051908101604052809392919081815260200183838082843760009201829052509394506108f9925050506020850185610a81565b9050808251602084016000f561090e57600080fd5b6000816001600160a01b03163b116109685760405162461bcd60e51b815260206004820152601960248201527f4163636f756e74206465706c6f796d656e74206661696c6564000000000000006044820152606401610170565b6040516001600160a01b0382169084907fc8c3d9202a1e1a55d43501eb20e9521386e5a89e7c02c0aa6b2a638068ae91cf90600090a350505050565b634e487b7160e01b600052601160045260246000fd5b808201808211156109cd576109cd6109a4565b92915050565b6001600160a01b03811681146109e857600080fd5b50565b600080600060408486031215610a0057600080fd5b833567ffffffffffffffff80821115610a1857600080fd5b818601915086601f830112610a2c57600080fd5b813581811115610a3b57600080fd5b8760208260051b8501011115610a5057600080fd5b60209283019550935050840135610a66816109d3565b809150509250925092565b8035610a7c816109d3565b919050565b600060208284031215610a9357600080fd5b8135610a9e816109d3565b9392505050565b600060208284031215610ab757600080fd5b813567ffffffffffffffff811115610ace57600080fd5b82016101608185031215610a9e57600080fd5b634e487b7160e01b600052603260045260246000fd5b6000823561015e19833603018112610b0e57600080fd5b9190910192915050565b6000808335601e19843603018112610b2f57600080fd5b830160208101925035905067ffffffffffffffff811115610b4f57600080fd5b803603821315610b5e57600080fd5b9250929050565b81835281816020850137506000828201602090810191909152601f909101601f19169091010190565b6000610160610bad84610ba085610a71565b6001600160a01b03169052565b60208301356020850152610bc46040840184610b18565b826040870152610bd78387018284610b65565b92505050610be86060840184610b18565b8583036060870152610bfb838284610b65565b925050506080830135608085015260a083013560a085015260c083013560c085015260e083013560e0850152610100808401358186015250610120610c4281850185610b18565b86840383880152610c54848284610b65565b9350505050610140610c6881850185610b18565b86840383880152610c7a848284610b65565b979650505050505050565b602081526000610a9e6020830184610b8e565b6000808335601e19843603018112610caf57600080fd5b83018035915067ffffffffffffffff821115610cca57600080fd5b602001915036819003821315610b5e57600080fd5b60008085851115610cef57600080fd5b83861115610cfc57600080fd5b5050820193919092039150565b6bffffffffffffffffffffffff198135818116916014851015610d365780818660140360031b1b83161692505b505092915050565b600060018201610d5057610d506109a4565b5060010190565b604081526000610d6a6040830185610b8e565b90508260208301529392505050565b6000825160005b81811015610d9a5760208186018101518583015201610d80565b506000920191825250919050565b600060208284031215610dba57600080fd5b5051919050565b80820281158282048414176109cd576109cd6109a4565b606081526000610deb6060830186610b8e565b60208301949094525060400152919050565b8183823760009101908152919050565b818103818111156109cd576109cd6109a4565b606081526000610e336060830185610b8e565b82810360208401526000815260208101915050826040830152939250505056fea26469706673582212205a949e9e12282d4f61fa3d5c4e05bb430f9498f67ee4fc1649e0414fda4efca264736f6c63430008180033",
  "linkReferences": {},
  "deployedLinkReferences": {}
}