{
  "_format": "hh-sol-artifact-1",
  "contractName": "TokenBridge",
  "sourceName": "contracts/TokenBridge.sol",
  "abi": [
    {
      "inputs": [
        {
          "internalType": "address",
          "name": "_entryPoint",
          "type": "address"
        }
      ],
      "stateMutability": "nonpayable",
      "type": "constructor"
    },
    {
      "inputs": [
        {
          "internalType": "address",
          "name": "owner",
          "type": "address"
        }
      ],
      "name": "OwnableInvalidOwner",
      "type": "error"
    },
    {
      "inputs": [
        {
          "internalType": "address",
          "name": "account",
          "type": "address"
        }
      ],
      "name": "OwnableUnauthorizedAccount",
      "type": "error"
    },
    {
      "inputs": [],
      "name": "PausableAlreadyPaused",
      "type": "error"
    },
    {
      "inputs": [],
      "name": "PausableAlreadyUnpaused",
      "type": "error"
    },
    {
      "inputs": [],
      "name": "PausableNotPaused",
      "type": "error"
    },
    {
      "inputs": [],
      "name": "PausablePaused",
      "type": "error"
    },
    {
      "anonymous": false,
      "inputs": [
        {
          "indexed": true,
          "internalType": "address",
          "name": "previousOwner",
          "type": "address"
        },
        {
          "indexed": true,
          "internalType": "address",
          "name": "newOwner",
          "type": "address"
        }
      ],
      "name": "OwnershipTransferred",
      "type": "event"
    },
    {
      "anonymous": false,
      "inputs": [
        {
          "indexed": false,
          "internalType": "address",
          "name": "account",
          "type": "address"
        }
      ],
      "name": "Paused",
      "type": "event"
    },
    {
      "anonymous": false,
      "inputs": [
        {
          "indexed": true,
          "internalType": "address",
          "name": "token",
          "type": "address"
        },
        {
          "indexed": true,
          "internalType": "address",
          "name": "from",
          "type": "address"
        },
        {
          "indexed": false,
          "internalType": "uint256",
          "name": "amount",
          "type": "uint256"
        },
        {
          "indexed": false,
          "internalType": "bytes32",
          "name": "operationId",
          "type": "bytes32"
        }
      ],
      "name": "TokensBurned",
      "type": "event"
    },
    {
      "anonymous": false,
      "inputs": [
        {
          "indexed": true,
          "internalType": "address",
          "name": "token",
          "type": "address"
        },
        {
          "indexed": true,
          "internalType": "address",
          "name": "from",
          "type": "address"
        },
        {
          "indexed": false,
          "internalType": "uint256",
          "name": "amount",
          "type": "uint256"
        },
        {
          "indexed": false,
          "internalType": "uint256",
          "name": "targetChainId",
          "type": "uint256"
        },
        {
          "indexed": false,
          "internalType": "bytes32",
          "name": "operationId",
          "type": "bytes32"
        }
      ],
      "name": "TokensLocked",
      "type": "event"
    },
    {
      "anonymous": false,
      "inputs": [
        {
          "indexed": true,
          "internalType": "address",
          "name": "token",
          "type": "address"
        },
        {
          "indexed": true,
          "internalType": "address",
          "name": "to",
          "type": "address"
        },
        {
          "indexed": false,
          "internalType": "uint256",
          "name": "amount",
          "type": "uint256"
        },
        {
          "indexed": false,
          "internalType": "bytes32",
          "name": "operationId",
          "type": "bytes32"
        }
      ],
      "name": "TokensMinted",
      "type": "event"
    },
    {
      "anonymous": false,
      "inputs": [
        {
          "indexed": true,
          "internalType": "address",
          "name": "token",
          "type": "address"
        },
        {
          "indexed": true,
          "internalType": "address",
          "name": "to",
          "type": "address"
        },
        {
          "indexed": false,
          "internalType": "uint256",
          "name": "amount",
          "type": "uint256"
        },
        {
          "indexed": false,
          "internalType": "bytes32",
          "name": "operationId",
          "type": "bytes32"
        }
      ],
      "name": "TokensUnlocked",
      "type": "event"
    },
    {
      "anonymous": false,
      "inputs": [
        {
          "indexed": false,
          "internalType": "address",
          "name": "account",
          "type": "address"
        }
      ],
      "name": "Unpaused",
      "type": "event"
    },
    {
      "inputs": [
        {
          "internalType": "address",
          "name": "token",
          "type": "address"
        }
      ],
      "name": "addSupportedToken",
      "outputs": [],
      "stateMutability": "nonpayable",
      "type": "function"
    },
    {
      "inputs": [
        {
          "internalType": "address",
          "name": "token",
          "type": "address"
        },
        {
          "internalType": "uint256",
          "name": "amount",
          "type": "uint256"
        }
      ],
      "name": "burnTokens",
      "outputs": [
        {
          "internalType": "bytes32",
          "name": "",
          "type": "bytes32"
        }
      ],
      "stateMutability": "nonpayable",
      "type": "function"
    },
    {
      "inputs": [],
      "name": "entryPoint",
      "outputs": [
        {
          "internalType": "contract IEntryPoint",
          "name": "",
          "type": "address"
        }
      ],
      "stateMutability": "view",
      "type": "function"
    },
    {
      "inputs": [
        {
          "components": [
            {
              "internalType": "address",
              "name": "sender",
              "type": "address"
            },
            {
              "internalType": "uint256",
              "name": "nonce",
              "type": "uint256"
            },
            {
              "internalType": "bytes",
              "name": "initCode",
              "type": "bytes"
            },
            {
              "internalType": "bytes",
              "name": "callData",
              "type": "bytes"
            },
            {
              "internalType": "uint256",
              "name": "callGasLimit",
              "type": "uint256"
            },
            {
              "internalType": "uint256",
              "name": "verificationGasLimit",
              "type": "uint256"
            },
            {
              "internalType": "uint256",
              "name": "preVerificationGas",
              "type": "uint256"
            },
            {
              "internalType": "uint256",
              "name": "maxFeePerGas",
              "type": "uint256"
            },
            {
              "internalType": "uint256",
              "name": "maxPriorityFeePerGas",
              "type": "uint256"
            },
            {
              "internalType": "bytes",
              "name": "paymasterAndData",
              "type": "bytes"
            },
            {
              "internalType": "bytes",
              "name": "signature",
              "type": "bytes"
            }
          ],
          "internalType": "struct IEntryPoint.UserOperation",
          "name": "userOp",
          "type": "tuple"
        },
        {
          "internalType": "bytes32",
          "name": "operationId",
          "type": "bytes32"
        }
      ],
      "name": "handleUserOperation",
      "outputs": [],
      "stateMutability": "nonpayable",
      "type": "function"
    },
    {
      "inputs": [
        {
          "internalType": "address",
          "name": "token",
          "type": "address"
        },
        {
          "internalType": "uint256",
          "name": "amount",
          "type": "uint256"
        },
        {
          "internalType": "uint256",
          "name": "targetChainId",
          "type": "uint256"
        }
      ],
      "name": "lockTokens",
      "outputs": [
        {
          "internalType": "bytes32",
          "name": "",
          "type": "bytes32"
        }
      ],
      "stateMutability": "nonpayable",
      "type": "function"
    },
    {
      "inputs": [
        {
          "internalType": "address",
          "name": "",
          "type": "address"
        }
      ],
      "name": "lockedTokens",
      "outputs": [
        {
          "internalType": "uint256",
          "name": "",
          "type": "uint256"
        }
      ],
      "stateMutability": "view",
      "type": "function"
    },
    {
      "inputs": [
        {
          "internalType": "address",
          "name": "token",
          "type": "address"
        },
        {
          "internalType": "address",
          "name": "to",
          "type": "address"
        },
        {
          "internalType": "uint256",
          "name": "amount",
          "type": "uint256"
        },
        {
          "internalType": "bytes32",
          "name": "operationId",
          "type": "bytes32"
        }
      ],
      "name": "mintTokens",
      "outputs": [],
      "stateMutability": "nonpayable",
      "type": "function"
    },
    {
      "inputs": [
        {
          "internalType": "address",
          "name": "",
          "type": "address"
        }
      ],
      "name": "mintedTokens",
      "outputs": [
        {
          "internalType": "uint256",
          "name": "",
          "type": "uint256"
        }
      ],
      "stateMutability": "view",
      "type": "function"
    },
    {
      "inputs": [],
      "name": "owner",
      "outputs": [
        {
          "internalType": "address",
          "name": "",
          "type": "address"
        }
      ],
      "stateMutability": "view",
      "type": "function"
    },
    {
      "inputs": [],
      "name": "pause",
      "outputs": [],
      "stateMutability": "nonpayable",
      "type": "function"
    },
    {
      "inputs": [],
      "name": "paused",
      "outputs": [
        {
          "internalType": "bool",
          "name": "",
          "type": "bool"
        }
      ],
      "stateMutability": "view",
      "type": "function"
    },
    {
      "inputs": [
        {
          "internalType": "bytes32",
          "name": "",
          "type": "bytes32"
        }
      ],
      "name": "processedOperations",
      "outputs": [
        {
          "internalType": "bool",
          "name": "",
          "type": "bool"
        }
      ],
      "stateMutability": "view",
      "type": "function"
    },
    {
      "inputs": [
        {
          "internalType": "address",
          "name": "token",
          "type": "address"
        }
      ],
      "name": "removeSupportedToken",
      "outputs": [],
      "stateMutability": "nonpayable",
      "type": "function"
    },
    {
      "inputs": [],
      "name": "renounceOwnership",
      "outputs": [],
      "stateMutability": "nonpayable",
      "type": "function"
    },
    {
      "inputs": [
        {
          "internalType": "address",
          "name": "",
          "type": "address"
        }
      ],
      "name": "supportedTokens",
      "outputs": [
        {
          "internalType": "bool",
          "name": "",
          "type": "bool"
        }
      ],
      "stateMutability": "view",
      "type": "function"
    },
    {
      "inputs": [
        {
          "internalType": "address",
          "name": "newOwner",
          "type": "address"
        }
      ],
      "name": "transferOwnership",
      "outputs": [],
      "stateMutability": "nonpayable",
      "type": "function"
    },
    {
      "inputs": [
        {
          "internalType": "address",
          "name": "token",
          "type": "address"
        },
        {
          "internalType": "address",
          "name": "to",
          "type": "address"
        },
        {
          "internalType": "uint256",
          "name": "amount",
          "type": "uint256"
        },
        {
          "internalType": "bytes32",
          "name": "operationId",
          "type": "bytes32"
        }
      ],
      "name": "unlockTokens",
      "outputs": [],
      "stateMutability": "nonpayable",
      "type": "function"
    },
    {
      "inputs": [],
      "name": "unpause",
      "outputs": [],
      "stateMutability": "nonpayable",
      "type": "function"
    }
  ],
  "bytecode": "0x60a060405234801561001057600080fd5b5060405162001595380380620015958339810160408190526100319161012d565b6001600055338061005d57604051631e4fbdf760e01b8152600060048201526024015b60405180910390fd5b610066816100db565b506001805460ff60a01b191690556001600160a01b0381166100ca5760405162461bcd60e51b815260206004820152601a60248201527f496e76616c696420456e747279506f696e7420616464726573730000000000006044820152606401610054565b6001600160a01b031660805261015d565b600180546001600160a01b038381166001600160a01b0319831681179093556040519116919082907f8be0079c531659141344cd1fd0a4f28419497f9722a3daafe3b4186f6b6457e090600090a35050565b60006020828403121561013f57600080fd5b81516001600160a01b038116811461015657600080fd5b9392505050565b60805161141562000180600039600081816102650152610e1d01526114156000f3fe608060405234801561001057600080fd5b50600436106101165760003560e01c806376319190116100a2578063a25983e511610071578063a25983e51461024d578063b0d691fe14610260578063e3a8747014610287578063f2fde38b146102aa578063fc96db02146102bd57600080fd5b806376319190146101fa5780637b6b23291461020d5780638456cb59146102205780638da5cb5b1461022857600080fd5b80635eb7413a116100e95780635eb7413a1461017c57806368c4ac261461019c5780636d69fcaf146101bf578063715018a6146101d25780637241dfa0146101da57600080fd5b80630d1118ce1461011b578063304ccad3146101415780633f4ba83a146101565780635c975abb1461015e575b600080fd5b61012e610129366004611134565b6102d0565b6040519081526020015b60405180910390f35b61015461014f36600461115e565b610535565b005b6101546107df565b600154600160a01b900460ff165b6040519015158152602001610138565b61012e61018a3660046111a0565b60036020526000908152604090205481565b61016c6101aa3660046111a0565b60056020526000908152604090205460ff1681565b6101546101cd3660046111a0565b6107f1565b61015461086b565b61012e6101e83660046111a0565b60046020526000908152604090205481565b6101546102083660046111a0565b61087d565b61015461021b36600461115e565b6108a6565b610154610ad3565b6001546001600160a01b03165b6040516001600160a01b039091168152602001610138565b61012e61025b3660046111c2565b610ae3565b6102357f000000000000000000000000000000000000000000000000000000000000000081565b61016c6102953660046111f5565b60026020526000908152604090205460ff1681565b6101546102b83660046111a0565b610d83565b6101546102cb36600461120e565b610dc1565b60006002600054036102fd5760405162461bcd60e51b81526004016102f49061124b565b60405180910390fd5b6002600055600154600160a01b900460ff161561032c5760405162461bcd60e51b81526004016102f490611282565b6001600160a01b03831660009081526005602052604090205460ff166103645760405162461bcd60e51b81526004016102f4906112ac565b600082116103b45760405162461bcd60e51b815260206004820152601d60248201527f416d6f756e74206d7573742062652067726561746572207468616e203000000060448201526064016102f4565b604051336024820152604481018390526000906001600160a01b0385169060640160408051601f198184030181529181526020820180516001600160e01b031663079cc67960e41b1790525161040a91906112d9565b6000604051808303816000865af19150503d8060008114610447576040519150601f19603f3d011682016040523d82523d6000602084013e61044c565b606091505b50509050806104945760405162461bcd60e51b8152602060048201526014602482015273151bdad95b88189d5c9b9a5b99c819985a5b195960621b60448201526064016102f4565b6040516bffffffffffffffffffffffff19606086811b8216602084015233901b1660348201526048810184905242606882015260009060880160408051601f198184030181528282528051602091820120878452908301819052925033916001600160a01b038816917fe8f20c56633ee0788ac537f386937d038d27e1f043feba00fa863ffb7aee0b39910160405180910390a36001600055949350505050565b6002600054036105575760405162461bcd60e51b81526004016102f49061124b565b6002600055600154600160a01b900460ff16156105865760405162461bcd60e51b81526004016102f490611282565b6001600160a01b03841660009081526005602052604090205460ff166105be5760405162461bcd60e51b81526004016102f4906112ac565b60008181526002602052604090205460ff16156105ed5760405162461bcd60e51b81526004016102f490611308565b6001600160a01b0384166000908152600360205260409020548211156106555760405162461bcd60e51b815260206004820152601a60248201527f496e73756666696369656e74206c6f636b656420746f6b656e7300000000000060448201526064016102f4565b6000818152600260209081526040808320805460ff191660011790556001600160a01b0387168352600390915281208054849290610694908490611355565b90915550506040516001600160a01b038481166024830152604482018490526000919086169060640160408051601f198184030181529181526020820180516001600160e01b031663a9059cbb60e01b179052516106f291906112d9565b6000604051808303816000865af19150503d806000811461072f576040519150601f19603f3d011682016040523d82523d6000602084013e610734565b606091505b505090508061077d5760405162461bcd60e51b8152602060048201526015602482015274151bdad95b881d1c985b9cd9995c8819985a5b1959605a1b60448201526064016102f4565b836001600160a01b0316856001600160a01b03167fc24528373542ee9723afbd28e392c80d637cad2d28d9034600064379224c440585856040516107cb929190918252602082015260400190565b60405180910390a350506001600055505050565b6107e7610f99565b6107ef610fc6565b565b6107f9610f99565b6001600160a01b0381166108475760405162461bcd60e51b8152602060048201526015602482015274496e76616c696420746f6b656e206164647265737360581b60448201526064016102f4565b6001600160a01b03166000908152600560205260409020805460ff19166001179055565b610873610f99565b6107ef6000611059565b610885610f99565b6001600160a01b03166000908152600560205260409020805460ff19169055565b6002600054036108c85760405162461bcd60e51b81526004016102f49061124b565b6002600055600154600160a01b900460ff16156108f75760405162461bcd60e51b81526004016102f490611282565b6001600160a01b03841660009081526005602052604090205460ff1661092f5760405162461bcd60e51b81526004016102f4906112ac565b60008181526002602052604090205460ff161561095e5760405162461bcd60e51b81526004016102f490611308565b6000818152600260209081526040808320805460ff191660011790556001600160a01b038716835260049091528120805484929061099d90849061136e565b90915550506040516001600160a01b038481166024830152604482018490526000919086169060640160408051601f198184030181529181526020820180516001600160e01b03166340c10f1960e01b179052516109fb91906112d9565b6000604051808303816000865af19150503d8060008114610a38576040519150601f19603f3d011682016040523d82523d6000602084013e610a3d565b606091505b5050905080610a855760405162461bcd60e51b8152602060048201526014602482015273151bdad95b881b5a5b9d1a5b99c819985a5b195960621b60448201526064016102f4565b836001600160a01b0316856001600160a01b03167f91dd2cbfd54587f3aef7d0966c4185fae943cc4fe9e40877d4d7f2be4ec46e8085856040516107cb929190918252602082015260400190565b610adb610f99565b6107ef6110ab565b6000600260005403610b075760405162461bcd60e51b81526004016102f49061124b565b6002600055600154600160a01b900460ff1615610b365760405162461bcd60e51b81526004016102f490611282565b6001600160a01b03841660009081526005602052604090205460ff16610b6e5760405162461bcd60e51b81526004016102f4906112ac565b60008311610bbe5760405162461bcd60e51b815260206004820152601d60248201527f416d6f756e74206d7573742062652067726561746572207468616e203000000060448201526064016102f4565b604051336024820152306044820152606481018490526000906001600160a01b0386169060840160408051601f198184030181529181526020820180516001600160e01b03166323b872dd60e01b17905251610c1a91906112d9565b6000604051808303816000865af19150503d8060008114610c57576040519150601f19603f3d011682016040523d82523d6000602084013e610c5c565b606091505b5050905080610ca55760405162461bcd60e51b8152602060048201526015602482015274151bdad95b881d1c985b9cd9995c8819985a5b1959605a1b60448201526064016102f4565b6001600160a01b03851660009081526003602052604081208054869290610ccd90849061136e565b90915550506040516bffffffffffffffffffffffff19606087811b8216602084015233901b166034820152604881018590526068810184905242608882015260009060a80160408051601f198184030181528282528051602091820120888452908301879052908201819052915033906001600160a01b038816907fa2af31c75cfe3e751523601fbd1e31c2e8536ea8c4876f8b81278de400f0e1d69060600160405180910390a3600160005595945050505050565b610d8b610f99565b6001600160a01b038116610db557604051631e4fbdf760e01b8152600060048201526024016102f4565b610dbe81611059565b50565b600260005403610de35760405162461bcd60e51b81526004016102f49061124b565b6002600055600154600160a01b900460ff1615610e125760405162461bcd60e51b81526004016102f490611282565b336001600160a01b037f00000000000000000000000000000000000000000000000000000000000000001614610e8a5760405162461bcd60e51b815260206004820152601860248201527f4f6e6c7920456e747279506f696e742063616e2063616c6c000000000000000060448201526064016102f4565b60008181526002602052604090205460ff1615610eb95760405162461bcd60e51b81526004016102f490611308565b60008181526002602090815260408220805460ff19166001179055610ee0908401846111a0565b6001600160a01b0316610ef66060850185611381565b604051610f049291906113cf565b6000604051808303816000865af19150503d8060008114610f41576040519150601f19603f3d011682016040523d82523d6000602084013e610f46565b606091505b5050905080610f8f5760405162461bcd60e51b8152602060048201526015602482015274155cd95c881bdc195c985d1a5bdb8819985a5b1959605a1b60448201526064016102f4565b5050600160005550565b6001546001600160a01b031633146107ef5760405163118cdaa760e01b81523360048201526024016102f4565b600154600160a01b900460ff166110165760405162461bcd60e51b815260206004820152601460248201527314185d5cd8589b194e881b9bdd081c185d5cd95960621b60448201526064016102f4565b6001805460ff60a01b191690556040513381527f5db9ee0a495bf2e6ff9c91a7834c1ba4fdd244a5e8aa4e537bd38aeae4b073aa906020015b60405180910390a1565b600180546001600160a01b038381166001600160a01b0319831681179093556040519116919082907f8be0079c531659141344cd1fd0a4f28419497f9722a3daafe3b4186f6b6457e090600090a35050565b600154600160a01b900460ff16156110d55760405162461bcd60e51b81526004016102f490611282565b6001805460ff60a01b1916600160a01b1790556040513381527f62e78cea01bee320cd4e420270b5ea74000d11b0c9f74754ebdbfc544b05a2589060200161104f565b80356001600160a01b038116811461112f57600080fd5b919050565b6000806040838503121561114757600080fd5b61115083611118565b946020939093013593505050565b6000806000806080858703121561117457600080fd5b61117d85611118565b935061118b60208601611118565b93969395505050506040820135916060013590565b6000602082840312156111b257600080fd5b6111bb82611118565b9392505050565b6000806000606084860312156111d757600080fd5b6111e084611118565b95602085013595506040909401359392505050565b60006020828403121561120757600080fd5b5035919050565b6000806040838503121561122157600080fd5b823567ffffffffffffffff81111561123857600080fd5b8301610160818603121561115057600080fd5b6020808252601f908201527f5265656e7472616e637947756172643a207265656e7472616e742063616c6c00604082015260600190565b60208082526010908201526f14185d5cd8589b194e881c185d5cd95960821b604082015260600190565b602080825260139082015272151bdad95b881b9bdd081cdd5c1c1bdc9d1959606a1b604082015260600190565b6000825160005b818110156112fa57602081860181015185830152016112e0565b506000920191825250919050565b6020808252601b908201527f4f7065726174696f6e20616c72656164792070726f6365737365640000000000604082015260600190565b634e487b7160e01b600052601160045260246000fd5b818103818111156113685761136861133f565b92915050565b808201808211156113685761136861133f565b6000808335601e1984360301811261139857600080fd5b83018035915067ffffffffffffffff8211156113b357600080fd5b6020019150368190038213156113c857600080fd5b9250929050565b818382376000910190815291905056fea26469706673582212206190a970654f973a0b4811af191fb67b606350c589fc20cd6186e92874b674ee64736f6c63430008180033",
  "linkReferences": {},
  "deployedLinkReferences": {}
}